{
  "contractName": "GameItems1",
  "abi": [
    {
      "inputs": [
        {
          "internalType": "address",
          "name": "marketplaceAddress",
          "type": "address"
        }
      ],
      "stateMutability": "nonpayable",
      "type": "constructor"
    },
    {
      "anonymous": false,
      "inputs": [
        {
          "indexed": true,
          "internalType": "address",
          "name": "account",
          "type": "address"
        },
        {
          "indexed": true,
          "internalType": "address",
          "name": "operator",
          "type": "address"
        },
        {
          "indexed": false,
          "internalType": "bool",
          "name": "approved",
          "type": "bool"
        }
      ],
      "name": "ApprovalForAll",
      "type": "event"
    },
    {
      "anonymous": false,
      "inputs": [
        {
          "indexed": true,
          "internalType": "address",
          "name": "operator",
          "type": "address"
        },
        {
          "indexed": true,
          "internalType": "address",
          "name": "from",
          "type": "address"
        },
        {
          "indexed": true,
          "internalType": "address",
          "name": "to",
          "type": "address"
        },
        {
          "indexed": false,
          "internalType": "uint256[]",
          "name": "ids",
          "type": "uint256[]"
        },
        {
          "indexed": false,
          "internalType": "uint256[]",
          "name": "values",
          "type": "uint256[]"
        }
      ],
      "name": "TransferBatch",
      "type": "event"
    },
    {
      "anonymous": false,
      "inputs": [
        {
          "indexed": true,
          "internalType": "address",
          "name": "operator",
          "type": "address"
        },
        {
          "indexed": true,
          "internalType": "address",
          "name": "from",
          "type": "address"
        },
        {
          "indexed": true,
          "internalType": "address",
          "name": "to",
          "type": "address"
        },
        {
          "indexed": false,
          "internalType": "uint256",
          "name": "id",
          "type": "uint256"
        },
        {
          "indexed": false,
          "internalType": "uint256",
          "name": "value",
          "type": "uint256"
        }
      ],
      "name": "TransferSingle",
      "type": "event"
    },
    {
      "anonymous": false,
      "inputs": [
        {
          "indexed": false,
          "internalType": "string",
          "name": "value",
          "type": "string"
        },
        {
          "indexed": true,
          "internalType": "uint256",
          "name": "id",
          "type": "uint256"
        }
      ],
      "name": "URI",
      "type": "event"
    },
    {
      "inputs": [
        {
          "internalType": "address",
          "name": "account",
          "type": "address"
        },
        {
          "internalType": "uint256",
          "name": "id",
          "type": "uint256"
        }
      ],
      "name": "balanceOf",
      "outputs": [
        {
          "internalType": "uint256",
          "name": "",
          "type": "uint256"
        }
      ],
      "stateMutability": "view",
      "type": "function"
    },
    {
      "inputs": [
        {
          "internalType": "address[]",
          "name": "accounts",
          "type": "address[]"
        },
        {
          "internalType": "uint256[]",
          "name": "ids",
          "type": "uint256[]"
        }
      ],
      "name": "balanceOfBatch",
      "outputs": [
        {
          "internalType": "uint256[]",
          "name": "",
          "type": "uint256[]"
        }
      ],
      "stateMutability": "view",
      "type": "function"
    },
    {
      "inputs": [
        {
          "internalType": "address",
          "name": "account",
          "type": "address"
        },
        {
          "internalType": "address",
          "name": "operator",
          "type": "address"
        }
      ],
      "name": "isApprovedForAll",
      "outputs": [
        {
          "internalType": "bool",
          "name": "",
          "type": "bool"
        }
      ],
      "stateMutability": "view",
      "type": "function"
    },
    {
      "inputs": [
        {
          "internalType": "address",
          "name": "from",
          "type": "address"
        },
        {
          "internalType": "address",
          "name": "to",
          "type": "address"
        },
        {
          "internalType": "uint256[]",
          "name": "ids",
          "type": "uint256[]"
        },
        {
          "internalType": "uint256[]",
          "name": "amounts",
          "type": "uint256[]"
        },
        {
          "internalType": "bytes",
          "name": "data",
          "type": "bytes"
        }
      ],
      "name": "safeBatchTransferFrom",
      "outputs": [],
      "stateMutability": "nonpayable",
      "type": "function"
    },
    {
      "inputs": [
        {
          "internalType": "address",
          "name": "from",
          "type": "address"
        },
        {
          "internalType": "address",
          "name": "to",
          "type": "address"
        },
        {
          "internalType": "uint256",
          "name": "id",
          "type": "uint256"
        },
        {
          "internalType": "uint256",
          "name": "amount",
          "type": "uint256"
        },
        {
          "internalType": "bytes",
          "name": "data",
          "type": "bytes"
        }
      ],
      "name": "safeTransferFrom",
      "outputs": [],
      "stateMutability": "nonpayable",
      "type": "function"
    },
    {
      "inputs": [
        {
          "internalType": "address",
          "name": "operator",
          "type": "address"
        },
        {
          "internalType": "bool",
          "name": "approved",
          "type": "bool"
        }
      ],
      "name": "setApprovalForAll",
      "outputs": [],
      "stateMutability": "nonpayable",
      "type": "function"
    },
    {
      "inputs": [
        {
          "internalType": "bytes4",
          "name": "interfaceId",
          "type": "bytes4"
        }
      ],
      "name": "supportsInterface",
      "outputs": [
        {
          "internalType": "bool",
          "name": "",
          "type": "bool"
        }
      ],
      "stateMutability": "view",
      "type": "function"
    },
    {
      "inputs": [
        {
          "internalType": "uint256",
          "name": "tokenId",
          "type": "uint256"
        }
      ],
      "name": "ownerOf",
      "outputs": [
        {
          "internalType": "address",
          "name": "",
          "type": "address"
        }
      ],
      "stateMutability": "view",
      "type": "function"
    },
    {
      "inputs": [
        {
          "internalType": "uint256",
          "name": "tokenId",
          "type": "uint256"
        }
      ],
      "name": "uri",
      "outputs": [
        {
          "internalType": "string",
          "name": "",
          "type": "string"
        }
      ],
      "stateMutability": "view",
      "type": "function"
    },
    {
      "inputs": [
        {
          "internalType": "uint256",
          "name": "tokenId",
          "type": "uint256"
        },
        {
          "internalType": "string",
          "name": "URI",
          "type": "string"
        }
      ],
      "name": "setTokenUri",
      "outputs": [],
      "stateMutability": "nonpayable",
      "type": "function"
    },
    {
      "inputs": [
        {
          "internalType": "uint256",
          "name": "_tokenId",
          "type": "uint256"
        },
        {
          "internalType": "string",
          "name": "tokenURI",
          "type": "string"
        },
        {
          "internalType": "uint256",
          "name": "amount",
          "type": "uint256"
        }
      ],
      "name": "createToken",
      "outputs": [
        {
          "internalType": "uint256",
          "name": "",
          "type": "uint256"
        }
      ],
      "stateMutability": "nonpayable",
      "type": "function"
    },
    {
      "inputs": [
        {
          "internalType": "uint256",
          "name": "tokenId",
          "type": "uint256"
        },
        {
          "internalType": "uint256",
          "name": "amount",
          "type": "uint256"
        }
      ],
      "name": "burn",
      "outputs": [],
      "stateMutability": "nonpayable",
      "type": "function"
    }
  ],
  "bytecode": "0x60806040523480156200001157600080fd5b506040516200351538038062003515833981810160405281019062000037919062000184565b604051806020016040528060008152506200005881620000a160201b60201c565b5080600560006101000a81548173ffffffffffffffffffffffffffffffffffffffff021916908373ffffffffffffffffffffffffffffffffffffffff1602179055505062000263565b8060029080519060200190620000b9929190620000bd565b5050565b828054620000cb90620001e4565b90600052602060002090601f016020900481019282620000ef57600085556200013b565b82601f106200010a57805160ff19168380011785556200013b565b828001600101855582156200013b579182015b828111156200013a5782518255916020019190600101906200011d565b5b5090506200014a91906200014e565b5090565b5b80821115620001695760008160009055506001016200014f565b5090565b6000815190506200017e8162000249565b92915050565b6000602082840312156200019757600080fd5b6000620001a7848285016200016d565b91505092915050565b6000620001bd82620001c4565b9050919050565b600073ffffffffffffffffffffffffffffffffffffffff82169050919050565b60006002820490506001821680620001fd57607f821691505b602082108114156200021457620002136200021a565b5b50919050565b7f4e487b7100000000000000000000000000000000000000000000000000000000600052602260045260246000fd5b6200025481620001b0565b81146200026057600080fd5b50565b6132a280620002736000396000f3fe608060405234801561001057600080fd5b50600436106100b35760003560e01c80636352211e116100715780636352211e146101b0578063a22cb465146101e0578063b390c0ab146101fc578063e8bfc93f14610218578063e985e9c514610248578063f242432a14610278576100b3565b8062fdd58e146100b857806301ffc9a7146100e85780630e89341c146101185780632eb2c2d6146101485780634e1273f41461016457806357f7789e14610194575b600080fd5b6100d260048036038101906100cd9190612048565b610294565b6040516100df91906128e6565b60405180910390f35b61010260048036038101906100fd91906120f0565b61035d565b60405161010f91906126c9565b60405180910390f35b610132600480360381019061012d9190612142565b61043f565b60405161013f91906126e4565b60405180910390f35b610162600480360381019061015d9190611ebe565b6104e4565b005b61017e60048036038101906101799190612084565b610585565b60405161018b9190612670565b60405180910390f35b6101ae60048036038101906101a9919061216b565b610736565b005b6101ca60048036038101906101c59190612142565b6107a4565b6040516101d79190612593565b60405180910390f35b6101fa60048036038101906101f5919061200c565b610856565b005b61021660048036038101906102119190612226565b61086c565b005b610232600480360381019061022d91906121bf565b6108bd565b60405161023f91906128e6565b60405180910390f35b610262600480360381019061025d9190611e82565b6109b6565b60405161026f91906126c9565b60405180910390f35b610292600480360381019061028d9190611f7d565b610a4a565b005b60008073ffffffffffffffffffffffffffffffffffffffff168373ffffffffffffffffffffffffffffffffffffffff161415610305576040517f08c379a00000000000000000000000000000000000000000000000000000000081526004016102fc90612746565b60405180910390fd5b60008083815260200190815260200160002060008473ffffffffffffffffffffffffffffffffffffffff1673ffffffffffffffffffffffffffffffffffffffff16815260200190815260200160002054905092915050565b60007fd9b67a26000000000000000000000000000000000000000000000000000000007bffffffffffffffffffffffffffffffffffffffffffffffffffffffff1916827bffffffffffffffffffffffffffffffffffffffffffffffffffffffff1916148061042857507f0e89341c000000000000000000000000000000000000000000000000000000007bffffffffffffffffffffffffffffffffffffffffffffffffffffffff1916827bffffffffffffffffffffffffffffffffffffffffffffffffffffffff1916145b80610438575061043782610aeb565b5b9050919050565b606060036000838152602001908152602001600020805461045f90612b86565b80601f016020809104026020016040519081016040528092919081815260200182805461048b90612b86565b80156104d85780601f106104ad576101008083540402835291602001916104d8565b820191906000526020600020905b8154815290600101906020018083116104bb57829003601f168201915b50505050509050919050565b6104ec610b55565b73ffffffffffffffffffffffffffffffffffffffff168573ffffffffffffffffffffffffffffffffffffffff16148061053257506105318561052c610b55565b6109b6565b5b610571576040517f08c379a0000000000000000000000000000000000000000000000000000000008152600401610568906127e6565b60405180910390fd5b61057e8585858585610b5d565b5050505050565b606081518351146105cb576040517f08c379a00000000000000000000000000000000000000000000000000000000081526004016105c290612866565b60405180910390fd5b6000835167ffffffffffffffff81111561060e577f4e487b7100000000000000000000000000000000000000000000000000000000600052604160045260246000fd5b60405190808252806020026020018201604052801561063c5781602001602082028036833780820191505090505b50905060005b845181101561072b576106d5858281518110610687577f4e487b7100000000000000000000000000000000000000000000000000000000600052603260045260246000fd5b60200260200101518583815181106106c8577f4e487b7100000000000000000000000000000000000000000000000000000000600052603260045260246000fd5b6020026020010151610294565b82828151811061070e577f4e487b7100000000000000000000000000000000000000000000000000000000600052603260045260246000fd5b6020026020010181815250508061072490612be9565b9050610642565b508091505092915050565b81610740816107a4565b73ffffffffffffffffffffffffffffffffffffffff163373ffffffffffffffffffffffffffffffffffffffff161461077757600080fd5b8160036000858152602001908152602001600020908051906020019061079e929190611b7a565b50505050565b6000806006600084815260200190815260200160002060009054906101000a900473ffffffffffffffffffffffffffffffffffffffff169050600073ffffffffffffffffffffffffffffffffffffffff168173ffffffffffffffffffffffffffffffffffffffff16141561084d576040517f08c379a0000000000000000000000000000000000000000000000000000000008152600401610844906127a6565b60405180910390fd5b80915050919050565b610868610861610b55565b8383610ebd565b5050565b81610876816107a4565b73ffffffffffffffffffffffffffffffffffffffff163373ffffffffffffffffffffffffffffffffffffffff16146108ad57600080fd5b6108b833848461102a565b505050565b60006108c884611247565b15610908576040517f08c379a00000000000000000000000000000000000000000000000000000000081526004016108ff906128c6565b60405180910390fd5b610923338584604051806020016040528060008152506112b3565b336006600086815260200190815260200160002060006101000a81548173ffffffffffffffffffffffffffffffffffffffff021916908373ffffffffffffffffffffffffffffffffffffffff16021790555061097f8484610736565b6109ac600560009054906101000a900473ffffffffffffffffffffffffffffffffffffffff166001610856565b8390509392505050565b6000600160008473ffffffffffffffffffffffffffffffffffffffff1673ffffffffffffffffffffffffffffffffffffffff16815260200190815260200160002060008373ffffffffffffffffffffffffffffffffffffffff1673ffffffffffffffffffffffffffffffffffffffff16815260200190815260200160002060009054906101000a900460ff16905092915050565b610a52610b55565b73ffffffffffffffffffffffffffffffffffffffff168573ffffffffffffffffffffffffffffffffffffffff161480610a985750610a9785610a92610b55565b6109b6565b5b610ad7576040517f08c379a0000000000000000000000000000000000000000000000000000000008152600401610ace90612786565b60405180910390fd5b610ae48585858585611449565b5050505050565b60007f01ffc9a7000000000000000000000000000000000000000000000000000000007bffffffffffffffffffffffffffffffffffffffffffffffffffffffff1916827bffffffffffffffffffffffffffffffffffffffffffffffffffffffff1916149050919050565b600033905090565b8151835114610ba1576040517f08c379a0000000000000000000000000000000000000000000000000000000008152600401610b9890612886565b60405180910390fd5b600073ffffffffffffffffffffffffffffffffffffffff168473ffffffffffffffffffffffffffffffffffffffff161415610c11576040517f08c379a0000000000000000000000000000000000000000000000000000000008152600401610c08906127c6565b60405180910390fd5b6000610c1b610b55565b9050610c2b8187878787876116cb565b60005b8451811015610e28576000858281518110610c72577f4e487b7100000000000000000000000000000000000000000000000000000000600052603260045260246000fd5b602002602001015190506000858381518110610cb7577f4e487b7100000000000000000000000000000000000000000000000000000000600052603260045260246000fd5b60200260200101519050600080600084815260200190815260200160002060008b73ffffffffffffffffffffffffffffffffffffffff1673ffffffffffffffffffffffffffffffffffffffff16815260200190815260200160002054905081811015610d58576040517f08c379a0000000000000000000000000000000000000000000000000000000008152600401610d4f90612826565b60405180910390fd5b81810360008085815260200190815260200160002060008c73ffffffffffffffffffffffffffffffffffffffff1673ffffffffffffffffffffffffffffffffffffffff168152602001908152602001600020819055508160008085815260200190815260200160002060008b73ffffffffffffffffffffffffffffffffffffffff1673ffffffffffffffffffffffffffffffffffffffff1681526020019081526020016000206000828254610e0d9190612a7a565b9250508190555050505080610e2190612be9565b9050610c2e565b508473ffffffffffffffffffffffffffffffffffffffff168673ffffffffffffffffffffffffffffffffffffffff168273ffffffffffffffffffffffffffffffffffffffff167f4a39dc06d4c0dbc64b70af90fd698a233a518aa5d07e595d983b8c0526c8f7fb8787604051610e9f929190612692565b60405180910390a4610eb58187878787876116d3565b505050505050565b8173ffffffffffffffffffffffffffffffffffffffff168373ffffffffffffffffffffffffffffffffffffffff161415610f2c576040517f08c379a0000000000000000000000000000000000000000000000000000000008152600401610f2390612846565b60405180910390fd5b80600160008573ffffffffffffffffffffffffffffffffffffffff1673ffffffffffffffffffffffffffffffffffffffff16815260200190815260200160002060008473ffffffffffffffffffffffffffffffffffffffff1673ffffffffffffffffffffffffffffffffffffffff16815260200190815260200160002060006101000a81548160ff0219169083151502179055508173ffffffffffffffffffffffffffffffffffffffff168373ffffffffffffffffffffffffffffffffffffffff167f17307eab39ab6107e8899845ad3d59bd9653f200f220920489ca2b5937696c318360405161101d91906126c9565b60405180910390a3505050565b600073ffffffffffffffffffffffffffffffffffffffff168373ffffffffffffffffffffffffffffffffffffffff16141561109a576040517f08c379a000000000000000000000000000000000000000000000000000000000815260040161109190612806565b60405180910390fd5b60006110a4610b55565b90506110d4818560006110b6876118ba565b6110bf876118ba565b604051806020016040528060008152506116cb565b600080600085815260200190815260200160002060008673ffffffffffffffffffffffffffffffffffffffff1673ffffffffffffffffffffffffffffffffffffffff1681526020019081526020016000205490508281101561116b576040517f08c379a000000000000000000000000000000000000000000000000000000000815260040161116290612766565b60405180910390fd5b82810360008086815260200190815260200160002060008773ffffffffffffffffffffffffffffffffffffffff1673ffffffffffffffffffffffffffffffffffffffff16815260200190815260200160002081905550600073ffffffffffffffffffffffffffffffffffffffff168573ffffffffffffffffffffffffffffffffffffffff168373ffffffffffffffffffffffffffffffffffffffff167fc3d58168c5ae7397731d063d5bbf3d657854427343f4c083240f7aacaa2d0f628787604051611238929190612901565b60405180910390a45050505050565b60008073ffffffffffffffffffffffffffffffffffffffff166006600084815260200190815260200160002060009054906101000a900473ffffffffffffffffffffffffffffffffffffffff1673ffffffffffffffffffffffffffffffffffffffff1614159050919050565b600073ffffffffffffffffffffffffffffffffffffffff168473ffffffffffffffffffffffffffffffffffffffff161415611323576040517f08c379a000000000000000000000000000000000000000000000000000000000815260040161131a906128a6565b60405180910390fd5b600061132d610b55565b905061134e8160008761133f886118ba565b611348886118ba565b876116cb565b8260008086815260200190815260200160002060008773ffffffffffffffffffffffffffffffffffffffff1673ffffffffffffffffffffffffffffffffffffffff16815260200190815260200160002060008282546113ad9190612a7a565b925050819055508473ffffffffffffffffffffffffffffffffffffffff16600073ffffffffffffffffffffffffffffffffffffffff168273ffffffffffffffffffffffffffffffffffffffff167fc3d58168c5ae7397731d063d5bbf3d657854427343f4c083240f7aacaa2d0f62878760405161142b929190612901565b60405180910390a461144281600087878787611980565b5050505050565b600073ffffffffffffffffffffffffffffffffffffffff168473ffffffffffffffffffffffffffffffffffffffff1614156114b9576040517f08c379a00000000000000000000000000000000000000000000000000000000081526004016114b0906127c6565b60405180910390fd5b60006114c3610b55565b90506114e38187876114d4886118ba565b6114dd886118ba565b876116cb565b600080600086815260200190815260200160002060008873ffffffffffffffffffffffffffffffffffffffff1673ffffffffffffffffffffffffffffffffffffffff1681526020019081526020016000205490508381101561157a576040517f08c379a000000000000000000000000000000000000000000000000000000000815260040161157190612826565b60405180910390fd5b83810360008087815260200190815260200160002060008973ffffffffffffffffffffffffffffffffffffffff1673ffffffffffffffffffffffffffffffffffffffff168152602001908152602001600020819055508360008087815260200190815260200160002060008873ffffffffffffffffffffffffffffffffffffffff1673ffffffffffffffffffffffffffffffffffffffff168152602001908152602001600020600082825461162f9190612a7a565b925050819055508573ffffffffffffffffffffffffffffffffffffffff168773ffffffffffffffffffffffffffffffffffffffff168373ffffffffffffffffffffffffffffffffffffffff167fc3d58168c5ae7397731d063d5bbf3d657854427343f4c083240f7aacaa2d0f6288886040516116ac929190612901565b60405180910390a46116c2828888888888611980565b50505050505050565b505050505050565b6116f28473ffffffffffffffffffffffffffffffffffffffff16611b67565b156118b2578373ffffffffffffffffffffffffffffffffffffffff1663bc197c8187878686866040518663ffffffff1660e01b81526004016117389594939291906125ae565b602060405180830381600087803b15801561175257600080fd5b505af192505050801561178357506040513d601f19601f820116820180604052508101906117809190612119565b60015b6118295761178f612cbf565b806308c379a014156117ec57506117a461317a565b806117af57506117ee565b806040517f08c379a00000000000000000000000000000000000000000000000000000000081526004016117e391906126e4565b60405180910390fd5b505b6040517f08c379a000000000000000000000000000000000000000000000000000000000815260040161182090612706565b60405180910390fd5b63bc197c8160e01b7bffffffffffffffffffffffffffffffffffffffffffffffffffffffff1916817bffffffffffffffffffffffffffffffffffffffffffffffffffffffff1916146118b0576040517f08c379a00000000000000000000000000000000000000000000000000000000081526004016118a790612726565b60405180910390fd5b505b505050505050565b60606000600167ffffffffffffffff8111156118ff577f4e487b7100000000000000000000000000000000000000000000000000000000600052604160045260246000fd5b60405190808252806020026020018201604052801561192d5781602001602082028036833780820191505090505b509050828160008151811061196b577f4e487b7100000000000000000000000000000000000000000000000000000000600052603260045260246000fd5b60200260200101818152505080915050919050565b61199f8473ffffffffffffffffffffffffffffffffffffffff16611b67565b15611b5f578373ffffffffffffffffffffffffffffffffffffffff1663f23a6e6187878686866040518663ffffffff1660e01b81526004016119e5959493929190612616565b602060405180830381600087803b1580156119ff57600080fd5b505af1925050508015611a3057506040513d601f19601f82011682018060405250810190611a2d9190612119565b60015b611ad657611a3c612cbf565b806308c379a01415611a995750611a5161317a565b80611a5c5750611a9b565b806040517f08c379a0000000000000000000000000000000000000000000000000000000008152600401611a9091906126e4565b60405180910390fd5b505b6040517f08c379a0000000000000000000000000000000000000000000000000000000008152600401611acd90612706565b60405180910390fd5b63f23a6e6160e01b7bffffffffffffffffffffffffffffffffffffffffffffffffffffffff1916817bffffffffffffffffffffffffffffffffffffffffffffffffffffffff191614611b5d576040517f08c379a0000000000000000000000000000000000000000000000000000000008152600401611b5490612726565b60405180910390fd5b505b505050505050565b600080823b905060008111915050919050565b828054611b8690612b86565b90600052602060002090601f016020900481019282611ba85760008555611bef565b82601f10611bc157805160ff1916838001178555611bef565b82800160010185558215611bef579182015b82811115611bee578251825591602001919060010190611bd3565b5b509050611bfc9190611c00565b5090565b5b80821115611c19576000816000905550600101611c01565b5090565b6000611c30611c2b8461294f565b61292a565b90508083825260208201905082856020860282011115611c4f57600080fd5b60005b85811015611c7f5781611c658882611d71565b845260208401935060208301925050600181019050611c52565b5050509392505050565b6000611c9c611c978461297b565b61292a565b90508083825260208201905082856020860282011115611cbb57600080fd5b60005b85811015611ceb5781611cd18882611e6d565b845260208401935060208301925050600181019050611cbe565b5050509392505050565b6000611d08611d03846129a7565b61292a565b905082815260208101848484011115611d2057600080fd5b611d2b848285612b44565b509392505050565b6000611d46611d41846129d8565b61292a565b905082815260208101848484011115611d5e57600080fd5b611d69848285612b44565b509392505050565b600081359050611d8081613210565b92915050565b600082601f830112611d9757600080fd5b8135611da7848260208601611c1d565b91505092915050565b600082601f830112611dc157600080fd5b8135611dd1848260208601611c89565b91505092915050565b600081359050611de981613227565b92915050565b600081359050611dfe8161323e565b92915050565b600081519050611e138161323e565b92915050565b600082601f830112611e2a57600080fd5b8135611e3a848260208601611cf5565b91505092915050565b600082601f830112611e5457600080fd5b8135611e64848260208601611d33565b91505092915050565b600081359050611e7c81613255565b92915050565b60008060408385031215611e9557600080fd5b6000611ea385828601611d71565b9250506020611eb485828601611d71565b9150509250929050565b600080600080600060a08688031215611ed657600080fd5b6000611ee488828901611d71565b9550506020611ef588828901611d71565b945050604086013567ffffffffffffffff811115611f1257600080fd5b611f1e88828901611db0565b935050606086013567ffffffffffffffff811115611f3b57600080fd5b611f4788828901611db0565b925050608086013567ffffffffffffffff811115611f6457600080fd5b611f7088828901611e19565b9150509295509295909350565b600080600080600060a08688031215611f9557600080fd5b6000611fa388828901611d71565b9550506020611fb488828901611d71565b9450506040611fc588828901611e6d565b9350506060611fd688828901611e6d565b925050608086013567ffffffffffffffff811115611ff357600080fd5b611fff88828901611e19565b9150509295509295909350565b6000806040838503121561201f57600080fd5b600061202d85828601611d71565b925050602061203e85828601611dda565b9150509250929050565b6000806040838503121561205b57600080fd5b600061206985828601611d71565b925050602061207a85828601611e6d565b9150509250929050565b6000806040838503121561209757600080fd5b600083013567ffffffffffffffff8111156120b157600080fd5b6120bd85828601611d86565b925050602083013567ffffffffffffffff8111156120da57600080fd5b6120e685828601611db0565b9150509250929050565b60006020828403121561210257600080fd5b600061211084828501611def565b91505092915050565b60006020828403121561212b57600080fd5b600061213984828501611e04565b91505092915050565b60006020828403121561215457600080fd5b600061216284828501611e6d565b91505092915050565b6000806040838503121561217e57600080fd5b600061218c85828601611e6d565b925050602083013567ffffffffffffffff8111156121a957600080fd5b6121b585828601611e43565b9150509250929050565b6000806000606084860312156121d457600080fd5b60006121e286828701611e6d565b935050602084013567ffffffffffffffff8111156121ff57600080fd5b61220b86828701611e43565b925050604061221c86828701611e6d565b9150509250925092565b6000806040838503121561223957600080fd5b600061224785828601611e6d565b925050602061225885828601611e6d565b9150509250929050565b600061226e8383612575565b60208301905092915050565b61228381612ad0565b82525050565b600061229482612a19565b61229e8185612a47565b93506122a983612a09565b8060005b838110156122da5781516122c18882612262565b97506122cc83612a3a565b9250506001810190506122ad565b5085935050505092915050565b6122f081612ae2565b82525050565b600061230182612a24565b61230b8185612a58565b935061231b818560208601612b53565b61232481612ce1565b840191505092915050565b600061233a82612a2f565b6123448185612a69565b9350612354818560208601612b53565b61235d81612ce1565b840191505092915050565b6000612375603483612a69565b915061238082612cff565b604082019050919050565b6000612398602883612a69565b91506123a382612d4e565b604082019050919050565b60006123bb602b83612a69565b91506123c682612d9d565b604082019050919050565b60006123de602483612a69565b91506123e982612dec565b604082019050919050565b6000612401602983612a69565b915061240c82612e3b565b604082019050919050565b6000612424602a83612a69565b915061242f82612e8a565b604082019050919050565b6000612447602583612a69565b915061245282612ed9565b604082019050919050565b600061246a603283612a69565b915061247582612f28565b604082019050919050565b600061248d602383612a69565b915061249882612f77565b604082019050919050565b60006124b0602a83612a69565b91506124bb82612fc6565b604082019050919050565b60006124d3602983612a69565b91506124de82613015565b604082019050919050565b60006124f6602983612a69565b915061250182613064565b604082019050919050565b6000612519602883612a69565b9150612524826130b3565b604082019050919050565b600061253c602183612a69565b915061254782613102565b604082019050919050565b600061255f601d83612a69565b915061256a82613151565b602082019050919050565b61257e81612b3a565b82525050565b61258d81612b3a565b82525050565b60006020820190506125a8600083018461227a565b92915050565b600060a0820190506125c3600083018861227a565b6125d0602083018761227a565b81810360408301526125e28186612289565b905081810360608301526125f68185612289565b9050818103608083015261260a81846122f6565b90509695505050505050565b600060a08201905061262b600083018861227a565b612638602083018761227a565b6126456040830186612584565b6126526060830185612584565b818103608083015261266481846122f6565b90509695505050505050565b6000602082019050818103600083015261268a8184612289565b905092915050565b600060408201905081810360008301526126ac8185612289565b905081810360208301526126c08184612289565b90509392505050565b60006020820190506126de60008301846122e7565b92915050565b600060208201905081810360008301526126fe818461232f565b905092915050565b6000602082019050818103600083015261271f81612368565b9050919050565b6000602082019050818103600083015261273f8161238b565b9050919050565b6000602082019050818103600083015261275f816123ae565b9050919050565b6000602082019050818103600083015261277f816123d1565b9050919050565b6000602082019050818103600083015261279f816123f4565b9050919050565b600060208201905081810360008301526127bf81612417565b9050919050565b600060208201905081810360008301526127df8161243a565b9050919050565b600060208201905081810360008301526127ff8161245d565b9050919050565b6000602082019050818103600083015261281f81612480565b9050919050565b6000602082019050818103600083015261283f816124a3565b9050919050565b6000602082019050818103600083015261285f816124c6565b9050919050565b6000602082019050818103600083015261287f816124e9565b9050919050565b6000602082019050818103600083015261289f8161250c565b9050919050565b600060208201905081810360008301526128bf8161252f565b9050919050565b600060208201905081810360008301526128df81612552565b9050919050565b60006020820190506128fb6000830184612584565b92915050565b60006040820190506129166000830185612584565b6129236020830184612584565b9392505050565b6000612934612945565b90506129408282612bb8565b919050565b6000604051905090565b600067ffffffffffffffff82111561296a57612969612c90565b5b602082029050602081019050919050565b600067ffffffffffffffff82111561299657612995612c90565b5b602082029050602081019050919050565b600067ffffffffffffffff8211156129c2576129c1612c90565b5b6129cb82612ce1565b9050602081019050919050565b600067ffffffffffffffff8211156129f3576129f2612c90565b5b6129fc82612ce1565b9050602081019050919050565b6000819050602082019050919050565b600081519050919050565b600081519050919050565b600081519050919050565b6000602082019050919050565b600082825260208201905092915050565b600082825260208201905092915050565b600082825260208201905092915050565b6000612a8582612b3a565b9150612a9083612b3a565b9250827fffffffffffffffffffffffffffffffffffffffffffffffffffffffffffffffff03821115612ac557612ac4612c32565b5b828201905092915050565b6000612adb82612b1a565b9050919050565b60008115159050919050565b60007fffffffff0000000000000000000000000000000000000000000000000000000082169050919050565b600073ffffffffffffffffffffffffffffffffffffffff82169050919050565b6000819050919050565b82818337600083830152505050565b60005b83811015612b71578082015181840152602081019050612b56565b83811115612b80576000848401525b50505050565b60006002820490506001821680612b9e57607f821691505b60208210811415612bb257612bb1612c61565b5b50919050565b612bc182612ce1565b810181811067ffffffffffffffff82111715612be057612bdf612c90565b5b80604052505050565b6000612bf482612b3a565b91507fffffffffffffffffffffffffffffffffffffffffffffffffffffffffffffffff821415612c2757612c26612c32565b5b600182019050919050565b7f4e487b7100000000000000000000000000000000000000000000000000000000600052601160045260246000fd5b7f4e487b7100000000000000000000000000000000000000000000000000000000600052602260045260246000fd5b7f4e487b7100000000000000000000000000000000000000000000000000000000600052604160045260246000fd5b600060033d1115612cde5760046000803e612cdb600051612cf2565b90505b90565b6000601f19601f8301169050919050565b60008160e01c9050919050565b7f455243313135353a207472616e7366657220746f206e6f6e204552433131353560008201527f526563656976657220696d706c656d656e746572000000000000000000000000602082015250565b7f455243313135353a204552433131353552656365697665722072656a6563746560008201527f6420746f6b656e73000000000000000000000000000000000000000000000000602082015250565b7f455243313135353a2062616c616e636520717565727920666f7220746865207a60008201527f65726f2061646472657373000000000000000000000000000000000000000000602082015250565b7f455243313135353a206275726e20616d6f756e7420657863656564732062616c60008201527f616e636500000000000000000000000000000000000000000000000000000000602082015250565b7f455243313135353a2063616c6c6572206973206e6f74206f776e6572206e6f7260008201527f20617070726f7665640000000000000000000000000000000000000000000000602082015250565b7f455243313135353a206f776e657220717565727920666f72206e6f6e6578697360008201527f74656e7420746f6b656e00000000000000000000000000000000000000000000602082015250565b7f455243313135353a207472616e7366657220746f20746865207a65726f20616460008201527f6472657373000000000000000000000000000000000000000000000000000000602082015250565b7f455243313135353a207472616e736665722063616c6c6572206973206e6f742060008201527f6f776e6572206e6f7220617070726f7665640000000000000000000000000000602082015250565b7f455243313135353a206275726e2066726f6d20746865207a65726f206164647260008201527f6573730000000000000000000000000000000000000000000000000000000000602082015250565b7f455243313135353a20696e73756666696369656e742062616c616e636520666f60008201527f72207472616e7366657200000000000000000000000000000000000000000000602082015250565b7f455243313135353a2073657474696e6720617070726f76616c2073746174757360008201527f20666f722073656c660000000000000000000000000000000000000000000000602082015250565b7f455243313135353a206163636f756e747320616e6420696473206c656e67746860008201527f206d69736d617463680000000000000000000000000000000000000000000000602082015250565b7f455243313135353a2069647320616e6420616d6f756e7473206c656e6774682060008201527f6d69736d61746368000000000000000000000000000000000000000000000000602082015250565b7f455243313135353a206d696e7420746f20746865207a65726f2061646472657360008201527f7300000000000000000000000000000000000000000000000000000000000000602082015250565b7f455243313135353a20746f6b656e20616c7265616479206d696e746564000000600082015250565b600060443d101561318a5761320d565b613192612945565b60043d036004823e80513d602482011167ffffffffffffffff821117156131ba57505061320d565b808201805167ffffffffffffffff8111156131d8575050505061320d565b80602083010160043d0385018111156131f557505050505061320d565b61320482602001850186612bb8565b82955050505050505b90565b61321981612ad0565b811461322457600080fd5b50565b61323081612ae2565b811461323b57600080fd5b50565b61324781612aee565b811461325257600080fd5b50565b61325e81612b3a565b811461326957600080fd5b5056fea264697066735822122097addeeae313028459c8fe2f4e1723686156c55c0d12f6c83e78cf33f42d222a64736f6c63430008040033",
  "immutableReferences": {},
  "source": "//SPDX-License-Identifier: MIT\r\npragma solidity ^0.8.0;\r\n\r\nimport \"@openzeppelin/contracts/token/ERC1155/ERC1155.sol\";\r\nimport \"@openzeppelin/contracts/access/Ownable.sol\";\r\nimport \"@openzeppelin/contracts/utils/Counters.sol\";\r\n\r\n// import \"@openzeppelin/contracts/utils/Strings.sol\";\r\n\r\n// contract GameItems is ERC1155, Ownable\r\ncontract GameItems1 is ERC1155 {\r\n    // uint256 public constant CHARIZARD = 0;\r\n    // uint256 public constant IVYSAUR = 1;\r\n    // uint256 public constant VENUSAUR = 2;\r\n    // uint256 public constant CHARMANDER = 3;\r\n\r\n    mapping(uint256 => string) private _uris;\r\n\r\n    using Counters for Counters.Counter;\r\n    Counters.Counter private _tokenIds;\r\n\r\n    address contractAddress;\r\n\r\n    mapping(uint256 => address) private _owners;\r\n\r\n    // constructor() ERC1155(\"https://bafybeihul6zsmbzyrgmjth3ynkmchepyvyhcwecn2yxc57ppqgpvr35zsq.ipfs.dweb.link/{id}.json\")\r\n    constructor(address marketplaceAddress) ERC1155(\"\") {\r\n        // _mint(msg.sender, CHARIZARD, 100, \"\");\r\n        // _mint(msg.sender, IVYSAUR, 100, \"\");\r\n        // _mint(msg.sender, VENUSAUR, 100, \"\");\r\n        // _mint(msg.sender, CHARMANDER, 100, \"\");\r\n        contractAddress = marketplaceAddress;\r\n    }\r\n\r\n    ///@notice only owner modifier\r\n    modifier onlyOwner(uint256 tokenId) {\r\n        require(msg.sender == ownerOf(tokenId));\r\n        _;\r\n    }\r\n\r\n    function _exists(uint256 tokenId) internal view virtual returns (bool) {\r\n        return _owners[tokenId] != address(0);\r\n    }\r\n\r\n    function ownerOf(uint256 tokenId) public view returns (address) {\r\n        address owner = _owners[tokenId];\r\n        require(\r\n            owner != address(0),\r\n            \"ERC1155: owner query for nonexistent token\"\r\n        );\r\n        return owner;\r\n    }\r\n\r\n    function uri(uint256 tokenId) public view override returns (string memory) {\r\n        return (_uris[tokenId]);\r\n    }\r\n\r\n    function setTokenUri(uint256 tokenId, string memory URI)\r\n        public\r\n        onlyOwner(tokenId)\r\n    {\r\n        // require(bytes(_uris[tokenId]).length == 0, \"Cannot set uri twice\");\r\n        _uris[tokenId] = URI;\r\n    }\r\n\r\n    // function _mint(\r\n    //     address to,\r\n    //     uint256 id,\r\n    //     uint256 amount,\r\n    //     bytes memory data\r\n    // )\r\n\r\n    function createToken(\r\n        uint256 _tokenId,\r\n        string memory tokenURI,\r\n        uint256 amount\r\n    ) public returns (uint256) {\r\n        require(!_exists(_tokenId), \"ERC1155: token already minted\");\r\n        //set a new token id for the token to be minted\r\n        // _tokenIds.increment();\r\n        // uint256 newItemId = _tokenIds.current();\r\n\r\n        _mint(msg.sender, _tokenId, amount, \"\"); //mint the token\r\n        _owners[_tokenId] = msg.sender;\r\n        setTokenUri(_tokenId, tokenURI); //generate the URI\r\n        setApprovalForAll(contractAddress, true); //grant transaction permission to marketplace\r\n\r\n        //return token ID\r\n        return _tokenId;\r\n    }\r\n\r\n    // function setApprovalsForAll(\r\n    //     address operator,\r\n    //     bool approved,\r\n    //     uint256 tokenId\r\n    // ) public onlyOwner(tokenId) {\r\n    //     setApprovalForAll(operator, approved);\r\n    // }\r\n\r\n    function burn(uint256 tokenId, uint256 amount) public onlyOwner(tokenId) {\r\n        _burn(msg.sender, tokenId, amount);\r\n    }\r\n}\r\n",
  "sourcePath": "D:/Desktop/immense/crypto/defi application/test (NFT marketplace)/NFTmarketplace(final)/src/contracts/NFT1155_1.sol",
  "compiler": {
    "name": "solc",
    "version": "0.8.4+commit.c7e474f2.Emscripten.clang"
  },
  "schemaVersion": "3.2.3",
  "updatedAt": "2022-03-03T14:25:16.488Z",
  "devdoc": {
    "kind": "dev",
    "methods": {
      "balanceOf(address,uint256)": {
        "details": "See {IERC1155-balanceOf}. Requirements: - `account` cannot be the zero address."
      },
      "balanceOfBatch(address[],uint256[])": {
        "details": "See {IERC1155-balanceOfBatch}. Requirements: - `accounts` and `ids` must have the same length."
      },
      "isApprovedForAll(address,address)": {
        "details": "See {IERC1155-isApprovedForAll}."
      },
      "safeBatchTransferFrom(address,address,uint256[],uint256[],bytes)": {
        "details": "See {IERC1155-safeBatchTransferFrom}."
      },
      "safeTransferFrom(address,address,uint256,uint256,bytes)": {
        "details": "See {IERC1155-safeTransferFrom}."
      },
      "setApprovalForAll(address,bool)": {
        "details": "See {IERC1155-setApprovalForAll}."
      },
      "supportsInterface(bytes4)": {
        "details": "See {IERC165-supportsInterface}."
      }
    },
    "version": 1
  },
  "userdoc": {
    "kind": "user",
    "methods": {},
    "version": 1
  }
}