{
  "contractName": "GameItems",
  "abi": [
    {
      "inputs": [
        {
          "internalType": "address",
          "name": "marketplaceAddress",
          "type": "address"
        }
      ],
      "stateMutability": "nonpayable",
      "type": "constructor"
    },
    {
      "anonymous": false,
      "inputs": [
        {
          "indexed": true,
          "internalType": "address",
          "name": "account",
          "type": "address"
        },
        {
          "indexed": true,
          "internalType": "address",
          "name": "operator",
          "type": "address"
        },
        {
          "indexed": false,
          "internalType": "bool",
          "name": "approved",
          "type": "bool"
        }
      ],
      "name": "ApprovalForAll",
      "type": "event"
    },
    {
      "anonymous": false,
      "inputs": [
        {
          "indexed": true,
          "internalType": "address",
          "name": "operator",
          "type": "address"
        },
        {
          "indexed": true,
          "internalType": "address",
          "name": "from",
          "type": "address"
        },
        {
          "indexed": true,
          "internalType": "address",
          "name": "to",
          "type": "address"
        },
        {
          "indexed": false,
          "internalType": "uint256[]",
          "name": "ids",
          "type": "uint256[]"
        },
        {
          "indexed": false,
          "internalType": "uint256[]",
          "name": "values",
          "type": "uint256[]"
        }
      ],
      "name": "TransferBatch",
      "type": "event"
    },
    {
      "anonymous": false,
      "inputs": [
        {
          "indexed": true,
          "internalType": "address",
          "name": "operator",
          "type": "address"
        },
        {
          "indexed": true,
          "internalType": "address",
          "name": "from",
          "type": "address"
        },
        {
          "indexed": true,
          "internalType": "address",
          "name": "to",
          "type": "address"
        },
        {
          "indexed": false,
          "internalType": "uint256",
          "name": "id",
          "type": "uint256"
        },
        {
          "indexed": false,
          "internalType": "uint256",
          "name": "value",
          "type": "uint256"
        }
      ],
      "name": "TransferSingle",
      "type": "event"
    },
    {
      "anonymous": false,
      "inputs": [
        {
          "indexed": false,
          "internalType": "string",
          "name": "value",
          "type": "string"
        },
        {
          "indexed": true,
          "internalType": "uint256",
          "name": "id",
          "type": "uint256"
        }
      ],
      "name": "URI",
      "type": "event"
    },
    {
      "inputs": [
        {
          "internalType": "address",
          "name": "account",
          "type": "address"
        },
        {
          "internalType": "uint256",
          "name": "id",
          "type": "uint256"
        }
      ],
      "name": "balanceOf",
      "outputs": [
        {
          "internalType": "uint256",
          "name": "",
          "type": "uint256"
        }
      ],
      "stateMutability": "view",
      "type": "function"
    },
    {
      "inputs": [
        {
          "internalType": "address[]",
          "name": "accounts",
          "type": "address[]"
        },
        {
          "internalType": "uint256[]",
          "name": "ids",
          "type": "uint256[]"
        }
      ],
      "name": "balanceOfBatch",
      "outputs": [
        {
          "internalType": "uint256[]",
          "name": "",
          "type": "uint256[]"
        }
      ],
      "stateMutability": "view",
      "type": "function"
    },
    {
      "inputs": [
        {
          "internalType": "address",
          "name": "account",
          "type": "address"
        },
        {
          "internalType": "address",
          "name": "operator",
          "type": "address"
        }
      ],
      "name": "isApprovedForAll",
      "outputs": [
        {
          "internalType": "bool",
          "name": "",
          "type": "bool"
        }
      ],
      "stateMutability": "view",
      "type": "function"
    },
    {
      "inputs": [
        {
          "internalType": "address",
          "name": "from",
          "type": "address"
        },
        {
          "internalType": "address",
          "name": "to",
          "type": "address"
        },
        {
          "internalType": "uint256[]",
          "name": "ids",
          "type": "uint256[]"
        },
        {
          "internalType": "uint256[]",
          "name": "amounts",
          "type": "uint256[]"
        },
        {
          "internalType": "bytes",
          "name": "data",
          "type": "bytes"
        }
      ],
      "name": "safeBatchTransferFrom",
      "outputs": [],
      "stateMutability": "nonpayable",
      "type": "function"
    },
    {
      "inputs": [
        {
          "internalType": "address",
          "name": "from",
          "type": "address"
        },
        {
          "internalType": "address",
          "name": "to",
          "type": "address"
        },
        {
          "internalType": "uint256",
          "name": "id",
          "type": "uint256"
        },
        {
          "internalType": "uint256",
          "name": "amount",
          "type": "uint256"
        },
        {
          "internalType": "bytes",
          "name": "data",
          "type": "bytes"
        }
      ],
      "name": "safeTransferFrom",
      "outputs": [],
      "stateMutability": "nonpayable",
      "type": "function"
    },
    {
      "inputs": [
        {
          "internalType": "address",
          "name": "operator",
          "type": "address"
        },
        {
          "internalType": "bool",
          "name": "approved",
          "type": "bool"
        }
      ],
      "name": "setApprovalForAll",
      "outputs": [],
      "stateMutability": "nonpayable",
      "type": "function"
    },
    {
      "inputs": [
        {
          "internalType": "bytes4",
          "name": "interfaceId",
          "type": "bytes4"
        }
      ],
      "name": "supportsInterface",
      "outputs": [
        {
          "internalType": "bool",
          "name": "",
          "type": "bool"
        }
      ],
      "stateMutability": "view",
      "type": "function"
    },
    {
      "inputs": [
        {
          "internalType": "uint256",
          "name": "tokenId",
          "type": "uint256"
        }
      ],
      "name": "ownerOf",
      "outputs": [
        {
          "internalType": "address",
          "name": "",
          "type": "address"
        }
      ],
      "stateMutability": "view",
      "type": "function"
    },
    {
      "inputs": [
        {
          "internalType": "uint256",
          "name": "tokenId",
          "type": "uint256"
        }
      ],
      "name": "uri",
      "outputs": [
        {
          "internalType": "string",
          "name": "",
          "type": "string"
        }
      ],
      "stateMutability": "view",
      "type": "function"
    },
    {
      "inputs": [
        {
          "internalType": "uint256",
          "name": "tokenId",
          "type": "uint256"
        },
        {
          "internalType": "string",
          "name": "URI",
          "type": "string"
        }
      ],
      "name": "setTokenUri",
      "outputs": [],
      "stateMutability": "nonpayable",
      "type": "function"
    },
    {
      "inputs": [
        {
          "internalType": "string",
          "name": "tokenURI",
          "type": "string"
        },
        {
          "internalType": "uint256",
          "name": "amount",
          "type": "uint256"
        }
      ],
      "name": "createToken",
      "outputs": [
        {
          "internalType": "uint256",
          "name": "",
          "type": "uint256"
        }
      ],
      "stateMutability": "nonpayable",
      "type": "function"
    },
    {
      "inputs": [
        {
          "internalType": "uint256",
          "name": "tokenId",
          "type": "uint256"
        },
        {
          "internalType": "uint256",
          "name": "amount",
          "type": "uint256"
        }
      ],
      "name": "burn",
      "outputs": [],
      "stateMutability": "nonpayable",
      "type": "function"
    }
  ],
  "bytecode": "0x60806040523480156200001157600080fd5b50604051620034eb380380620034eb833981810160405281019062000037919062000184565b604051806020016040528060008152506200005881620000a160201b60201c565b5080600560006101000a81548173ffffffffffffffffffffffffffffffffffffffff021916908373ffffffffffffffffffffffffffffffffffffffff1602179055505062000263565b8060029080519060200190620000b9929190620000bd565b5050565b828054620000cb90620001e4565b90600052602060002090601f016020900481019282620000ef57600085556200013b565b82601f106200010a57805160ff19168380011785556200013b565b828001600101855582156200013b579182015b828111156200013a5782518255916020019190600101906200011d565b5b5090506200014a91906200014e565b5090565b5b80821115620001695760008160009055506001016200014f565b5090565b6000815190506200017e8162000249565b92915050565b6000602082840312156200019757600080fd5b6000620001a7848285016200016d565b91505092915050565b6000620001bd82620001c4565b9050919050565b600073ffffffffffffffffffffffffffffffffffffffff82169050919050565b60006002820490506001821680620001fd57607f821691505b602082108114156200021457620002136200021a565b5b50919050565b7f4e487b7100000000000000000000000000000000000000000000000000000000600052602260045260246000fd5b6200025481620001b0565b81146200026057600080fd5b50565b61327880620002736000396000f3fe608060405234801561001057600080fd5b50600436106100b35760003560e01c80636352211e116100715780636352211e146101b057806372b3b620146101e0578063a22cb46514610210578063b390c0ab1461022c578063e985e9c514610248578063f242432a14610278576100b3565b8062fdd58e146100b857806301ffc9a7146100e85780630e89341c146101185780632eb2c2d6146101485780634e1273f41461016457806357f7789e14610194575b600080fd5b6100d260048036038101906100cd9190612031565b610294565b6040516100df91906128bc565b60405180910390f35b61010260048036038101906100fd91906120d9565b61035d565b60405161010f919061269f565b60405180910390f35b610132600480360381019061012d919061217f565b61043f565b60405161013f91906126ba565b60405180910390f35b610162600480360381019061015d9190611ea7565b6104e4565b005b61017e6004803603810190610179919061206d565b610585565b60405161018b9190612646565b60405180910390f35b6101ae60048036038101906101a991906121a8565b610736565b005b6101ca60048036038101906101c5919061217f565b610806565b6040516101d79190612569565b60405180910390f35b6101fa60048036038101906101f5919061212b565b6108b8565b60405161020791906128bc565b60405180910390f35b61022a60048036038101906102259190611ff5565b610980565b005b610246600480360381019061024191906121fc565b610996565b005b610262600480360381019061025d9190611e6b565b6109e7565b60405161026f919061269f565b60405180910390f35b610292600480360381019061028d9190611f66565b610a7b565b005b60008073ffffffffffffffffffffffffffffffffffffffff168373ffffffffffffffffffffffffffffffffffffffff161415610305576040517f08c379a00000000000000000000000000000000000000000000000000000000081526004016102fc9061271c565b60405180910390fd5b60008083815260200190815260200160002060008473ffffffffffffffffffffffffffffffffffffffff1673ffffffffffffffffffffffffffffffffffffffff16815260200190815260200160002054905092915050565b60007fd9b67a26000000000000000000000000000000000000000000000000000000007bffffffffffffffffffffffffffffffffffffffffffffffffffffffff1916827bffffffffffffffffffffffffffffffffffffffffffffffffffffffff1916148061042857507f0e89341c000000000000000000000000000000000000000000000000000000007bffffffffffffffffffffffffffffffffffffffffffffffffffffffff1916827bffffffffffffffffffffffffffffffffffffffffffffffffffffffff1916145b80610438575061043782610b1c565b5b9050919050565b606060036000838152602001908152602001600020805461045f90612b5c565b80601f016020809104026020016040519081016040528092919081815260200182805461048b90612b5c565b80156104d85780601f106104ad576101008083540402835291602001916104d8565b820191906000526020600020905b8154815290600101906020018083116104bb57829003601f168201915b50505050509050919050565b6104ec610b86565b73ffffffffffffffffffffffffffffffffffffffff168573ffffffffffffffffffffffffffffffffffffffff16148061053257506105318561052c610b86565b6109e7565b5b610571576040517f08c379a0000000000000000000000000000000000000000000000000000000008152600401610568906127bc565b60405180910390fd5b61057e8585858585610b8e565b5050505050565b606081518351146105cb576040517f08c379a00000000000000000000000000000000000000000000000000000000081526004016105c29061285c565b60405180910390fd5b6000835167ffffffffffffffff81111561060e577f4e487b7100000000000000000000000000000000000000000000000000000000600052604160045260246000fd5b60405190808252806020026020018201604052801561063c5781602001602082028036833780820191505090505b50905060005b845181101561072b576106d5858281518110610687577f4e487b7100000000000000000000000000000000000000000000000000000000600052603260045260246000fd5b60200260200101518583815181106106c8577f4e487b7100000000000000000000000000000000000000000000000000000000600052603260045260246000fd5b6020026020010151610294565b82828151811061070e577f4e487b7100000000000000000000000000000000000000000000000000000000600052603260045260246000fd5b6020026020010181815250508061072490612bbf565b9050610642565b508091505092915050565b8161074081610806565b73ffffffffffffffffffffffffffffffffffffffff163373ffffffffffffffffffffffffffffffffffffffff161461077757600080fd5b600060036000858152602001908152602001600020805461079790612b5c565b9050146107d9576040517f08c379a00000000000000000000000000000000000000000000000000000000081526004016107d0906127dc565b60405180910390fd5b81600360008581526020019081526020016000209080519060200190610800929190611b63565b50505050565b6000806006600084815260200190815260200160002060009054906101000a900473ffffffffffffffffffffffffffffffffffffffff169050600073ffffffffffffffffffffffffffffffffffffffff168173ffffffffffffffffffffffffffffffffffffffff1614156108af576040517f08c379a00000000000000000000000000000000000000000000000000000000081526004016108a69061277c565b60405180910390fd5b80915050919050565b60006108c46004610eee565b60006108d06004610f04565b90506108ed33828560405180602001604052806000815250610f12565b336006600083815260200190815260200160002060006101000a81548173ffffffffffffffffffffffffffffffffffffffff021916908373ffffffffffffffffffffffffffffffffffffffff1602179055506109498185610736565b610976600560009054906101000a900473ffffffffffffffffffffffffffffffffffffffff166001610980565b8091505092915050565b61099261098b610b86565b83836110a8565b5050565b816109a081610806565b73ffffffffffffffffffffffffffffffffffffffff163373ffffffffffffffffffffffffffffffffffffffff16146109d757600080fd5b6109e2338484611215565b505050565b6000600160008473ffffffffffffffffffffffffffffffffffffffff1673ffffffffffffffffffffffffffffffffffffffff16815260200190815260200160002060008373ffffffffffffffffffffffffffffffffffffffff1673ffffffffffffffffffffffffffffffffffffffff16815260200190815260200160002060009054906101000a900460ff16905092915050565b610a83610b86565b73ffffffffffffffffffffffffffffffffffffffff168573ffffffffffffffffffffffffffffffffffffffff161480610ac95750610ac885610ac3610b86565b6109e7565b5b610b08576040517f08c379a0000000000000000000000000000000000000000000000000000000008152600401610aff9061275c565b60405180910390fd5b610b158585858585611432565b5050505050565b60007f01ffc9a7000000000000000000000000000000000000000000000000000000007bffffffffffffffffffffffffffffffffffffffffffffffffffffffff1916827bffffffffffffffffffffffffffffffffffffffffffffffffffffffff1916149050919050565b600033905090565b8151835114610bd2576040517f08c379a0000000000000000000000000000000000000000000000000000000008152600401610bc99061287c565b60405180910390fd5b600073ffffffffffffffffffffffffffffffffffffffff168473ffffffffffffffffffffffffffffffffffffffff161415610c42576040517f08c379a0000000000000000000000000000000000000000000000000000000008152600401610c399061279c565b60405180910390fd5b6000610c4c610b86565b9050610c5c8187878787876116b4565b60005b8451811015610e59576000858281518110610ca3577f4e487b7100000000000000000000000000000000000000000000000000000000600052603260045260246000fd5b602002602001015190506000858381518110610ce8577f4e487b7100000000000000000000000000000000000000000000000000000000600052603260045260246000fd5b60200260200101519050600080600084815260200190815260200160002060008b73ffffffffffffffffffffffffffffffffffffffff1673ffffffffffffffffffffffffffffffffffffffff16815260200190815260200160002054905081811015610d89576040517f08c379a0000000000000000000000000000000000000000000000000000000008152600401610d809061281c565b60405180910390fd5b81810360008085815260200190815260200160002060008c73ffffffffffffffffffffffffffffffffffffffff1673ffffffffffffffffffffffffffffffffffffffff168152602001908152602001600020819055508160008085815260200190815260200160002060008b73ffffffffffffffffffffffffffffffffffffffff1673ffffffffffffffffffffffffffffffffffffffff1681526020019081526020016000206000828254610e3e9190612a50565b9250508190555050505080610e5290612bbf565b9050610c5f565b508473ffffffffffffffffffffffffffffffffffffffff168673ffffffffffffffffffffffffffffffffffffffff168273ffffffffffffffffffffffffffffffffffffffff167f4a39dc06d4c0dbc64b70af90fd698a233a518aa5d07e595d983b8c0526c8f7fb8787604051610ed0929190612668565b60405180910390a4610ee68187878787876116bc565b505050505050565b6001816000016000828254019250508190555050565b600081600001549050919050565b600073ffffffffffffffffffffffffffffffffffffffff168473ffffffffffffffffffffffffffffffffffffffff161415610f82576040517f08c379a0000000000000000000000000000000000000000000000000000000008152600401610f799061289c565b60405180910390fd5b6000610f8c610b86565b9050610fad81600087610f9e886118a3565b610fa7886118a3565b876116b4565b8260008086815260200190815260200160002060008773ffffffffffffffffffffffffffffffffffffffff1673ffffffffffffffffffffffffffffffffffffffff168152602001908152602001600020600082825461100c9190612a50565b925050819055508473ffffffffffffffffffffffffffffffffffffffff16600073ffffffffffffffffffffffffffffffffffffffff168273ffffffffffffffffffffffffffffffffffffffff167fc3d58168c5ae7397731d063d5bbf3d657854427343f4c083240f7aacaa2d0f62878760405161108a9291906128d7565b60405180910390a46110a181600087878787611969565b5050505050565b8173ffffffffffffffffffffffffffffffffffffffff168373ffffffffffffffffffffffffffffffffffffffff161415611117576040517f08c379a000000000000000000000000000000000000000000000000000000000815260040161110e9061283c565b60405180910390fd5b80600160008573ffffffffffffffffffffffffffffffffffffffff1673ffffffffffffffffffffffffffffffffffffffff16815260200190815260200160002060008473ffffffffffffffffffffffffffffffffffffffff1673ffffffffffffffffffffffffffffffffffffffff16815260200190815260200160002060006101000a81548160ff0219169083151502179055508173ffffffffffffffffffffffffffffffffffffffff168373ffffffffffffffffffffffffffffffffffffffff167f17307eab39ab6107e8899845ad3d59bd9653f200f220920489ca2b5937696c3183604051611208919061269f565b60405180910390a3505050565b600073ffffffffffffffffffffffffffffffffffffffff168373ffffffffffffffffffffffffffffffffffffffff161415611285576040517f08c379a000000000000000000000000000000000000000000000000000000000815260040161127c906127fc565b60405180910390fd5b600061128f610b86565b90506112bf818560006112a1876118a3565b6112aa876118a3565b604051806020016040528060008152506116b4565b600080600085815260200190815260200160002060008673ffffffffffffffffffffffffffffffffffffffff1673ffffffffffffffffffffffffffffffffffffffff16815260200190815260200160002054905082811015611356576040517f08c379a000000000000000000000000000000000000000000000000000000000815260040161134d9061273c565b60405180910390fd5b82810360008086815260200190815260200160002060008773ffffffffffffffffffffffffffffffffffffffff1673ffffffffffffffffffffffffffffffffffffffff16815260200190815260200160002081905550600073ffffffffffffffffffffffffffffffffffffffff168573ffffffffffffffffffffffffffffffffffffffff168373ffffffffffffffffffffffffffffffffffffffff167fc3d58168c5ae7397731d063d5bbf3d657854427343f4c083240f7aacaa2d0f6287876040516114239291906128d7565b60405180910390a45050505050565b600073ffffffffffffffffffffffffffffffffffffffff168473ffffffffffffffffffffffffffffffffffffffff1614156114a2576040517f08c379a00000000000000000000000000000000000000000000000000000000081526004016114999061279c565b60405180910390fd5b60006114ac610b86565b90506114cc8187876114bd886118a3565b6114c6886118a3565b876116b4565b600080600086815260200190815260200160002060008873ffffffffffffffffffffffffffffffffffffffff1673ffffffffffffffffffffffffffffffffffffffff16815260200190815260200160002054905083811015611563576040517f08c379a000000000000000000000000000000000000000000000000000000000815260040161155a9061281c565b60405180910390fd5b83810360008087815260200190815260200160002060008973ffffffffffffffffffffffffffffffffffffffff1673ffffffffffffffffffffffffffffffffffffffff168152602001908152602001600020819055508360008087815260200190815260200160002060008873ffffffffffffffffffffffffffffffffffffffff1673ffffffffffffffffffffffffffffffffffffffff16815260200190815260200160002060008282546116189190612a50565b925050819055508573ffffffffffffffffffffffffffffffffffffffff168773ffffffffffffffffffffffffffffffffffffffff168373ffffffffffffffffffffffffffffffffffffffff167fc3d58168c5ae7397731d063d5bbf3d657854427343f4c083240f7aacaa2d0f6288886040516116959291906128d7565b60405180910390a46116ab828888888888611969565b50505050505050565b505050505050565b6116db8473ffffffffffffffffffffffffffffffffffffffff16611b50565b1561189b578373ffffffffffffffffffffffffffffffffffffffff1663bc197c8187878686866040518663ffffffff1660e01b8152600401611721959493929190612584565b602060405180830381600087803b15801561173b57600080fd5b505af192505050801561176c57506040513d601f19601f820116820180604052508101906117699190612102565b60015b61181257611778612c95565b806308c379a014156117d5575061178d613150565b8061179857506117d7565b806040517f08c379a00000000000000000000000000000000000000000000000000000000081526004016117cc91906126ba565b60405180910390fd5b505b6040517f08c379a0000000000000000000000000000000000000000000000000000000008152600401611809906126dc565b60405180910390fd5b63bc197c8160e01b7bffffffffffffffffffffffffffffffffffffffffffffffffffffffff1916817bffffffffffffffffffffffffffffffffffffffffffffffffffffffff191614611899576040517f08c379a0000000000000000000000000000000000000000000000000000000008152600401611890906126fc565b60405180910390fd5b505b505050505050565b60606000600167ffffffffffffffff8111156118e8577f4e487b7100000000000000000000000000000000000000000000000000000000600052604160045260246000fd5b6040519080825280602002602001820160405280156119165781602001602082028036833780820191505090505b5090508281600081518110611954577f4e487b7100000000000000000000000000000000000000000000000000000000600052603260045260246000fd5b60200260200101818152505080915050919050565b6119888473ffffffffffffffffffffffffffffffffffffffff16611b50565b15611b48578373ffffffffffffffffffffffffffffffffffffffff1663f23a6e6187878686866040518663ffffffff1660e01b81526004016119ce9594939291906125ec565b602060405180830381600087803b1580156119e857600080fd5b505af1925050508015611a1957506040513d601f19601f82011682018060405250810190611a169190612102565b60015b611abf57611a25612c95565b806308c379a01415611a825750611a3a613150565b80611a455750611a84565b806040517f08c379a0000000000000000000000000000000000000000000000000000000008152600401611a7991906126ba565b60405180910390fd5b505b6040517f08c379a0000000000000000000000000000000000000000000000000000000008152600401611ab6906126dc565b60405180910390fd5b63f23a6e6160e01b7bffffffffffffffffffffffffffffffffffffffffffffffffffffffff1916817bffffffffffffffffffffffffffffffffffffffffffffffffffffffff191614611b46576040517f08c379a0000000000000000000000000000000000000000000000000000000008152600401611b3d906126fc565b60405180910390fd5b505b505050505050565b600080823b905060008111915050919050565b828054611b6f90612b5c565b90600052602060002090601f016020900481019282611b915760008555611bd8565b82601f10611baa57805160ff1916838001178555611bd8565b82800160010185558215611bd8579182015b82811115611bd7578251825591602001919060010190611bbc565b5b509050611be59190611be9565b5090565b5b80821115611c02576000816000905550600101611bea565b5090565b6000611c19611c1484612925565b612900565b90508083825260208201905082856020860282011115611c3857600080fd5b60005b85811015611c685781611c4e8882611d5a565b845260208401935060208301925050600181019050611c3b565b5050509392505050565b6000611c85611c8084612951565b612900565b90508083825260208201905082856020860282011115611ca457600080fd5b60005b85811015611cd45781611cba8882611e56565b845260208401935060208301925050600181019050611ca7565b5050509392505050565b6000611cf1611cec8461297d565b612900565b905082815260208101848484011115611d0957600080fd5b611d14848285612b1a565b509392505050565b6000611d2f611d2a846129ae565b612900565b905082815260208101848484011115611d4757600080fd5b611d52848285612b1a565b509392505050565b600081359050611d69816131e6565b92915050565b600082601f830112611d8057600080fd5b8135611d90848260208601611c06565b91505092915050565b600082601f830112611daa57600080fd5b8135611dba848260208601611c72565b91505092915050565b600081359050611dd2816131fd565b92915050565b600081359050611de781613214565b92915050565b600081519050611dfc81613214565b92915050565b600082601f830112611e1357600080fd5b8135611e23848260208601611cde565b91505092915050565b600082601f830112611e3d57600080fd5b8135611e4d848260208601611d1c565b91505092915050565b600081359050611e658161322b565b92915050565b60008060408385031215611e7e57600080fd5b6000611e8c85828601611d5a565b9250506020611e9d85828601611d5a565b9150509250929050565b600080600080600060a08688031215611ebf57600080fd5b6000611ecd88828901611d5a565b9550506020611ede88828901611d5a565b945050604086013567ffffffffffffffff811115611efb57600080fd5b611f0788828901611d99565b935050606086013567ffffffffffffffff811115611f2457600080fd5b611f3088828901611d99565b925050608086013567ffffffffffffffff811115611f4d57600080fd5b611f5988828901611e02565b9150509295509295909350565b600080600080600060a08688031215611f7e57600080fd5b6000611f8c88828901611d5a565b9550506020611f9d88828901611d5a565b9450506040611fae88828901611e56565b9350506060611fbf88828901611e56565b925050608086013567ffffffffffffffff811115611fdc57600080fd5b611fe888828901611e02565b9150509295509295909350565b6000806040838503121561200857600080fd5b600061201685828601611d5a565b925050602061202785828601611dc3565b9150509250929050565b6000806040838503121561204457600080fd5b600061205285828601611d5a565b925050602061206385828601611e56565b9150509250929050565b6000806040838503121561208057600080fd5b600083013567ffffffffffffffff81111561209a57600080fd5b6120a685828601611d6f565b925050602083013567ffffffffffffffff8111156120c357600080fd5b6120cf85828601611d99565b9150509250929050565b6000602082840312156120eb57600080fd5b60006120f984828501611dd8565b91505092915050565b60006020828403121561211457600080fd5b600061212284828501611ded565b91505092915050565b6000806040838503121561213e57600080fd5b600083013567ffffffffffffffff81111561215857600080fd5b61216485828601611e2c565b925050602061217585828601611e56565b9150509250929050565b60006020828403121561219157600080fd5b600061219f84828501611e56565b91505092915050565b600080604083850312156121bb57600080fd5b60006121c985828601611e56565b925050602083013567ffffffffffffffff8111156121e657600080fd5b6121f285828601611e2c565b9150509250929050565b6000806040838503121561220f57600080fd5b600061221d85828601611e56565b925050602061222e85828601611e56565b9150509250929050565b6000612244838361254b565b60208301905092915050565b61225981612aa6565b82525050565b600061226a826129ef565b6122748185612a1d565b935061227f836129df565b8060005b838110156122b05781516122978882612238565b97506122a283612a10565b925050600181019050612283565b5085935050505092915050565b6122c681612ab8565b82525050565b60006122d7826129fa565b6122e18185612a2e565b93506122f1818560208601612b29565b6122fa81612cb7565b840191505092915050565b600061231082612a05565b61231a8185612a3f565b935061232a818560208601612b29565b61233381612cb7565b840191505092915050565b600061234b603483612a3f565b915061235682612cd5565b604082019050919050565b600061236e602883612a3f565b915061237982612d24565b604082019050919050565b6000612391602b83612a3f565b915061239c82612d73565b604082019050919050565b60006123b4602483612a3f565b91506123bf82612dc2565b604082019050919050565b60006123d7602983612a3f565b91506123e282612e11565b604082019050919050565b60006123fa602a83612a3f565b915061240582612e60565b604082019050919050565b600061241d602583612a3f565b915061242882612eaf565b604082019050919050565b6000612440603283612a3f565b915061244b82612efe565b604082019050919050565b6000612463601483612a3f565b915061246e82612f4d565b602082019050919050565b6000612486602383612a3f565b915061249182612f76565b604082019050919050565b60006124a9602a83612a3f565b91506124b482612fc5565b604082019050919050565b60006124cc602983612a3f565b91506124d782613014565b604082019050919050565b60006124ef602983612a3f565b91506124fa82613063565b604082019050919050565b6000612512602883612a3f565b915061251d826130b2565b604082019050919050565b6000612535602183612a3f565b915061254082613101565b604082019050919050565b61255481612b10565b82525050565b61256381612b10565b82525050565b600060208201905061257e6000830184612250565b92915050565b600060a0820190506125996000830188612250565b6125a66020830187612250565b81810360408301526125b8818661225f565b905081810360608301526125cc818561225f565b905081810360808301526125e081846122cc565b90509695505050505050565b600060a0820190506126016000830188612250565b61260e6020830187612250565b61261b604083018661255a565b612628606083018561255a565b818103608083015261263a81846122cc565b90509695505050505050565b60006020820190508181036000830152612660818461225f565b905092915050565b60006040820190508181036000830152612682818561225f565b90508181036020830152612696818461225f565b90509392505050565b60006020820190506126b460008301846122bd565b92915050565b600060208201905081810360008301526126d48184612305565b905092915050565b600060208201905081810360008301526126f58161233e565b9050919050565b6000602082019050818103600083015261271581612361565b9050919050565b6000602082019050818103600083015261273581612384565b9050919050565b60006020820190508181036000830152612755816123a7565b9050919050565b60006020820190508181036000830152612775816123ca565b9050919050565b60006020820190508181036000830152612795816123ed565b9050919050565b600060208201905081810360008301526127b581612410565b9050919050565b600060208201905081810360008301526127d581612433565b9050919050565b600060208201905081810360008301526127f581612456565b9050919050565b6000602082019050818103600083015261281581612479565b9050919050565b600060208201905081810360008301526128358161249c565b9050919050565b60006020820190508181036000830152612855816124bf565b9050919050565b60006020820190508181036000830152612875816124e2565b9050919050565b6000602082019050818103600083015261289581612505565b9050919050565b600060208201905081810360008301526128b581612528565b9050919050565b60006020820190506128d1600083018461255a565b92915050565b60006040820190506128ec600083018561255a565b6128f9602083018461255a565b9392505050565b600061290a61291b565b90506129168282612b8e565b919050565b6000604051905090565b600067ffffffffffffffff8211156129405761293f612c66565b5b602082029050602081019050919050565b600067ffffffffffffffff82111561296c5761296b612c66565b5b602082029050602081019050919050565b600067ffffffffffffffff82111561299857612997612c66565b5b6129a182612cb7565b9050602081019050919050565b600067ffffffffffffffff8211156129c9576129c8612c66565b5b6129d282612cb7565b9050602081019050919050565b6000819050602082019050919050565b600081519050919050565b600081519050919050565b600081519050919050565b6000602082019050919050565b600082825260208201905092915050565b600082825260208201905092915050565b600082825260208201905092915050565b6000612a5b82612b10565b9150612a6683612b10565b9250827fffffffffffffffffffffffffffffffffffffffffffffffffffffffffffffffff03821115612a9b57612a9a612c08565b5b828201905092915050565b6000612ab182612af0565b9050919050565b60008115159050919050565b60007fffffffff0000000000000000000000000000000000000000000000000000000082169050919050565b600073ffffffffffffffffffffffffffffffffffffffff82169050919050565b6000819050919050565b82818337600083830152505050565b60005b83811015612b47578082015181840152602081019050612b2c565b83811115612b56576000848401525b50505050565b60006002820490506001821680612b7457607f821691505b60208210811415612b8857612b87612c37565b5b50919050565b612b9782612cb7565b810181811067ffffffffffffffff82111715612bb657612bb5612c66565b5b80604052505050565b6000612bca82612b10565b91507fffffffffffffffffffffffffffffffffffffffffffffffffffffffffffffffff821415612bfd57612bfc612c08565b5b600182019050919050565b7f4e487b7100000000000000000000000000000000000000000000000000000000600052601160045260246000fd5b7f4e487b7100000000000000000000000000000000000000000000000000000000600052602260045260246000fd5b7f4e487b7100000000000000000000000000000000000000000000000000000000600052604160045260246000fd5b600060033d1115612cb45760046000803e612cb1600051612cc8565b90505b90565b6000601f19601f8301169050919050565b60008160e01c9050919050565b7f455243313135353a207472616e7366657220746f206e6f6e204552433131353560008201527f526563656976657220696d706c656d656e746572000000000000000000000000602082015250565b7f455243313135353a204552433131353552656365697665722072656a6563746560008201527f6420746f6b656e73000000000000000000000000000000000000000000000000602082015250565b7f455243313135353a2062616c616e636520717565727920666f7220746865207a60008201527f65726f2061646472657373000000000000000000000000000000000000000000602082015250565b7f455243313135353a206275726e20616d6f756e7420657863656564732062616c60008201527f616e636500000000000000000000000000000000000000000000000000000000602082015250565b7f455243313135353a2063616c6c6572206973206e6f74206f776e6572206e6f7260008201527f20617070726f7665640000000000000000000000000000000000000000000000602082015250565b7f455243313135353a206f776e657220717565727920666f72206e6f6e6578697360008201527f74656e7420746f6b656e00000000000000000000000000000000000000000000602082015250565b7f455243313135353a207472616e7366657220746f20746865207a65726f20616460008201527f6472657373000000000000000000000000000000000000000000000000000000602082015250565b7f455243313135353a207472616e736665722063616c6c6572206973206e6f742060008201527f6f776e6572206e6f7220617070726f7665640000000000000000000000000000602082015250565b7f43616e6e6f742073657420757269207477696365000000000000000000000000600082015250565b7f455243313135353a206275726e2066726f6d20746865207a65726f206164647260008201527f6573730000000000000000000000000000000000000000000000000000000000602082015250565b7f455243313135353a20696e73756666696369656e742062616c616e636520666f60008201527f72207472616e7366657200000000000000000000000000000000000000000000602082015250565b7f455243313135353a2073657474696e6720617070726f76616c2073746174757360008201527f20666f722073656c660000000000000000000000000000000000000000000000602082015250565b7f455243313135353a206163636f756e747320616e6420696473206c656e67746860008201527f206d69736d617463680000000000000000000000000000000000000000000000602082015250565b7f455243313135353a2069647320616e6420616d6f756e7473206c656e6774682060008201527f6d69736d61746368000000000000000000000000000000000000000000000000602082015250565b7f455243313135353a206d696e7420746f20746865207a65726f2061646472657360008201527f7300000000000000000000000000000000000000000000000000000000000000602082015250565b600060443d1015613160576131e3565b61316861291b565b60043d036004823e80513d602482011167ffffffffffffffff821117156131905750506131e3565b808201805167ffffffffffffffff8111156131ae57505050506131e3565b80602083010160043d0385018111156131cb5750505050506131e3565b6131da82602001850186612b8e565b82955050505050505b90565b6131ef81612aa6565b81146131fa57600080fd5b50565b61320681612ab8565b811461321157600080fd5b50565b61321d81612ac4565b811461322857600080fd5b50565b61323481612b10565b811461323f57600080fd5b5056fea26469706673582212201d100bf11a3cd4e0319723badede3c92458fd0b1dc8b136cd31137c5cdb0e73b64736f6c63430008040033",
  "immutableReferences": {},
  "source": "//SPDX-License-Identifier: MIT\r\npragma solidity ^0.8.0;\r\n\r\nimport \"@openzeppelin/contracts/token/ERC1155/ERC1155.sol\";\r\nimport \"@openzeppelin/contracts/access/Ownable.sol\";\r\nimport \"@openzeppelin/contracts/utils/Counters.sol\";\r\n\r\n// import \"@openzeppelin/contracts/utils/Strings.sol\";\r\n\r\n// contract GameItems is ERC1155, Ownable\r\ncontract GameItems is ERC1155 {\r\n    // uint256 public constant CHARIZARD = 0;\r\n    // uint256 public constant IVYSAUR = 1;\r\n    // uint256 public constant VENUSAUR = 2;\r\n    // uint256 public constant CHARMANDER = 3;\r\n\r\n    mapping(uint256 => string) private _uris;\r\n\r\n    using Counters for Counters.Counter;\r\n    Counters.Counter private _tokenIds;\r\n\r\n    address contractAddress;\r\n\r\n    mapping(uint256 => address) private _owners;\r\n\r\n    // constructor() ERC1155(\"https://bafybeihul6zsmbzyrgmjth3ynkmchepyvyhcwecn2yxc57ppqgpvr35zsq.ipfs.dweb.link/{id}.json\")\r\n    constructor(address marketplaceAddress) ERC1155(\"\") {\r\n        // _mint(msg.sender, CHARIZARD, 100, \"\");\r\n        // _mint(msg.sender, IVYSAUR, 100, \"\");\r\n        // _mint(msg.sender, VENUSAUR, 100, \"\");\r\n        // _mint(msg.sender, CHARMANDER, 100, \"\");\r\n        contractAddress = marketplaceAddress;\r\n    }\r\n\r\n    ///@notice only owner modifier\r\n    modifier onlyOwner(uint256 tokenId) {\r\n        require(msg.sender == ownerOf(tokenId));\r\n        _;\r\n    }\r\n\r\n    function ownerOf(uint256 tokenId) public view returns (address) {\r\n        address owner = _owners[tokenId];\r\n        require(\r\n            owner != address(0),\r\n            \"ERC1155: owner query for nonexistent token\"\r\n        );\r\n        return owner;\r\n    }\r\n\r\n    function uri(uint256 tokenId) public view override returns (string memory) {\r\n        return (_uris[tokenId]);\r\n    }\r\n\r\n    function setTokenUri(uint256 tokenId, string memory URI)\r\n        public\r\n        onlyOwner(tokenId)\r\n    {\r\n        require(bytes(_uris[tokenId]).length == 0, \"Cannot set uri twice\");\r\n        _uris[tokenId] = URI;\r\n    }\r\n\r\n    // function _mint(\r\n    //     address to,\r\n    //     uint256 id,\r\n    //     uint256 amount,\r\n    //     bytes memory data\r\n    // )\r\n\r\n    function createToken(string memory tokenURI, uint256 amount)\r\n        public\r\n        returns (uint256)\r\n    {\r\n        //set a new token id for the token to be minted\r\n        _tokenIds.increment();\r\n        uint256 newItemId = _tokenIds.current();\r\n\r\n        _mint(msg.sender, newItemId, amount, \"\"); //mint the token\r\n        _owners[newItemId] = msg.sender;\r\n        setTokenUri(newItemId, tokenURI); //generate the URI\r\n        setApprovalForAll(contractAddress, true); //grant transaction permission to marketplace\r\n\r\n        //return token ID\r\n        return newItemId;\r\n    }\r\n\r\n    // function setApprovalsForAll(\r\n    //     address operator,\r\n    //     bool approved,\r\n    //     uint256 tokenId\r\n    // ) public onlyOwner(tokenId) {\r\n    //     setApprovalForAll(operator, approved);\r\n    // }\r\n\r\n    function burn(uint256 tokenId, uint256 amount) public onlyOwner(tokenId) {\r\n        _burn(msg.sender, tokenId, amount);\r\n    }\r\n}\r\n",
  "sourcePath": "D:/Desktop/immense/crypto/defi application/test (NFT marketplace)/NFTmarketplace(final)/src/contracts/NFT1155.sol",
  "compiler": {
    "name": "solc",
    "version": "0.8.4+commit.c7e474f2.Emscripten.clang"
  },
  "schemaVersion": "3.2.3",
  "updatedAt": "2022-03-03T14:25:16.483Z",
  "devdoc": {
    "kind": "dev",
    "methods": {
      "balanceOf(address,uint256)": {
        "details": "See {IERC1155-balanceOf}. Requirements: - `account` cannot be the zero address."
      },
      "balanceOfBatch(address[],uint256[])": {
        "details": "See {IERC1155-balanceOfBatch}. Requirements: - `accounts` and `ids` must have the same length."
      },
      "isApprovedForAll(address,address)": {
        "details": "See {IERC1155-isApprovedForAll}."
      },
      "safeBatchTransferFrom(address,address,uint256[],uint256[],bytes)": {
        "details": "See {IERC1155-safeBatchTransferFrom}."
      },
      "safeTransferFrom(address,address,uint256,uint256,bytes)": {
        "details": "See {IERC1155-safeTransferFrom}."
      },
      "setApprovalForAll(address,bool)": {
        "details": "See {IERC1155-setApprovalForAll}."
      },
      "supportsInterface(bytes4)": {
        "details": "See {IERC165-supportsInterface}."
      }
    },
    "version": 1
  },
  "userdoc": {
    "kind": "user",
    "methods": {},
    "version": 1
  }
}