{
  "contractName": "NFT1",
  "abi": [
    {
      "inputs": [
        {
          "internalType": "address",
          "name": "marketplaceAddress",
          "type": "address"
        }
      ],
      "stateMutability": "nonpayable",
      "type": "constructor"
    },
    {
      "anonymous": false,
      "inputs": [
        {
          "indexed": true,
          "internalType": "address",
          "name": "owner",
          "type": "address"
        },
        {
          "indexed": true,
          "internalType": "address",
          "name": "approved",
          "type": "address"
        },
        {
          "indexed": true,
          "internalType": "uint256",
          "name": "tokenId",
          "type": "uint256"
        }
      ],
      "name": "Approval",
      "type": "event"
    },
    {
      "anonymous": false,
      "inputs": [
        {
          "indexed": true,
          "internalType": "address",
          "name": "owner",
          "type": "address"
        },
        {
          "indexed": true,
          "internalType": "address",
          "name": "operator",
          "type": "address"
        },
        {
          "indexed": false,
          "internalType": "bool",
          "name": "approved",
          "type": "bool"
        }
      ],
      "name": "ApprovalForAll",
      "type": "event"
    },
    {
      "anonymous": false,
      "inputs": [
        {
          "indexed": true,
          "internalType": "address",
          "name": "from",
          "type": "address"
        },
        {
          "indexed": true,
          "internalType": "address",
          "name": "to",
          "type": "address"
        },
        {
          "indexed": true,
          "internalType": "uint256",
          "name": "tokenId",
          "type": "uint256"
        }
      ],
      "name": "Transfer",
      "type": "event"
    },
    {
      "inputs": [
        {
          "internalType": "address",
          "name": "to",
          "type": "address"
        },
        {
          "internalType": "uint256",
          "name": "tokenId",
          "type": "uint256"
        }
      ],
      "name": "approve",
      "outputs": [],
      "stateMutability": "nonpayable",
      "type": "function"
    },
    {
      "inputs": [
        {
          "internalType": "address",
          "name": "owner",
          "type": "address"
        }
      ],
      "name": "balanceOf",
      "outputs": [
        {
          "internalType": "uint256",
          "name": "",
          "type": "uint256"
        }
      ],
      "stateMutability": "view",
      "type": "function"
    },
    {
      "inputs": [
        {
          "internalType": "uint256",
          "name": "tokenId",
          "type": "uint256"
        }
      ],
      "name": "getApproved",
      "outputs": [
        {
          "internalType": "address",
          "name": "",
          "type": "address"
        }
      ],
      "stateMutability": "view",
      "type": "function"
    },
    {
      "inputs": [
        {
          "internalType": "address",
          "name": "owner",
          "type": "address"
        },
        {
          "internalType": "address",
          "name": "operator",
          "type": "address"
        }
      ],
      "name": "isApprovedForAll",
      "outputs": [
        {
          "internalType": "bool",
          "name": "",
          "type": "bool"
        }
      ],
      "stateMutability": "view",
      "type": "function"
    },
    {
      "inputs": [],
      "name": "name",
      "outputs": [
        {
          "internalType": "string",
          "name": "",
          "type": "string"
        }
      ],
      "stateMutability": "view",
      "type": "function"
    },
    {
      "inputs": [
        {
          "internalType": "uint256",
          "name": "tokenId",
          "type": "uint256"
        }
      ],
      "name": "ownerOf",
      "outputs": [
        {
          "internalType": "address",
          "name": "",
          "type": "address"
        }
      ],
      "stateMutability": "view",
      "type": "function"
    },
    {
      "inputs": [
        {
          "internalType": "address",
          "name": "from",
          "type": "address"
        },
        {
          "internalType": "address",
          "name": "to",
          "type": "address"
        },
        {
          "internalType": "uint256",
          "name": "tokenId",
          "type": "uint256"
        }
      ],
      "name": "safeTransferFrom",
      "outputs": [],
      "stateMutability": "nonpayable",
      "type": "function"
    },
    {
      "inputs": [
        {
          "internalType": "address",
          "name": "from",
          "type": "address"
        },
        {
          "internalType": "address",
          "name": "to",
          "type": "address"
        },
        {
          "internalType": "uint256",
          "name": "tokenId",
          "type": "uint256"
        },
        {
          "internalType": "bytes",
          "name": "_data",
          "type": "bytes"
        }
      ],
      "name": "safeTransferFrom",
      "outputs": [],
      "stateMutability": "nonpayable",
      "type": "function"
    },
    {
      "inputs": [
        {
          "internalType": "address",
          "name": "operator",
          "type": "address"
        },
        {
          "internalType": "bool",
          "name": "approved",
          "type": "bool"
        }
      ],
      "name": "setApprovalForAll",
      "outputs": [],
      "stateMutability": "nonpayable",
      "type": "function"
    },
    {
      "inputs": [
        {
          "internalType": "bytes4",
          "name": "interfaceId",
          "type": "bytes4"
        }
      ],
      "name": "supportsInterface",
      "outputs": [
        {
          "internalType": "bool",
          "name": "",
          "type": "bool"
        }
      ],
      "stateMutability": "view",
      "type": "function"
    },
    {
      "inputs": [],
      "name": "symbol",
      "outputs": [
        {
          "internalType": "string",
          "name": "",
          "type": "string"
        }
      ],
      "stateMutability": "view",
      "type": "function"
    },
    {
      "inputs": [
        {
          "internalType": "uint256",
          "name": "tokenId",
          "type": "uint256"
        }
      ],
      "name": "tokenURI",
      "outputs": [
        {
          "internalType": "string",
          "name": "",
          "type": "string"
        }
      ],
      "stateMutability": "view",
      "type": "function"
    },
    {
      "inputs": [
        {
          "internalType": "address",
          "name": "from",
          "type": "address"
        },
        {
          "internalType": "address",
          "name": "to",
          "type": "address"
        },
        {
          "internalType": "uint256",
          "name": "tokenId",
          "type": "uint256"
        }
      ],
      "name": "transferFrom",
      "outputs": [],
      "stateMutability": "nonpayable",
      "type": "function"
    },
    {
      "inputs": [
        {
          "internalType": "string",
          "name": "tokenURI",
          "type": "string"
        }
      ],
      "name": "createToken",
      "outputs": [
        {
          "internalType": "uint256",
          "name": "",
          "type": "uint256"
        }
      ],
      "stateMutability": "nonpayable",
      "type": "function"
    },
    {
      "inputs": [
        {
          "internalType": "uint256",
          "name": "tokenId",
          "type": "uint256"
        },
        {
          "internalType": "string",
          "name": "tokenURI",
          "type": "string"
        }
      ],
      "name": "setTokenURI",
      "outputs": [],
      "stateMutability": "nonpayable",
      "type": "function"
    },
    {
      "inputs": [
        {
          "internalType": "uint256",
          "name": "tokenId",
          "type": "uint256"
        }
      ],
      "name": "burn",
      "outputs": [],
      "stateMutability": "nonpayable",
      "type": "function"
    }
  ],
  "bytecode": "0x60806040523480156200001157600080fd5b5060405162003140380380620031408339818101604052810190620000379190620001e6565b6040518060400160405280600e81526020017f4f70656e53656120546f6b656e730000000000000000000000000000000000008152506040518060400160405280600381526020017f4f535400000000000000000000000000000000000000000000000000000000008152508160009080519060200190620000bb9291906200011f565b508060019080519060200190620000d49291906200011f565b50505080600860006101000a81548173ffffffffffffffffffffffffffffffffffffffff021916908373ffffffffffffffffffffffffffffffffffffffff16021790555050620002c5565b8280546200012d9062000246565b90600052602060002090601f0160209004810192826200015157600085556200019d565b82601f106200016c57805160ff19168380011785556200019d565b828001600101855582156200019d579182015b828111156200019c5782518255916020019190600101906200017f565b5b509050620001ac9190620001b0565b5090565b5b80821115620001cb576000816000905550600101620001b1565b5090565b600081519050620001e081620002ab565b92915050565b600060208284031215620001f957600080fd5b60006200020984828501620001cf565b91505092915050565b60006200021f8262000226565b9050919050565b600073ffffffffffffffffffffffffffffffffffffffff82169050919050565b600060028204905060018216806200025f57607f821691505b602082108114156200027657620002756200027c565b5b50919050565b7f4e487b7100000000000000000000000000000000000000000000000000000000600052602260045260246000fd5b620002b68162000212565b8114620002c257600080fd5b50565b612e6b80620002d56000396000f3fe608060405234801561001057600080fd5b50600436106101005760003560e01c806345576f9411610097578063a22cb46511610066578063a22cb465146102bd578063b88d4fde146102d9578063c87b56dd146102f5578063e985e9c51461032557610100565b806345576f941461020f5780636352211e1461023f57806370a082311461026f57806395d89b411461029f57610100565b8063162094c4116100d3578063162094c41461019f57806323b872dd146101bb57806342842e0e146101d757806342966c68146101f357610100565b806301ffc9a71461010557806306fdde0314610135578063081812fc14610153578063095ea7b314610183575b600080fd5b61011f600480360381019061011a9190611e83565b610355565b60405161012c919061231e565b60405180910390f35b61013d610437565b60405161014a9190612339565b60405180910390f35b61016d60048036038101906101689190611f16565b6104c9565b60405161017a91906122b7565b60405180910390f35b61019d60048036038101906101989190611e47565b61054e565b005b6101b960048036038101906101b49190611f3f565b610666565b005b6101d560048036038101906101d09190611d41565b6106b6565b005b6101f160048036038101906101ec9190611d41565b610716565b005b61020d60048036038101906102089190611f16565b610736565b005b61022960048036038101906102249190611ed5565b610784565b604051610236919061255b565b60405180910390f35b61025960048036038101906102549190611f16565b6107e8565b60405161026691906122b7565b60405180910390f35b61028960048036038101906102849190611cdc565b61089a565b604051610296919061255b565b60405180910390f35b6102a7610952565b6040516102b49190612339565b60405180910390f35b6102d760048036038101906102d29190611e0b565b6109e4565b005b6102f360048036038101906102ee9190611d90565b6109fa565b005b61030f600480360381019061030a9190611f16565b610a5c565b60405161031c9190612339565b60405180910390f35b61033f600480360381019061033a9190611d05565b610bae565b60405161034c919061231e565b60405180910390f35b60007f80ac58cd000000000000000000000000000000000000000000000000000000007bffffffffffffffffffffffffffffffffffffffffffffffffffffffff1916827bffffffffffffffffffffffffffffffffffffffffffffffffffffffff1916148061042057507f5b5e139f000000000000000000000000000000000000000000000000000000007bffffffffffffffffffffffffffffffffffffffffffffffffffffffff1916827bffffffffffffffffffffffffffffffffffffffffffffffffffffffff1916145b80610430575061042f82610c42565b5b9050919050565b606060008054610446906127b1565b80601f0160208091040260200160405190810160405280929190818152602001828054610472906127b1565b80156104bf5780601f10610494576101008083540402835291602001916104bf565b820191906000526020600020905b8154815290600101906020018083116104a257829003601f168201915b5050505050905090565b60006104d482610cac565b610513576040517f08c379a000000000000000000000000000000000000000000000000000000000815260040161050a906124bb565b60405180910390fd5b6004600083815260200190815260200160002060009054906101000a900473ffffffffffffffffffffffffffffffffffffffff169050919050565b6000610559826107e8565b90508073ffffffffffffffffffffffffffffffffffffffff168373ffffffffffffffffffffffffffffffffffffffff1614156105ca576040517f08c379a00000000000000000000000000000000000000000000000000000000081526004016105c19061251b565b60405180910390fd5b8073ffffffffffffffffffffffffffffffffffffffff166105e9610d18565b73ffffffffffffffffffffffffffffffffffffffff161480610618575061061781610612610d18565b610bae565b5b610657576040517f08c379a000000000000000000000000000000000000000000000000000000000815260040161064e906123fb565b60405180910390fd5b6106618383610d20565b505050565b81610670816107e8565b73ffffffffffffffffffffffffffffffffffffffff163373ffffffffffffffffffffffffffffffffffffffff16146106a757600080fd5b6106b18383610dd9565b505050565b6106c76106c1610d18565b82610e4d565b610706576040517f08c379a00000000000000000000000000000000000000000000000000000000081526004016106fd9061253b565b60405180910390fd5b610711838383610f2b565b505050565b610731838383604051806020016040528060008152506109fa565b505050565b80610740816107e8565b73ffffffffffffffffffffffffffffffffffffffff163373ffffffffffffffffffffffffffffffffffffffff161461077757600080fd5b61078082611187565b5050565b600061079060076111da565b600061079c60076111f0565b90506107a833826111fe565b6107b28184610dd9565b6107df600860009054906101000a900473ffffffffffffffffffffffffffffffffffffffff1660016109e4565b80915050919050565b6000806002600084815260200190815260200160002060009054906101000a900473ffffffffffffffffffffffffffffffffffffffff169050600073ffffffffffffffffffffffffffffffffffffffff168173ffffffffffffffffffffffffffffffffffffffff161415610891576040517f08c379a00000000000000000000000000000000000000000000000000000000081526004016108889061243b565b60405180910390fd5b80915050919050565b60008073ffffffffffffffffffffffffffffffffffffffff168273ffffffffffffffffffffffffffffffffffffffff16141561090b576040517f08c379a00000000000000000000000000000000000000000000000000000000081526004016109029061241b565b60405180910390fd5b600360008373ffffffffffffffffffffffffffffffffffffffff1673ffffffffffffffffffffffffffffffffffffffff168152602001908152602001600020549050919050565b606060018054610961906127b1565b80601f016020809104026020016040519081016040528092919081815260200182805461098d906127b1565b80156109da5780601f106109af576101008083540402835291602001916109da565b820191906000526020600020905b8154815290600101906020018083116109bd57829003601f168201915b5050505050905090565b6109f66109ef610d18565b83836113cc565b5050565b610a0b610a05610d18565b83610e4d565b610a4a576040517f08c379a0000000000000000000000000000000000000000000000000000000008152600401610a419061253b565b60405180910390fd5b610a5684848484611539565b50505050565b6060610a6782610cac565b610aa6576040517f08c379a0000000000000000000000000000000000000000000000000000000008152600401610a9d9061249b565b60405180910390fd5b6000600660008481526020019081526020016000208054610ac6906127b1565b80601f0160208091040260200160405190810160405280929190818152602001828054610af2906127b1565b8015610b3f5780601f10610b1457610100808354040283529160200191610b3f565b820191906000526020600020905b815481529060010190602001808311610b2257829003601f168201915b505050505090506000610b50611595565b9050600081511415610b66578192505050610ba9565b600082511115610b9b578082604051602001610b83929190612293565b60405160208183030381529060405292505050610ba9565b610ba4846115ac565b925050505b919050565b6000600560008473ffffffffffffffffffffffffffffffffffffffff1673ffffffffffffffffffffffffffffffffffffffff16815260200190815260200160002060008373ffffffffffffffffffffffffffffffffffffffff1673ffffffffffffffffffffffffffffffffffffffff16815260200190815260200160002060009054906101000a900460ff16905092915050565b60007f01ffc9a7000000000000000000000000000000000000000000000000000000007bffffffffffffffffffffffffffffffffffffffffffffffffffffffff1916827bffffffffffffffffffffffffffffffffffffffffffffffffffffffff1916149050919050565b60008073ffffffffffffffffffffffffffffffffffffffff166002600084815260200190815260200160002060009054906101000a900473ffffffffffffffffffffffffffffffffffffffff1673ffffffffffffffffffffffffffffffffffffffff1614159050919050565b600033905090565b816004600083815260200190815260200160002060006101000a81548173ffffffffffffffffffffffffffffffffffffffff021916908373ffffffffffffffffffffffffffffffffffffffff160217905550808273ffffffffffffffffffffffffffffffffffffffff16610d93836107e8565b73ffffffffffffffffffffffffffffffffffffffff167f8c5be1e5ebec7d5bd14f71427d1e84f3dd0314c0f7b2291e5b200ac8c7c3b92560405160405180910390a45050565b610de282610cac565b610e21576040517f08c379a0000000000000000000000000000000000000000000000000000000008152600401610e189061245b565b60405180910390fd5b80600660008481526020019081526020016000209080519060200190610e48929190611ac0565b505050565b6000610e5882610cac565b610e97576040517f08c379a0000000000000000000000000000000000000000000000000000000008152600401610e8e906123db565b60405180910390fd5b6000610ea2836107e8565b90508073ffffffffffffffffffffffffffffffffffffffff168473ffffffffffffffffffffffffffffffffffffffff161480610f1157508373ffffffffffffffffffffffffffffffffffffffff16610ef9846104c9565b73ffffffffffffffffffffffffffffffffffffffff16145b80610f225750610f218185610bae565b5b91505092915050565b8273ffffffffffffffffffffffffffffffffffffffff16610f4b826107e8565b73ffffffffffffffffffffffffffffffffffffffff1614610fa1576040517f08c379a0000000000000000000000000000000000000000000000000000000008152600401610f98906124db565b60405180910390fd5b600073ffffffffffffffffffffffffffffffffffffffff168273ffffffffffffffffffffffffffffffffffffffff161415611011576040517f08c379a00000000000000000000000000000000000000000000000000000000081526004016110089061239b565b60405180910390fd5b61101c838383611653565b611027600082610d20565b6001600360008573ffffffffffffffffffffffffffffffffffffffff1673ffffffffffffffffffffffffffffffffffffffff168152602001908152602001600020600082825461107791906126c7565b925050819055506001600360008473ffffffffffffffffffffffffffffffffffffffff1673ffffffffffffffffffffffffffffffffffffffff16815260200190815260200160002060008282546110ce9190612640565b92505081905550816002600083815260200190815260200160002060006101000a81548173ffffffffffffffffffffffffffffffffffffffff021916908373ffffffffffffffffffffffffffffffffffffffff160217905550808273ffffffffffffffffffffffffffffffffffffffff168473ffffffffffffffffffffffffffffffffffffffff167fddf252ad1be2c89b69c2b068fc378daa952ba7f163c4a11628f55a4df523b3ef60405160405180910390a4505050565b61119081611658565b60006006600083815260200190815260200160002080546111b0906127b1565b9050146111d7576006600082815260200190815260200160002060006111d69190611b46565b5b50565b6001816000016000828254019250508190555050565b600081600001549050919050565b600073ffffffffffffffffffffffffffffffffffffffff168273ffffffffffffffffffffffffffffffffffffffff16141561126e576040517f08c379a00000000000000000000000000000000000000000000000000000000081526004016112659061247b565b60405180910390fd5b61127781610cac565b156112b7576040517f08c379a00000000000000000000000000000000000000000000000000000000081526004016112ae9061237b565b60405180910390fd5b6112c360008383611653565b6001600360008473ffffffffffffffffffffffffffffffffffffffff1673ffffffffffffffffffffffffffffffffffffffff16815260200190815260200160002060008282546113139190612640565b92505081905550816002600083815260200190815260200160002060006101000a81548173ffffffffffffffffffffffffffffffffffffffff021916908373ffffffffffffffffffffffffffffffffffffffff160217905550808273ffffffffffffffffffffffffffffffffffffffff16600073ffffffffffffffffffffffffffffffffffffffff167fddf252ad1be2c89b69c2b068fc378daa952ba7f163c4a11628f55a4df523b3ef60405160405180910390a45050565b8173ffffffffffffffffffffffffffffffffffffffff168373ffffffffffffffffffffffffffffffffffffffff16141561143b576040517f08c379a0000000000000000000000000000000000000000000000000000000008152600401611432906123bb565b60405180910390fd5b80600560008573ffffffffffffffffffffffffffffffffffffffff1673ffffffffffffffffffffffffffffffffffffffff16815260200190815260200160002060008473ffffffffffffffffffffffffffffffffffffffff1673ffffffffffffffffffffffffffffffffffffffff16815260200190815260200160002060006101000a81548160ff0219169083151502179055508173ffffffffffffffffffffffffffffffffffffffff168373ffffffffffffffffffffffffffffffffffffffff167f17307eab39ab6107e8899845ad3d59bd9653f200f220920489ca2b5937696c318360405161152c919061231e565b60405180910390a3505050565b611544848484610f2b565b61155084848484611769565b61158f576040517f08c379a00000000000000000000000000000000000000000000000000000000081526004016115869061235b565b60405180910390fd5b50505050565b606060405180602001604052806000815250905090565b60606115b782610cac565b6115f6576040517f08c379a00000000000000000000000000000000000000000000000000000000081526004016115ed906124fb565b60405180910390fd5b6000611600611595565b90506000815111611620576040518060200160405280600081525061164b565b8061162a84611900565b60405160200161163b929190612293565b6040516020818303038152906040525b915050919050565b505050565b6000611663826107e8565b905061167181600084611653565b61167c600083610d20565b6001600360008373ffffffffffffffffffffffffffffffffffffffff1673ffffffffffffffffffffffffffffffffffffffff16815260200190815260200160002060008282546116cc91906126c7565b925050819055506002600083815260200190815260200160002060006101000a81549073ffffffffffffffffffffffffffffffffffffffff021916905581600073ffffffffffffffffffffffffffffffffffffffff168273ffffffffffffffffffffffffffffffffffffffff167fddf252ad1be2c89b69c2b068fc378daa952ba7f163c4a11628f55a4df523b3ef60405160405180910390a45050565b600061178a8473ffffffffffffffffffffffffffffffffffffffff16611aad565b156118f3578373ffffffffffffffffffffffffffffffffffffffff1663150b7a026117b3610d18565b8786866040518563ffffffff1660e01b81526004016117d594939291906122d2565b602060405180830381600087803b1580156117ef57600080fd5b505af192505050801561182057506040513d601f19601f8201168201806040525081019061181d9190611eac565b60015b6118a3573d8060008114611850576040519150601f19603f3d011682016040523d82523d6000602084013e611855565b606091505b5060008151141561189b576040517f08c379a00000000000000000000000000000000000000000000000000000000081526004016118929061235b565b60405180910390fd5b805181602001fd5b63150b7a0260e01b7bffffffffffffffffffffffffffffffffffffffffffffffffffffffff1916817bffffffffffffffffffffffffffffffffffffffffffffffffffffffff1916149150506118f8565b600190505b949350505050565b60606000821415611948576040518060400160405280600181526020017f30000000000000000000000000000000000000000000000000000000000000008152509050611aa8565b600082905060005b6000821461197a57808061196390612814565b915050600a826119739190612696565b9150611950565b60008167ffffffffffffffff8111156119bc577f4e487b7100000000000000000000000000000000000000000000000000000000600052604160045260246000fd5b6040519080825280601f01601f1916602001820160405280156119ee5781602001600182028036833780820191505090505b5090505b60008514611aa157600182611a0791906126c7565b9150600a85611a16919061285d565b6030611a229190612640565b60f81b818381518110611a5e577f4e487b7100000000000000000000000000000000000000000000000000000000600052603260045260246000fd5b60200101907effffffffffffffffffffffffffffffffffffffffffffffffffffffffffffff1916908160001a905350600a85611a9a9190612696565b94506119f2565b8093505050505b919050565b600080823b905060008111915050919050565b828054611acc906127b1565b90600052602060002090601f016020900481019282611aee5760008555611b35565b82601f10611b0757805160ff1916838001178555611b35565b82800160010185558215611b35579182015b82811115611b34578251825591602001919060010190611b19565b5b509050611b429190611b86565b5090565b508054611b52906127b1565b6000825580601f10611b645750611b83565b601f016020900490600052602060002090810190611b829190611b86565b5b50565b5b80821115611b9f576000816000905550600101611b87565b5090565b6000611bb6611bb18461259b565b612576565b905082815260208101848484011115611bce57600080fd5b611bd984828561276f565b509392505050565b6000611bf4611bef846125cc565b612576565b905082815260208101848484011115611c0c57600080fd5b611c1784828561276f565b509392505050565b600081359050611c2e81612dd9565b92915050565b600081359050611c4381612df0565b92915050565b600081359050611c5881612e07565b92915050565b600081519050611c6d81612e07565b92915050565b600082601f830112611c8457600080fd5b8135611c94848260208601611ba3565b91505092915050565b600082601f830112611cae57600080fd5b8135611cbe848260208601611be1565b91505092915050565b600081359050611cd681612e1e565b92915050565b600060208284031215611cee57600080fd5b6000611cfc84828501611c1f565b91505092915050565b60008060408385031215611d1857600080fd5b6000611d2685828601611c1f565b9250506020611d3785828601611c1f565b9150509250929050565b600080600060608486031215611d5657600080fd5b6000611d6486828701611c1f565b9350506020611d7586828701611c1f565b9250506040611d8686828701611cc7565b9150509250925092565b60008060008060808587031215611da657600080fd5b6000611db487828801611c1f565b9450506020611dc587828801611c1f565b9350506040611dd687828801611cc7565b925050606085013567ffffffffffffffff811115611df357600080fd5b611dff87828801611c73565b91505092959194509250565b60008060408385031215611e1e57600080fd5b6000611e2c85828601611c1f565b9250506020611e3d85828601611c34565b9150509250929050565b60008060408385031215611e5a57600080fd5b6000611e6885828601611c1f565b9250506020611e7985828601611cc7565b9150509250929050565b600060208284031215611e9557600080fd5b6000611ea384828501611c49565b91505092915050565b600060208284031215611ebe57600080fd5b6000611ecc84828501611c5e565b91505092915050565b600060208284031215611ee757600080fd5b600082013567ffffffffffffffff811115611f0157600080fd5b611f0d84828501611c9d565b91505092915050565b600060208284031215611f2857600080fd5b6000611f3684828501611cc7565b91505092915050565b60008060408385031215611f5257600080fd5b6000611f6085828601611cc7565b925050602083013567ffffffffffffffff811115611f7d57600080fd5b611f8985828601611c9d565b9150509250929050565b611f9c816126fb565b82525050565b611fab8161270d565b82525050565b6000611fbc826125fd565b611fc68185612613565b9350611fd681856020860161277e565b611fdf8161294a565b840191505092915050565b6000611ff582612608565b611fff8185612624565b935061200f81856020860161277e565b6120188161294a565b840191505092915050565b600061202e82612608565b6120388185612635565b935061204881856020860161277e565b80840191505092915050565b6000612061603283612624565b915061206c8261295b565b604082019050919050565b6000612084601c83612624565b915061208f826129aa565b602082019050919050565b60006120a7602483612624565b91506120b2826129d3565b604082019050919050565b60006120ca601983612624565b91506120d582612a22565b602082019050919050565b60006120ed602c83612624565b91506120f882612a4b565b604082019050919050565b6000612110603883612624565b915061211b82612a9a565b604082019050919050565b6000612133602a83612624565b915061213e82612ae9565b604082019050919050565b6000612156602983612624565b915061216182612b38565b604082019050919050565b6000612179602e83612624565b915061218482612b87565b604082019050919050565b600061219c602083612624565b91506121a782612bd6565b602082019050919050565b60006121bf603183612624565b91506121ca82612bff565b604082019050919050565b60006121e2602c83612624565b91506121ed82612c4e565b604082019050919050565b6000612205602983612624565b915061221082612c9d565b604082019050919050565b6000612228602f83612624565b915061223382612cec565b604082019050919050565b600061224b602183612624565b915061225682612d3b565b604082019050919050565b600061226e603183612624565b915061227982612d8a565b604082019050919050565b61228d81612765565b82525050565b600061229f8285612023565b91506122ab8284612023565b91508190509392505050565b60006020820190506122cc6000830184611f93565b92915050565b60006080820190506122e76000830187611f93565b6122f46020830186611f93565b6123016040830185612284565b81810360608301526123138184611fb1565b905095945050505050565b60006020820190506123336000830184611fa2565b92915050565b600060208201905081810360008301526123538184611fea565b905092915050565b6000602082019050818103600083015261237481612054565b9050919050565b6000602082019050818103600083015261239481612077565b9050919050565b600060208201905081810360008301526123b48161209a565b9050919050565b600060208201905081810360008301526123d4816120bd565b9050919050565b600060208201905081810360008301526123f4816120e0565b9050919050565b6000602082019050818103600083015261241481612103565b9050919050565b6000602082019050818103600083015261243481612126565b9050919050565b6000602082019050818103600083015261245481612149565b9050919050565b600060208201905081810360008301526124748161216c565b9050919050565b600060208201905081810360008301526124948161218f565b9050919050565b600060208201905081810360008301526124b4816121b2565b9050919050565b600060208201905081810360008301526124d4816121d5565b9050919050565b600060208201905081810360008301526124f4816121f8565b9050919050565b600060208201905081810360008301526125148161221b565b9050919050565b600060208201905081810360008301526125348161223e565b9050919050565b6000602082019050818103600083015261255481612261565b9050919050565b60006020820190506125706000830184612284565b92915050565b6000612580612591565b905061258c82826127e3565b919050565b6000604051905090565b600067ffffffffffffffff8211156125b6576125b561291b565b5b6125bf8261294a565b9050602081019050919050565b600067ffffffffffffffff8211156125e7576125e661291b565b5b6125f08261294a565b9050602081019050919050565b600081519050919050565b600081519050919050565b600082825260208201905092915050565b600082825260208201905092915050565b600081905092915050565b600061264b82612765565b915061265683612765565b9250827fffffffffffffffffffffffffffffffffffffffffffffffffffffffffffffffff0382111561268b5761268a61288e565b5b828201905092915050565b60006126a182612765565b91506126ac83612765565b9250826126bc576126bb6128bd565b5b828204905092915050565b60006126d282612765565b91506126dd83612765565b9250828210156126f0576126ef61288e565b5b828203905092915050565b600061270682612745565b9050919050565b60008115159050919050565b60007fffffffff0000000000000000000000000000000000000000000000000000000082169050919050565b600073ffffffffffffffffffffffffffffffffffffffff82169050919050565b6000819050919050565b82818337600083830152505050565b60005b8381101561279c578082015181840152602081019050612781565b838111156127ab576000848401525b50505050565b600060028204905060018216806127c957607f821691505b602082108114156127dd576127dc6128ec565b5b50919050565b6127ec8261294a565b810181811067ffffffffffffffff8211171561280b5761280a61291b565b5b80604052505050565b600061281f82612765565b91507fffffffffffffffffffffffffffffffffffffffffffffffffffffffffffffffff8214156128525761285161288e565b5b600182019050919050565b600061286882612765565b915061287383612765565b925082612883576128826128bd565b5b828206905092915050565b7f4e487b7100000000000000000000000000000000000000000000000000000000600052601160045260246000fd5b7f4e487b7100000000000000000000000000000000000000000000000000000000600052601260045260246000fd5b7f4e487b7100000000000000000000000000000000000000000000000000000000600052602260045260246000fd5b7f4e487b7100000000000000000000000000000000000000000000000000000000600052604160045260246000fd5b6000601f19601f8301169050919050565b7f4552433732313a207472616e7366657220746f206e6f6e20455243373231526560008201527f63656976657220696d706c656d656e7465720000000000000000000000000000602082015250565b7f4552433732313a20746f6b656e20616c7265616479206d696e74656400000000600082015250565b7f4552433732313a207472616e7366657220746f20746865207a65726f2061646460008201527f7265737300000000000000000000000000000000000000000000000000000000602082015250565b7f4552433732313a20617070726f766520746f2063616c6c657200000000000000600082015250565b7f4552433732313a206f70657261746f7220717565727920666f72206e6f6e657860008201527f697374656e7420746f6b656e0000000000000000000000000000000000000000602082015250565b7f4552433732313a20617070726f76652063616c6c6572206973206e6f74206f7760008201527f6e6572206e6f7220617070726f76656420666f7220616c6c0000000000000000602082015250565b7f4552433732313a2062616c616e636520717565727920666f7220746865207a6560008201527f726f206164647265737300000000000000000000000000000000000000000000602082015250565b7f4552433732313a206f776e657220717565727920666f72206e6f6e657869737460008201527f656e7420746f6b656e0000000000000000000000000000000000000000000000602082015250565b7f45524337323155524953746f726167653a2055524920736574206f66206e6f6e60008201527f6578697374656e7420746f6b656e000000000000000000000000000000000000602082015250565b7f4552433732313a206d696e7420746f20746865207a65726f2061646472657373600082015250565b7f45524337323155524953746f726167653a2055524920717565727920666f722060008201527f6e6f6e6578697374656e7420746f6b656e000000000000000000000000000000602082015250565b7f4552433732313a20617070726f76656420717565727920666f72206e6f6e657860008201527f697374656e7420746f6b656e0000000000000000000000000000000000000000602082015250565b7f4552433732313a207472616e73666572206f6620746f6b656e2074686174206960008201527f73206e6f74206f776e0000000000000000000000000000000000000000000000602082015250565b7f4552433732314d657461646174613a2055524920717565727920666f72206e6f60008201527f6e6578697374656e7420746f6b656e0000000000000000000000000000000000602082015250565b7f4552433732313a20617070726f76616c20746f2063757272656e74206f776e6560008201527f7200000000000000000000000000000000000000000000000000000000000000602082015250565b7f4552433732313a207472616e736665722063616c6c6572206973206e6f74206f60008201527f776e6572206e6f7220617070726f766564000000000000000000000000000000602082015250565b612de2816126fb565b8114612ded57600080fd5b50565b612df98161270d565b8114612e0457600080fd5b50565b612e1081612719565b8114612e1b57600080fd5b50565b612e2781612765565b8114612e3257600080fd5b5056fea2646970667358221220047221461b5e811f62697328456348a0ddbc1e06f0ec97b56cb69250742c197664736f6c63430008040033",
  "immutableReferences": {},
  "source": "//SPDX-License-Identifier: MIT\r\npragma solidity ^0.8.0;\r\n\r\nimport \"@openzeppelin/contracts/token/ERC721/ERC721.sol\";\r\nimport \"@openzeppelin/contracts/token/ERC721/extensions/ERC721URIStorage.sol\";\r\nimport \"@openzeppelin/contracts/utils/Counters.sol\";\r\n\r\ncontract NFT1 is ERC721URIStorage {\r\n    //auto-increment field for each token\r\n    using Counters for Counters.Counter;\r\n\r\n    Counters.Counter private _tokenIds;\r\n\r\n    address contractAddress;\r\n\r\n    constructor(address marketplaceAddress) ERC721(\"OpenSea Tokens\", \"OST\") {\r\n        contractAddress = marketplaceAddress;\r\n    }\r\n\r\n    ///@notice only owner modifier\r\n    modifier onlyOwner(uint256 tokenId) {\r\n        require(msg.sender == ownerOf(tokenId));\r\n        _;\r\n    }\r\n\r\n    /// @notice create a new token\r\n    /// @param tokenURI : token URI\r\n    function createToken(string memory tokenURI) public returns (uint256) {\r\n        //set a new token id for the token to be minted\r\n        _tokenIds.increment();\r\n        uint256 newItemId = _tokenIds.current();\r\n\r\n        _mint(msg.sender, newItemId); //mint the token\r\n        _setTokenURI(newItemId, tokenURI); //generate the URI\r\n        setApprovalForAll(contractAddress, true); //grant transaction permission to marketplace\r\n\r\n        //return token ID\r\n        return newItemId;\r\n    }\r\n\r\n    // function setApprovalsForAll(\r\n    //     address operator,\r\n    //     bool approved,\r\n    //     uint256 tokenId\r\n    // ) public onlyOwner(tokenId) {\r\n    //     setApprovalForAll(operator, approved);\r\n    // }\r\n\r\n    function setTokenURI(uint256 tokenId, string memory tokenURI)\r\n        public\r\n        onlyOwner(tokenId)\r\n    {\r\n        _setTokenURI(tokenId, tokenURI);\r\n    }\r\n\r\n    function burn(uint256 tokenId) public onlyOwner(tokenId) {\r\n        _burn(tokenId);\r\n    }\r\n}\r\n",
  "sourcePath": "D:/Desktop/immense/crypto/defi application/test (NFT marketplace)/NFTmarketplace(final)/src/contracts/NFT1.sol",
  "compiler": {
    "name": "solc",
    "version": "0.8.4+commit.c7e474f2.Emscripten.clang"
  },
  "schemaVersion": "3.2.3",
  "updatedAt": "2022-03-03T14:25:16.479Z",
  "devdoc": {
    "kind": "dev",
    "methods": {
      "approve(address,uint256)": {
        "details": "See {IERC721-approve}."
      },
      "balanceOf(address)": {
        "details": "See {IERC721-balanceOf}."
      },
      "createToken(string)": {
        "params": {
          "tokenURI": ": token URI"
        }
      },
      "getApproved(uint256)": {
        "details": "See {IERC721-getApproved}."
      },
      "isApprovedForAll(address,address)": {
        "details": "See {IERC721-isApprovedForAll}."
      },
      "name()": {
        "details": "See {IERC721Metadata-name}."
      },
      "ownerOf(uint256)": {
        "details": "See {IERC721-ownerOf}."
      },
      "safeTransferFrom(address,address,uint256)": {
        "details": "See {IERC721-safeTransferFrom}."
      },
      "safeTransferFrom(address,address,uint256,bytes)": {
        "details": "See {IERC721-safeTransferFrom}."
      },
      "setApprovalForAll(address,bool)": {
        "details": "See {IERC721-setApprovalForAll}."
      },
      "supportsInterface(bytes4)": {
        "details": "See {IERC165-supportsInterface}."
      },
      "symbol()": {
        "details": "See {IERC721Metadata-symbol}."
      },
      "tokenURI(uint256)": {
        "details": "See {IERC721Metadata-tokenURI}."
      },
      "transferFrom(address,address,uint256)": {
        "details": "See {IERC721-transferFrom}."
      }
    },
    "version": 1
  },
  "userdoc": {
    "kind": "user",
    "methods": {
      "createToken(string)": {
        "notice": "create a new token"
      }
    },
    "version": 1
  }
}