{
  "contractName": "NFT2",
  "abi": [
    {
      "inputs": [
        {
          "internalType": "address",
          "name": "marketplaceAddress",
          "type": "address"
        }
      ],
      "stateMutability": "nonpayable",
      "type": "constructor"
    },
    {
      "anonymous": false,
      "inputs": [
        {
          "indexed": true,
          "internalType": "address",
          "name": "owner",
          "type": "address"
        },
        {
          "indexed": true,
          "internalType": "address",
          "name": "approved",
          "type": "address"
        },
        {
          "indexed": true,
          "internalType": "uint256",
          "name": "tokenId",
          "type": "uint256"
        }
      ],
      "name": "Approval",
      "type": "event"
    },
    {
      "anonymous": false,
      "inputs": [
        {
          "indexed": true,
          "internalType": "address",
          "name": "owner",
          "type": "address"
        },
        {
          "indexed": true,
          "internalType": "address",
          "name": "operator",
          "type": "address"
        },
        {
          "indexed": false,
          "internalType": "bool",
          "name": "approved",
          "type": "bool"
        }
      ],
      "name": "ApprovalForAll",
      "type": "event"
    },
    {
      "anonymous": false,
      "inputs": [
        {
          "indexed": true,
          "internalType": "address",
          "name": "from",
          "type": "address"
        },
        {
          "indexed": true,
          "internalType": "address",
          "name": "to",
          "type": "address"
        },
        {
          "indexed": true,
          "internalType": "uint256",
          "name": "tokenId",
          "type": "uint256"
        }
      ],
      "name": "Transfer",
      "type": "event"
    },
    {
      "inputs": [
        {
          "internalType": "address",
          "name": "to",
          "type": "address"
        },
        {
          "internalType": "uint256",
          "name": "tokenId",
          "type": "uint256"
        }
      ],
      "name": "approve",
      "outputs": [],
      "stateMutability": "nonpayable",
      "type": "function"
    },
    {
      "inputs": [
        {
          "internalType": "address",
          "name": "owner",
          "type": "address"
        }
      ],
      "name": "balanceOf",
      "outputs": [
        {
          "internalType": "uint256",
          "name": "",
          "type": "uint256"
        }
      ],
      "stateMutability": "view",
      "type": "function"
    },
    {
      "inputs": [
        {
          "internalType": "uint256",
          "name": "tokenId",
          "type": "uint256"
        }
      ],
      "name": "getApproved",
      "outputs": [
        {
          "internalType": "address",
          "name": "",
          "type": "address"
        }
      ],
      "stateMutability": "view",
      "type": "function"
    },
    {
      "inputs": [
        {
          "internalType": "address",
          "name": "owner",
          "type": "address"
        },
        {
          "internalType": "address",
          "name": "operator",
          "type": "address"
        }
      ],
      "name": "isApprovedForAll",
      "outputs": [
        {
          "internalType": "bool",
          "name": "",
          "type": "bool"
        }
      ],
      "stateMutability": "view",
      "type": "function"
    },
    {
      "inputs": [],
      "name": "name",
      "outputs": [
        {
          "internalType": "string",
          "name": "",
          "type": "string"
        }
      ],
      "stateMutability": "view",
      "type": "function"
    },
    {
      "inputs": [
        {
          "internalType": "uint256",
          "name": "tokenId",
          "type": "uint256"
        }
      ],
      "name": "ownerOf",
      "outputs": [
        {
          "internalType": "address",
          "name": "",
          "type": "address"
        }
      ],
      "stateMutability": "view",
      "type": "function"
    },
    {
      "inputs": [
        {
          "internalType": "address",
          "name": "from",
          "type": "address"
        },
        {
          "internalType": "address",
          "name": "to",
          "type": "address"
        },
        {
          "internalType": "uint256",
          "name": "tokenId",
          "type": "uint256"
        }
      ],
      "name": "safeTransferFrom",
      "outputs": [],
      "stateMutability": "nonpayable",
      "type": "function"
    },
    {
      "inputs": [
        {
          "internalType": "address",
          "name": "from",
          "type": "address"
        },
        {
          "internalType": "address",
          "name": "to",
          "type": "address"
        },
        {
          "internalType": "uint256",
          "name": "tokenId",
          "type": "uint256"
        },
        {
          "internalType": "bytes",
          "name": "_data",
          "type": "bytes"
        }
      ],
      "name": "safeTransferFrom",
      "outputs": [],
      "stateMutability": "nonpayable",
      "type": "function"
    },
    {
      "inputs": [
        {
          "internalType": "address",
          "name": "operator",
          "type": "address"
        },
        {
          "internalType": "bool",
          "name": "approved",
          "type": "bool"
        }
      ],
      "name": "setApprovalForAll",
      "outputs": [],
      "stateMutability": "nonpayable",
      "type": "function"
    },
    {
      "inputs": [
        {
          "internalType": "bytes4",
          "name": "interfaceId",
          "type": "bytes4"
        }
      ],
      "name": "supportsInterface",
      "outputs": [
        {
          "internalType": "bool",
          "name": "",
          "type": "bool"
        }
      ],
      "stateMutability": "view",
      "type": "function"
    },
    {
      "inputs": [],
      "name": "symbol",
      "outputs": [
        {
          "internalType": "string",
          "name": "",
          "type": "string"
        }
      ],
      "stateMutability": "view",
      "type": "function"
    },
    {
      "inputs": [
        {
          "internalType": "uint256",
          "name": "tokenId",
          "type": "uint256"
        }
      ],
      "name": "tokenURI",
      "outputs": [
        {
          "internalType": "string",
          "name": "",
          "type": "string"
        }
      ],
      "stateMutability": "view",
      "type": "function"
    },
    {
      "inputs": [
        {
          "internalType": "address",
          "name": "from",
          "type": "address"
        },
        {
          "internalType": "address",
          "name": "to",
          "type": "address"
        },
        {
          "internalType": "uint256",
          "name": "tokenId",
          "type": "uint256"
        }
      ],
      "name": "transferFrom",
      "outputs": [],
      "stateMutability": "nonpayable",
      "type": "function"
    },
    {
      "inputs": [
        {
          "internalType": "uint256",
          "name": "_tokenId",
          "type": "uint256"
        },
        {
          "internalType": "string",
          "name": "tokenURI",
          "type": "string"
        }
      ],
      "name": "createToken",
      "outputs": [
        {
          "internalType": "uint256",
          "name": "",
          "type": "uint256"
        }
      ],
      "stateMutability": "nonpayable",
      "type": "function"
    },
    {
      "inputs": [
        {
          "internalType": "uint256",
          "name": "tokenId",
          "type": "uint256"
        },
        {
          "internalType": "string",
          "name": "tokenURI",
          "type": "string"
        }
      ],
      "name": "setTokenURI",
      "outputs": [],
      "stateMutability": "nonpayable",
      "type": "function"
    },
    {
      "inputs": [
        {
          "internalType": "uint256",
          "name": "tokenId",
          "type": "uint256"
        }
      ],
      "name": "burn",
      "outputs": [],
      "stateMutability": "nonpayable",
      "type": "function"
    }
  ],
  "bytecode": "0x60806040523480156200001157600080fd5b50604051620030c3380380620030c38339818101604052810190620000379190620001e6565b6040518060400160405280600e81526020017f4f70656e53656120546f6b656e730000000000000000000000000000000000008152506040518060400160405280600381526020017f4f535400000000000000000000000000000000000000000000000000000000008152508160009080519060200190620000bb9291906200011f565b508060019080519060200190620000d49291906200011f565b50505080600760006101000a81548173ffffffffffffffffffffffffffffffffffffffff021916908373ffffffffffffffffffffffffffffffffffffffff16021790555050620002c5565b8280546200012d9062000246565b90600052602060002090601f0160209004810192826200015157600085556200019d565b82601f106200016c57805160ff19168380011785556200019d565b828001600101855582156200019d579182015b828111156200019c5782518255916020019190600101906200017f565b5b509050620001ac9190620001b0565b5090565b5b80821115620001cb576000816000905550600101620001b1565b5090565b600081519050620001e081620002ab565b92915050565b600060208284031215620001f957600080fd5b60006200020984828501620001cf565b91505092915050565b60006200021f8262000226565b9050919050565b600073ffffffffffffffffffffffffffffffffffffffff82169050919050565b600060028204905060018216806200025f57607f821691505b602082108114156200027657620002756200027c565b5b50919050565b7f4e487b7100000000000000000000000000000000000000000000000000000000600052602260045260246000fd5b620002b68162000212565b8114620002c257600080fd5b50565b612dee80620002d56000396000f3fe608060405234801561001057600080fd5b50600436106101005760003560e01c806342966c6811610097578063a22cb46511610066578063a22cb465146102bd578063b88d4fde146102d9578063c87b56dd146102f5578063e985e9c51461032557610100565b806342966c68146102235780636352211e1461023f57806370a082311461026f57806395d89b411461029f57610100565b8063162094c4116100d3578063162094c41461019f5780631b3efe85146101bb57806323b872dd146101eb57806342842e0e1461020757610100565b806301ffc9a71461010557806306fdde0314610135578063081812fc14610153578063095ea7b314610183575b600080fd5b61011f600480360381019061011a9190611e47565b610355565b60405161012c91906122a1565b60405180910390f35b61013d610437565b60405161014a91906122bc565b60405180910390f35b61016d60048036038101906101689190611e99565b6104c9565b60405161017a919061223a565b60405180910390f35b61019d60048036038101906101989190611e0b565b61054e565b005b6101b960048036038101906101b49190611ec2565b610666565b005b6101d560048036038101906101d09190611ec2565b6106b6565b6040516101e291906124de565b60405180910390f35b61020560048036038101906102009190611d05565b610702565b005b610221600480360381019061021c9190611d05565b610762565b005b61023d60048036038101906102389190611e99565b610782565b005b61025960048036038101906102549190611e99565b6107d0565b604051610266919061223a565b60405180910390f35b61028960048036038101906102849190611ca0565b610882565b60405161029691906124de565b60405180910390f35b6102a761093a565b6040516102b491906122bc565b60405180910390f35b6102d760048036038101906102d29190611dcf565b6109cc565b005b6102f360048036038101906102ee9190611d54565b6109e2565b005b61030f600480360381019061030a9190611e99565b610a44565b60405161031c91906122bc565b60405180910390f35b61033f600480360381019061033a9190611cc9565b610b96565b60405161034c91906122a1565b60405180910390f35b60007f80ac58cd000000000000000000000000000000000000000000000000000000007bffffffffffffffffffffffffffffffffffffffffffffffffffffffff1916827bffffffffffffffffffffffffffffffffffffffffffffffffffffffff1916148061042057507f5b5e139f000000000000000000000000000000000000000000000000000000007bffffffffffffffffffffffffffffffffffffffffffffffffffffffff1916827bffffffffffffffffffffffffffffffffffffffffffffffffffffffff1916145b80610430575061042f82610c2a565b5b9050919050565b60606000805461044690612734565b80601f016020809104026020016040519081016040528092919081815260200182805461047290612734565b80156104bf5780601f10610494576101008083540402835291602001916104bf565b820191906000526020600020905b8154815290600101906020018083116104a257829003601f168201915b5050505050905090565b60006104d482610c94565b610513576040517f08c379a000000000000000000000000000000000000000000000000000000000815260040161050a9061243e565b60405180910390fd5b6004600083815260200190815260200160002060009054906101000a900473ffffffffffffffffffffffffffffffffffffffff169050919050565b6000610559826107d0565b90508073ffffffffffffffffffffffffffffffffffffffff168373ffffffffffffffffffffffffffffffffffffffff1614156105ca576040517f08c379a00000000000000000000000000000000000000000000000000000000081526004016105c19061249e565b60405180910390fd5b8073ffffffffffffffffffffffffffffffffffffffff166105e9610d00565b73ffffffffffffffffffffffffffffffffffffffff161480610618575061061781610612610d00565b610b96565b5b610657576040517f08c379a000000000000000000000000000000000000000000000000000000000815260040161064e9061237e565b60405180910390fd5b6106618383610d08565b505050565b81610670816107d0565b73ffffffffffffffffffffffffffffffffffffffff163373ffffffffffffffffffffffffffffffffffffffff16146106a757600080fd5b6106b18383610dc1565b505050565b60006106c23384610e35565b6106cc8383610dc1565b6106f9600760009054906101000a900473ffffffffffffffffffffffffffffffffffffffff1660016109cc565b82905092915050565b61071361070d610d00565b82611003565b610752576040517f08c379a0000000000000000000000000000000000000000000000000000000008152600401610749906124be565b60405180910390fd5b61075d8383836110e1565b505050565b61077d838383604051806020016040528060008152506109e2565b505050565b8061078c816107d0565b73ffffffffffffffffffffffffffffffffffffffff163373ffffffffffffffffffffffffffffffffffffffff16146107c357600080fd5b6107cc8261133d565b5050565b6000806002600084815260200190815260200160002060009054906101000a900473ffffffffffffffffffffffffffffffffffffffff169050600073ffffffffffffffffffffffffffffffffffffffff168173ffffffffffffffffffffffffffffffffffffffff161415610879576040517f08c379a0000000000000000000000000000000000000000000000000000000008152600401610870906123be565b60405180910390fd5b80915050919050565b60008073ffffffffffffffffffffffffffffffffffffffff168273ffffffffffffffffffffffffffffffffffffffff1614156108f3576040517f08c379a00000000000000000000000000000000000000000000000000000000081526004016108ea9061239e565b60405180910390fd5b600360008373ffffffffffffffffffffffffffffffffffffffff1673ffffffffffffffffffffffffffffffffffffffff168152602001908152602001600020549050919050565b60606001805461094990612734565b80601f016020809104026020016040519081016040528092919081815260200182805461097590612734565b80156109c25780601f10610997576101008083540402835291602001916109c2565b820191906000526020600020905b8154815290600101906020018083116109a557829003601f168201915b5050505050905090565b6109de6109d7610d00565b8383611390565b5050565b6109f36109ed610d00565b83611003565b610a32576040517f08c379a0000000000000000000000000000000000000000000000000000000008152600401610a29906124be565b60405180910390fd5b610a3e848484846114fd565b50505050565b6060610a4f82610c94565b610a8e576040517f08c379a0000000000000000000000000000000000000000000000000000000008152600401610a859061241e565b60405180910390fd5b6000600660008481526020019081526020016000208054610aae90612734565b80601f0160208091040260200160405190810160405280929190818152602001828054610ada90612734565b8015610b275780601f10610afc57610100808354040283529160200191610b27565b820191906000526020600020905b815481529060010190602001808311610b0a57829003601f168201915b505050505090506000610b38611559565b9050600081511415610b4e578192505050610b91565b600082511115610b83578082604051602001610b6b929190612216565b60405160208183030381529060405292505050610b91565b610b8c84611570565b925050505b919050565b6000600560008473ffffffffffffffffffffffffffffffffffffffff1673ffffffffffffffffffffffffffffffffffffffff16815260200190815260200160002060008373ffffffffffffffffffffffffffffffffffffffff1673ffffffffffffffffffffffffffffffffffffffff16815260200190815260200160002060009054906101000a900460ff16905092915050565b60007f01ffc9a7000000000000000000000000000000000000000000000000000000007bffffffffffffffffffffffffffffffffffffffffffffffffffffffff1916827bffffffffffffffffffffffffffffffffffffffffffffffffffffffff1916149050919050565b60008073ffffffffffffffffffffffffffffffffffffffff166002600084815260200190815260200160002060009054906101000a900473ffffffffffffffffffffffffffffffffffffffff1673ffffffffffffffffffffffffffffffffffffffff1614159050919050565b600033905090565b816004600083815260200190815260200160002060006101000a81548173ffffffffffffffffffffffffffffffffffffffff021916908373ffffffffffffffffffffffffffffffffffffffff160217905550808273ffffffffffffffffffffffffffffffffffffffff16610d7b836107d0565b73ffffffffffffffffffffffffffffffffffffffff167f8c5be1e5ebec7d5bd14f71427d1e84f3dd0314c0f7b2291e5b200ac8c7c3b92560405160405180910390a45050565b610dca82610c94565b610e09576040517f08c379a0000000000000000000000000000000000000000000000000000000008152600401610e00906123de565b60405180910390fd5b80600660008481526020019081526020016000209080519060200190610e30929190611a84565b505050565b600073ffffffffffffffffffffffffffffffffffffffff168273ffffffffffffffffffffffffffffffffffffffff161415610ea5576040517f08c379a0000000000000000000000000000000000000000000000000000000008152600401610e9c906123fe565b60405180910390fd5b610eae81610c94565b15610eee576040517f08c379a0000000000000000000000000000000000000000000000000000000008152600401610ee5906122fe565b60405180910390fd5b610efa60008383611617565b6001600360008473ffffffffffffffffffffffffffffffffffffffff1673ffffffffffffffffffffffffffffffffffffffff1681526020019081526020016000206000828254610f4a91906125c3565b92505081905550816002600083815260200190815260200160002060006101000a81548173ffffffffffffffffffffffffffffffffffffffff021916908373ffffffffffffffffffffffffffffffffffffffff160217905550808273ffffffffffffffffffffffffffffffffffffffff16600073ffffffffffffffffffffffffffffffffffffffff167fddf252ad1be2c89b69c2b068fc378daa952ba7f163c4a11628f55a4df523b3ef60405160405180910390a45050565b600061100e82610c94565b61104d576040517f08c379a00000000000000000000000000000000000000000000000000000000081526004016110449061235e565b60405180910390fd5b6000611058836107d0565b90508073ffffffffffffffffffffffffffffffffffffffff168473ffffffffffffffffffffffffffffffffffffffff1614806110c757508373ffffffffffffffffffffffffffffffffffffffff166110af846104c9565b73ffffffffffffffffffffffffffffffffffffffff16145b806110d857506110d78185610b96565b5b91505092915050565b8273ffffffffffffffffffffffffffffffffffffffff16611101826107d0565b73ffffffffffffffffffffffffffffffffffffffff1614611157576040517f08c379a000000000000000000000000000000000000000000000000000000000815260040161114e9061245e565b60405180910390fd5b600073ffffffffffffffffffffffffffffffffffffffff168273ffffffffffffffffffffffffffffffffffffffff1614156111c7576040517f08c379a00000000000000000000000000000000000000000000000000000000081526004016111be9061231e565b60405180910390fd5b6111d2838383611617565b6111dd600082610d08565b6001600360008573ffffffffffffffffffffffffffffffffffffffff1673ffffffffffffffffffffffffffffffffffffffff168152602001908152602001600020600082825461122d919061264a565b925050819055506001600360008473ffffffffffffffffffffffffffffffffffffffff1673ffffffffffffffffffffffffffffffffffffffff168152602001908152602001600020600082825461128491906125c3565b92505081905550816002600083815260200190815260200160002060006101000a81548173ffffffffffffffffffffffffffffffffffffffff021916908373ffffffffffffffffffffffffffffffffffffffff160217905550808273ffffffffffffffffffffffffffffffffffffffff168473ffffffffffffffffffffffffffffffffffffffff167fddf252ad1be2c89b69c2b068fc378daa952ba7f163c4a11628f55a4df523b3ef60405160405180910390a4505050565b6113468161161c565b600060066000838152602001908152602001600020805461136690612734565b90501461138d5760066000828152602001908152602001600020600061138c9190611b0a565b5b50565b8173ffffffffffffffffffffffffffffffffffffffff168373ffffffffffffffffffffffffffffffffffffffff1614156113ff576040517f08c379a00000000000000000000000000000000000000000000000000000000081526004016113f69061233e565b60405180910390fd5b80600560008573ffffffffffffffffffffffffffffffffffffffff1673ffffffffffffffffffffffffffffffffffffffff16815260200190815260200160002060008473ffffffffffffffffffffffffffffffffffffffff1673ffffffffffffffffffffffffffffffffffffffff16815260200190815260200160002060006101000a81548160ff0219169083151502179055508173ffffffffffffffffffffffffffffffffffffffff168373ffffffffffffffffffffffffffffffffffffffff167f17307eab39ab6107e8899845ad3d59bd9653f200f220920489ca2b5937696c31836040516114f091906122a1565b60405180910390a3505050565b6115088484846110e1565b6115148484848461172d565b611553576040517f08c379a000000000000000000000000000000000000000000000000000000000815260040161154a906122de565b60405180910390fd5b50505050565b606060405180602001604052806000815250905090565b606061157b82610c94565b6115ba576040517f08c379a00000000000000000000000000000000000000000000000000000000081526004016115b19061247e565b60405180910390fd5b60006115c4611559565b905060008151116115e4576040518060200160405280600081525061160f565b806115ee846118c4565b6040516020016115ff929190612216565b6040516020818303038152906040525b915050919050565b505050565b6000611627826107d0565b905061163581600084611617565b611640600083610d08565b6001600360008373ffffffffffffffffffffffffffffffffffffffff1673ffffffffffffffffffffffffffffffffffffffff1681526020019081526020016000206000828254611690919061264a565b925050819055506002600083815260200190815260200160002060006101000a81549073ffffffffffffffffffffffffffffffffffffffff021916905581600073ffffffffffffffffffffffffffffffffffffffff168273ffffffffffffffffffffffffffffffffffffffff167fddf252ad1be2c89b69c2b068fc378daa952ba7f163c4a11628f55a4df523b3ef60405160405180910390a45050565b600061174e8473ffffffffffffffffffffffffffffffffffffffff16611a71565b156118b7578373ffffffffffffffffffffffffffffffffffffffff1663150b7a02611777610d00565b8786866040518563ffffffff1660e01b81526004016117999493929190612255565b602060405180830381600087803b1580156117b357600080fd5b505af19250505080156117e457506040513d601f19601f820116820180604052508101906117e19190611e70565b60015b611867573d8060008114611814576040519150601f19603f3d011682016040523d82523d6000602084013e611819565b606091505b5060008151141561185f576040517f08c379a0000000000000000000000000000000000000000000000000000000008152600401611856906122de565b60405180910390fd5b805181602001fd5b63150b7a0260e01b7bffffffffffffffffffffffffffffffffffffffffffffffffffffffff1916817bffffffffffffffffffffffffffffffffffffffffffffffffffffffff1916149150506118bc565b600190505b949350505050565b6060600082141561190c576040518060400160405280600181526020017f30000000000000000000000000000000000000000000000000000000000000008152509050611a6c565b600082905060005b6000821461193e57808061192790612797565b915050600a826119379190612619565b9150611914565b60008167ffffffffffffffff811115611980577f4e487b7100000000000000000000000000000000000000000000000000000000600052604160045260246000fd5b6040519080825280601f01601f1916602001820160405280156119b25781602001600182028036833780820191505090505b5090505b60008514611a65576001826119cb919061264a565b9150600a856119da91906127e0565b60306119e691906125c3565b60f81b818381518110611a22577f4e487b7100000000000000000000000000000000000000000000000000000000600052603260045260246000fd5b60200101907effffffffffffffffffffffffffffffffffffffffffffffffffffffffffffff1916908160001a905350600a85611a5e9190612619565b94506119b6565b8093505050505b919050565b600080823b905060008111915050919050565b828054611a9090612734565b90600052602060002090601f016020900481019282611ab25760008555611af9565b82601f10611acb57805160ff1916838001178555611af9565b82800160010185558215611af9579182015b82811115611af8578251825591602001919060010190611add565b5b509050611b069190611b4a565b5090565b508054611b1690612734565b6000825580601f10611b285750611b47565b601f016020900490600052602060002090810190611b469190611b4a565b5b50565b5b80821115611b63576000816000905550600101611b4b565b5090565b6000611b7a611b758461251e565b6124f9565b905082815260208101848484011115611b9257600080fd5b611b9d8482856126f2565b509392505050565b6000611bb8611bb38461254f565b6124f9565b905082815260208101848484011115611bd057600080fd5b611bdb8482856126f2565b509392505050565b600081359050611bf281612d5c565b92915050565b600081359050611c0781612d73565b92915050565b600081359050611c1c81612d8a565b92915050565b600081519050611c3181612d8a565b92915050565b600082601f830112611c4857600080fd5b8135611c58848260208601611b67565b91505092915050565b600082601f830112611c7257600080fd5b8135611c82848260208601611ba5565b91505092915050565b600081359050611c9a81612da1565b92915050565b600060208284031215611cb257600080fd5b6000611cc084828501611be3565b91505092915050565b60008060408385031215611cdc57600080fd5b6000611cea85828601611be3565b9250506020611cfb85828601611be3565b9150509250929050565b600080600060608486031215611d1a57600080fd5b6000611d2886828701611be3565b9350506020611d3986828701611be3565b9250506040611d4a86828701611c8b565b9150509250925092565b60008060008060808587031215611d6a57600080fd5b6000611d7887828801611be3565b9450506020611d8987828801611be3565b9350506040611d9a87828801611c8b565b925050606085013567ffffffffffffffff811115611db757600080fd5b611dc387828801611c37565b91505092959194509250565b60008060408385031215611de257600080fd5b6000611df085828601611be3565b9250506020611e0185828601611bf8565b9150509250929050565b60008060408385031215611e1e57600080fd5b6000611e2c85828601611be3565b9250506020611e3d85828601611c8b565b9150509250929050565b600060208284031215611e5957600080fd5b6000611e6784828501611c0d565b91505092915050565b600060208284031215611e8257600080fd5b6000611e9084828501611c22565b91505092915050565b600060208284031215611eab57600080fd5b6000611eb984828501611c8b565b91505092915050565b60008060408385031215611ed557600080fd5b6000611ee385828601611c8b565b925050602083013567ffffffffffffffff811115611f0057600080fd5b611f0c85828601611c61565b9150509250929050565b611f1f8161267e565b82525050565b611f2e81612690565b82525050565b6000611f3f82612580565b611f498185612596565b9350611f59818560208601612701565b611f62816128cd565b840191505092915050565b6000611f788261258b565b611f8281856125a7565b9350611f92818560208601612701565b611f9b816128cd565b840191505092915050565b6000611fb18261258b565b611fbb81856125b8565b9350611fcb818560208601612701565b80840191505092915050565b6000611fe46032836125a7565b9150611fef826128de565b604082019050919050565b6000612007601c836125a7565b91506120128261292d565b602082019050919050565b600061202a6024836125a7565b915061203582612956565b604082019050919050565b600061204d6019836125a7565b9150612058826129a5565b602082019050919050565b6000612070602c836125a7565b915061207b826129ce565b604082019050919050565b60006120936038836125a7565b915061209e82612a1d565b604082019050919050565b60006120b6602a836125a7565b91506120c182612a6c565b604082019050919050565b60006120d96029836125a7565b91506120e482612abb565b604082019050919050565b60006120fc602e836125a7565b915061210782612b0a565b604082019050919050565b600061211f6020836125a7565b915061212a82612b59565b602082019050919050565b60006121426031836125a7565b915061214d82612b82565b604082019050919050565b6000612165602c836125a7565b915061217082612bd1565b604082019050919050565b60006121886029836125a7565b915061219382612c20565b604082019050919050565b60006121ab602f836125a7565b91506121b682612c6f565b604082019050919050565b60006121ce6021836125a7565b91506121d982612cbe565b604082019050919050565b60006121f16031836125a7565b91506121fc82612d0d565b604082019050919050565b612210816126e8565b82525050565b60006122228285611fa6565b915061222e8284611fa6565b91508190509392505050565b600060208201905061224f6000830184611f16565b92915050565b600060808201905061226a6000830187611f16565b6122776020830186611f16565b6122846040830185612207565b81810360608301526122968184611f34565b905095945050505050565b60006020820190506122b66000830184611f25565b92915050565b600060208201905081810360008301526122d68184611f6d565b905092915050565b600060208201905081810360008301526122f781611fd7565b9050919050565b6000602082019050818103600083015261231781611ffa565b9050919050565b600060208201905081810360008301526123378161201d565b9050919050565b6000602082019050818103600083015261235781612040565b9050919050565b6000602082019050818103600083015261237781612063565b9050919050565b6000602082019050818103600083015261239781612086565b9050919050565b600060208201905081810360008301526123b7816120a9565b9050919050565b600060208201905081810360008301526123d7816120cc565b9050919050565b600060208201905081810360008301526123f7816120ef565b9050919050565b6000602082019050818103600083015261241781612112565b9050919050565b6000602082019050818103600083015261243781612135565b9050919050565b6000602082019050818103600083015261245781612158565b9050919050565b600060208201905081810360008301526124778161217b565b9050919050565b600060208201905081810360008301526124978161219e565b9050919050565b600060208201905081810360008301526124b7816121c1565b9050919050565b600060208201905081810360008301526124d7816121e4565b9050919050565b60006020820190506124f36000830184612207565b92915050565b6000612503612514565b905061250f8282612766565b919050565b6000604051905090565b600067ffffffffffffffff8211156125395761253861289e565b5b612542826128cd565b9050602081019050919050565b600067ffffffffffffffff82111561256a5761256961289e565b5b612573826128cd565b9050602081019050919050565b600081519050919050565b600081519050919050565b600082825260208201905092915050565b600082825260208201905092915050565b600081905092915050565b60006125ce826126e8565b91506125d9836126e8565b9250827fffffffffffffffffffffffffffffffffffffffffffffffffffffffffffffffff0382111561260e5761260d612811565b5b828201905092915050565b6000612624826126e8565b915061262f836126e8565b92508261263f5761263e612840565b5b828204905092915050565b6000612655826126e8565b9150612660836126e8565b92508282101561267357612672612811565b5b828203905092915050565b6000612689826126c8565b9050919050565b60008115159050919050565b60007fffffffff0000000000000000000000000000000000000000000000000000000082169050919050565b600073ffffffffffffffffffffffffffffffffffffffff82169050919050565b6000819050919050565b82818337600083830152505050565b60005b8381101561271f578082015181840152602081019050612704565b8381111561272e576000848401525b50505050565b6000600282049050600182168061274c57607f821691505b602082108114156127605761275f61286f565b5b50919050565b61276f826128cd565b810181811067ffffffffffffffff8211171561278e5761278d61289e565b5b80604052505050565b60006127a2826126e8565b91507fffffffffffffffffffffffffffffffffffffffffffffffffffffffffffffffff8214156127d5576127d4612811565b5b600182019050919050565b60006127eb826126e8565b91506127f6836126e8565b92508261280657612805612840565b5b828206905092915050565b7f4e487b7100000000000000000000000000000000000000000000000000000000600052601160045260246000fd5b7f4e487b7100000000000000000000000000000000000000000000000000000000600052601260045260246000fd5b7f4e487b7100000000000000000000000000000000000000000000000000000000600052602260045260246000fd5b7f4e487b7100000000000000000000000000000000000000000000000000000000600052604160045260246000fd5b6000601f19601f8301169050919050565b7f4552433732313a207472616e7366657220746f206e6f6e20455243373231526560008201527f63656976657220696d706c656d656e7465720000000000000000000000000000602082015250565b7f4552433732313a20746f6b656e20616c7265616479206d696e74656400000000600082015250565b7f4552433732313a207472616e7366657220746f20746865207a65726f2061646460008201527f7265737300000000000000000000000000000000000000000000000000000000602082015250565b7f4552433732313a20617070726f766520746f2063616c6c657200000000000000600082015250565b7f4552433732313a206f70657261746f7220717565727920666f72206e6f6e657860008201527f697374656e7420746f6b656e0000000000000000000000000000000000000000602082015250565b7f4552433732313a20617070726f76652063616c6c6572206973206e6f74206f7760008201527f6e6572206e6f7220617070726f76656420666f7220616c6c0000000000000000602082015250565b7f4552433732313a2062616c616e636520717565727920666f7220746865207a6560008201527f726f206164647265737300000000000000000000000000000000000000000000602082015250565b7f4552433732313a206f776e657220717565727920666f72206e6f6e657869737460008201527f656e7420746f6b656e0000000000000000000000000000000000000000000000602082015250565b7f45524337323155524953746f726167653a2055524920736574206f66206e6f6e60008201527f6578697374656e7420746f6b656e000000000000000000000000000000000000602082015250565b7f4552433732313a206d696e7420746f20746865207a65726f2061646472657373600082015250565b7f45524337323155524953746f726167653a2055524920717565727920666f722060008201527f6e6f6e6578697374656e7420746f6b656e000000000000000000000000000000602082015250565b7f4552433732313a20617070726f76656420717565727920666f72206e6f6e657860008201527f697374656e7420746f6b656e0000000000000000000000000000000000000000602082015250565b7f4552433732313a207472616e73666572206f6620746f6b656e2074686174206960008201527f73206e6f74206f776e0000000000000000000000000000000000000000000000602082015250565b7f4552433732314d657461646174613a2055524920717565727920666f72206e6f60008201527f6e6578697374656e7420746f6b656e0000000000000000000000000000000000602082015250565b7f4552433732313a20617070726f76616c20746f2063757272656e74206f776e6560008201527f7200000000000000000000000000000000000000000000000000000000000000602082015250565b7f4552433732313a207472616e736665722063616c6c6572206973206e6f74206f60008201527f776e6572206e6f7220617070726f766564000000000000000000000000000000602082015250565b612d658161267e565b8114612d7057600080fd5b50565b612d7c81612690565b8114612d8757600080fd5b50565b612d938161269c565b8114612d9e57600080fd5b50565b612daa816126e8565b8114612db557600080fd5b5056fea2646970667358221220484ed29b8f96a7688e436a72f54600d3923243a6362ce7310adfb12ee20fb8e364736f6c63430008040033",
  "immutableReferences": {},
  "source": "//SPDX-License-Identifier: MIT\r\npragma solidity ^0.8.0;\r\n\r\nimport \"@openzeppelin/contracts/token/ERC721/ERC721.sol\";\r\nimport \"@openzeppelin/contracts/token/ERC721/extensions/ERC721URIStorage.sol\";\r\nimport \"@openzeppelin/contracts/utils/Counters.sol\";\r\n\r\ncontract NFT2 is ERC721URIStorage {\r\n    //auto-increment field for each token\r\n    // using Counters for Counters.Counter;\r\n\r\n    // Counters.Counter private _tokenIds;\r\n\r\n    address contractAddress;\r\n\r\n    constructor(address marketplaceAddress) ERC721(\"OpenSea Tokens\", \"OST\") {\r\n        contractAddress = marketplaceAddress;\r\n    }\r\n\r\n    ///@notice only owner modifier\r\n    modifier onlyOwner(uint256 tokenId) {\r\n        require(msg.sender == ownerOf(tokenId));\r\n        _;\r\n    }\r\n\r\n    /// @notice create a new token\r\n    /// @param tokenURI : token URI\r\n    function createToken(uint256 _tokenId, string memory tokenURI)\r\n        public\r\n        returns (uint256)\r\n    {\r\n        //set a new token id for the token to be minted\r\n        // _tokenIds.increment();\r\n        // uint256 newItemId = _tokenIds.current();\r\n\r\n        _mint(msg.sender, _tokenId); //mint the token\r\n        _setTokenURI(_tokenId, tokenURI); //generate the URI\r\n        setApprovalForAll(contractAddress, true); //grant transaction permission to marketplace\r\n\r\n        //return token ID\r\n        return _tokenId;\r\n    }\r\n\r\n    // function setApprovalsForAll(\r\n    //     address operator,\r\n    //     bool approved,\r\n    //     uint256 tokenId\r\n    // ) public onlyOwner(tokenId) {\r\n    //     setApprovalForAll(operator, approved);\r\n    // }\r\n\r\n    function setTokenURI(uint256 tokenId, string memory tokenURI)\r\n        public\r\n        onlyOwner(tokenId)\r\n    {\r\n        _setTokenURI(tokenId, tokenURI);\r\n    }\r\n\r\n    function burn(uint256 tokenId) public onlyOwner(tokenId) {\r\n        _burn(tokenId);\r\n    }\r\n}\r\n",
  "sourcePath": "D:/Desktop/immense/crypto/defi application/test (NFT marketplace)/NFTmarketplace(final)/src/contracts/NFT2.sol",
  "compiler": {
    "name": "solc",
    "version": "0.8.4+commit.c7e474f2.Emscripten.clang"
  },
  "schemaVersion": "3.2.3",
  "updatedAt": "2022-03-03T14:25:16.494Z",
  "devdoc": {
    "kind": "dev",
    "methods": {
      "approve(address,uint256)": {
        "details": "See {IERC721-approve}."
      },
      "balanceOf(address)": {
        "details": "See {IERC721-balanceOf}."
      },
      "createToken(uint256,string)": {
        "params": {
          "tokenURI": ": token URI"
        }
      },
      "getApproved(uint256)": {
        "details": "See {IERC721-getApproved}."
      },
      "isApprovedForAll(address,address)": {
        "details": "See {IERC721-isApprovedForAll}."
      },
      "name()": {
        "details": "See {IERC721Metadata-name}."
      },
      "ownerOf(uint256)": {
        "details": "See {IERC721-ownerOf}."
      },
      "safeTransferFrom(address,address,uint256)": {
        "details": "See {IERC721-safeTransferFrom}."
      },
      "safeTransferFrom(address,address,uint256,bytes)": {
        "details": "See {IERC721-safeTransferFrom}."
      },
      "setApprovalForAll(address,bool)": {
        "details": "See {IERC721-setApprovalForAll}."
      },
      "supportsInterface(bytes4)": {
        "details": "See {IERC165-supportsInterface}."
      },
      "symbol()": {
        "details": "See {IERC721Metadata-symbol}."
      },
      "tokenURI(uint256)": {
        "details": "See {IERC721Metadata-tokenURI}."
      },
      "transferFrom(address,address,uint256)": {
        "details": "See {IERC721-transferFrom}."
      }
    },
    "version": 1
  },
  "userdoc": {
    "kind": "user",
    "methods": {
      "createToken(uint256,string)": {
        "notice": "create a new token"
      }
    },
    "version": 1
  }
}