{
  "contractName": "nftMarketplace9",
  "abi": [
    {
      "inputs": [],
      "stateMutability": "nonpayable",
      "type": "constructor"
    },
    {
      "anonymous": false,
      "inputs": [
        {
          "indexed": true,
          "internalType": "uint256",
          "name": "marketItemId",
          "type": "uint256"
        }
      ],
      "name": "MarketItemId",
      "type": "event"
    },
    {
      "inputs": [],
      "name": "admin",
      "outputs": [
        {
          "internalType": "address payable",
          "name": "",
          "type": "address"
        }
      ],
      "stateMutability": "view",
      "type": "function"
    },
    {
      "inputs": [
        {
          "internalType": "uint256",
          "name": "",
          "type": "uint256"
        }
      ],
      "name": "allMarketItems",
      "outputs": [
        {
          "internalType": "uint256",
          "name": "marketItemId",
          "type": "uint256"
        },
        {
          "internalType": "uint256",
          "name": "tokenId",
          "type": "uint256"
        },
        {
          "internalType": "uint256",
          "name": "amount",
          "type": "uint256"
        },
        {
          "internalType": "uint256",
          "name": "price",
          "type": "uint256"
        },
        {
          "internalType": "uint256",
          "name": "royalty",
          "type": "uint256"
        },
        {
          "internalType": "address payable",
          "name": "creator",
          "type": "address"
        },
        {
          "internalType": "address payable",
          "name": "seller",
          "type": "address"
        },
        {
          "internalType": "address payable",
          "name": "owner",
          "type": "address"
        },
        {
          "internalType": "address",
          "name": "nftContract",
          "type": "address"
        },
        {
          "internalType": "contract IERC20",
          "name": "token",
          "type": "address"
        }
      ],
      "stateMutability": "view",
      "type": "function"
    },
    {
      "inputs": [
        {
          "internalType": "address",
          "name": "",
          "type": "address"
        },
        {
          "internalType": "address",
          "name": "",
          "type": "address"
        },
        {
          "internalType": "uint256[]",
          "name": "",
          "type": "uint256[]"
        },
        {
          "internalType": "uint256[]",
          "name": "",
          "type": "uint256[]"
        },
        {
          "internalType": "bytes",
          "name": "",
          "type": "bytes"
        }
      ],
      "name": "onERC1155BatchReceived",
      "outputs": [
        {
          "internalType": "bytes4",
          "name": "",
          "type": "bytes4"
        }
      ],
      "stateMutability": "nonpayable",
      "type": "function"
    },
    {
      "inputs": [
        {
          "internalType": "address",
          "name": "",
          "type": "address"
        },
        {
          "internalType": "address",
          "name": "",
          "type": "address"
        },
        {
          "internalType": "uint256",
          "name": "",
          "type": "uint256"
        },
        {
          "internalType": "uint256",
          "name": "",
          "type": "uint256"
        },
        {
          "internalType": "bytes",
          "name": "",
          "type": "bytes"
        }
      ],
      "name": "onERC1155Received",
      "outputs": [
        {
          "internalType": "bytes4",
          "name": "",
          "type": "bytes4"
        }
      ],
      "stateMutability": "nonpayable",
      "type": "function"
    },
    {
      "inputs": [],
      "name": "platformCommission",
      "outputs": [
        {
          "internalType": "uint256",
          "name": "",
          "type": "uint256"
        }
      ],
      "stateMutability": "view",
      "type": "function"
    },
    {
      "inputs": [
        {
          "internalType": "bytes4",
          "name": "interfaceId",
          "type": "bytes4"
        }
      ],
      "name": "supportsInterface",
      "outputs": [
        {
          "internalType": "bool",
          "name": "",
          "type": "bool"
        }
      ],
      "stateMutability": "view",
      "type": "function"
    },
    {
      "inputs": [
        {
          "internalType": "uint256",
          "name": "_platformCommission",
          "type": "uint256"
        }
      ],
      "name": "updatePlatformCommision",
      "outputs": [],
      "stateMutability": "nonpayable",
      "type": "function"
    },
    {
      "inputs": [
        {
          "internalType": "address",
          "name": "_admin",
          "type": "address"
        }
      ],
      "name": "updateAdmin",
      "outputs": [],
      "stateMutability": "nonpayable",
      "type": "function"
    },
    {
      "inputs": [
        {
          "internalType": "address",
          "name": "_nftContract",
          "type": "address"
        },
        {
          "internalType": "uint256",
          "name": "_tokenId",
          "type": "uint256"
        },
        {
          "internalType": "uint256",
          "name": "_price",
          "type": "uint256"
        },
        {
          "internalType": "uint256",
          "name": "_royalty",
          "type": "uint256"
        },
        {
          "internalType": "contract IERC20",
          "name": "token",
          "type": "address"
        }
      ],
      "name": "createMarketItem721WETH",
      "outputs": [],
      "stateMutability": "payable",
      "type": "function"
    },
    {
      "inputs": [
        {
          "internalType": "address",
          "name": "_nftContract",
          "type": "address"
        },
        {
          "internalType": "uint256",
          "name": "_tokenId",
          "type": "uint256"
        },
        {
          "internalType": "uint256",
          "name": "_amount",
          "type": "uint256"
        },
        {
          "internalType": "uint256",
          "name": "_price",
          "type": "uint256"
        },
        {
          "internalType": "uint256",
          "name": "_royalty",
          "type": "uint256"
        },
        {
          "internalType": "contract IERC20",
          "name": "token",
          "type": "address"
        }
      ],
      "name": "createMarketItem1155WETH",
      "outputs": [],
      "stateMutability": "payable",
      "type": "function"
    },
    {
      "inputs": [
        {
          "internalType": "address",
          "name": "_nftContract",
          "type": "address"
        },
        {
          "internalType": "uint256",
          "name": "_marketItemId",
          "type": "uint256"
        }
      ],
      "name": "removeMarketItem721WETH",
      "outputs": [],
      "stateMutability": "payable",
      "type": "function"
    },
    {
      "inputs": [
        {
          "internalType": "address",
          "name": "_nftContract",
          "type": "address"
        },
        {
          "internalType": "uint256",
          "name": "_marketItemId",
          "type": "uint256"
        },
        {
          "internalType": "uint256",
          "name": "_amount",
          "type": "uint256"
        }
      ],
      "name": "removeMarketItem1155WETH",
      "outputs": [],
      "stateMutability": "payable",
      "type": "function"
    },
    {
      "inputs": [
        {
          "internalType": "address",
          "name": "_nftContract",
          "type": "address"
        },
        {
          "internalType": "uint256",
          "name": "_marketItemId",
          "type": "uint256"
        },
        {
          "internalType": "uint256",
          "name": "_price",
          "type": "uint256"
        }
      ],
      "name": "updateMarketItem721WETH",
      "outputs": [],
      "stateMutability": "payable",
      "type": "function"
    },
    {
      "inputs": [
        {
          "internalType": "address",
          "name": "_nftContract",
          "type": "address"
        },
        {
          "internalType": "uint256",
          "name": "_marketItemId",
          "type": "uint256"
        },
        {
          "internalType": "uint256",
          "name": "_price",
          "type": "uint256"
        },
        {
          "internalType": "uint256",
          "name": "_amount",
          "type": "uint256"
        }
      ],
      "name": "updateMarketItem1155WETH",
      "outputs": [],
      "stateMutability": "payable",
      "type": "function"
    },
    {
      "inputs": [
        {
          "internalType": "contract IERC20",
          "name": "_token",
          "type": "address"
        },
        {
          "internalType": "uint256",
          "name": "_amount",
          "type": "uint256"
        },
        {
          "internalType": "address",
          "name": "_nftContract",
          "type": "address"
        },
        {
          "internalType": "uint256",
          "name": "_marketItemId",
          "type": "uint256"
        }
      ],
      "name": "buyMarketItem721WETH",
      "outputs": [],
      "stateMutability": "nonpayable",
      "type": "function"
    },
    {
      "inputs": [
        {
          "internalType": "contract IERC20",
          "name": "_token",
          "type": "address"
        },
        {
          "internalType": "uint256",
          "name": "_amount",
          "type": "uint256"
        },
        {
          "internalType": "address",
          "name": "_nftContract",
          "type": "address"
        },
        {
          "internalType": "uint256",
          "name": "_marketItemId",
          "type": "uint256"
        },
        {
          "internalType": "uint256",
          "name": "amount",
          "type": "uint256"
        }
      ],
      "name": "buyMarketItem1155WETH",
      "outputs": [],
      "stateMutability": "payable",
      "type": "function"
    },
    {
      "inputs": [
        {
          "internalType": "address",
          "name": "_nftContract",
          "type": "address"
        },
        {
          "internalType": "uint256",
          "name": "_marketItemId",
          "type": "uint256"
        },
        {
          "internalType": "address",
          "name": "_to",
          "type": "address"
        }
      ],
      "name": "transfer721",
      "outputs": [],
      "stateMutability": "payable",
      "type": "function"
    },
    {
      "inputs": [
        {
          "internalType": "address",
          "name": "_nftContract",
          "type": "address"
        },
        {
          "internalType": "uint256",
          "name": "_marketItemId",
          "type": "uint256"
        },
        {
          "internalType": "address",
          "name": "_to",
          "type": "address"
        },
        {
          "internalType": "uint256",
          "name": "_amount",
          "type": "uint256"
        }
      ],
      "name": "transfer1155",
      "outputs": [],
      "stateMutability": "payable",
      "type": "function"
    },
    {
      "inputs": [
        {
          "internalType": "address",
          "name": "_nftContract",
          "type": "address"
        },
        {
          "internalType": "uint256",
          "name": "_marketItemId",
          "type": "uint256"
        },
        {
          "internalType": "uint256",
          "name": "_price",
          "type": "uint256"
        }
      ],
      "name": "secondary721saleWETH",
      "outputs": [],
      "stateMutability": "payable",
      "type": "function"
    },
    {
      "inputs": [
        {
          "internalType": "address",
          "name": "_nftContract",
          "type": "address"
        },
        {
          "internalType": "uint256",
          "name": "_marketItemId",
          "type": "uint256"
        },
        {
          "internalType": "uint256",
          "name": "_amount",
          "type": "uint256"
        },
        {
          "internalType": "uint256",
          "name": "_price",
          "type": "uint256"
        }
      ],
      "name": "secondary1155saleWETH",
      "outputs": [],
      "stateMutability": "payable",
      "type": "function"
    },
    {
      "inputs": [
        {
          "internalType": "uint256",
          "name": "_amount",
          "type": "uint256"
        },
        {
          "internalType": "address",
          "name": "_nftContract",
          "type": "address"
        },
        {
          "internalType": "uint256",
          "name": "_marketItemId",
          "type": "uint256"
        }
      ],
      "name": "secondary721buyWETH",
      "outputs": [],
      "stateMutability": "payable",
      "type": "function"
    },
    {
      "inputs": [
        {
          "internalType": "uint256",
          "name": "amount",
          "type": "uint256"
        },
        {
          "internalType": "address",
          "name": "_nftContract",
          "type": "address"
        },
        {
          "internalType": "uint256",
          "name": "_marketItemId",
          "type": "uint256"
        },
        {
          "internalType": "uint256",
          "name": "_amount",
          "type": "uint256"
        }
      ],
      "name": "secondary1155buyWETH",
      "outputs": [],
      "stateMutability": "payable",
      "type": "function"
    },
    {
      "inputs": [
        {
          "internalType": "uint256",
          "name": "marketItemId",
          "type": "uint256"
        }
      ],
      "name": "fetchMarketItem",
      "outputs": [
        {
          "components": [
            {
              "internalType": "uint256",
              "name": "marketItemId",
              "type": "uint256"
            },
            {
              "internalType": "uint256",
              "name": "tokenId",
              "type": "uint256"
            },
            {
              "internalType": "uint256",
              "name": "amount",
              "type": "uint256"
            },
            {
              "internalType": "uint256",
              "name": "price",
              "type": "uint256"
            },
            {
              "internalType": "uint256",
              "name": "royalty",
              "type": "uint256"
            },
            {
              "internalType": "address payable",
              "name": "creator",
              "type": "address"
            },
            {
              "internalType": "address payable",
              "name": "seller",
              "type": "address"
            },
            {
              "internalType": "address payable",
              "name": "owner",
              "type": "address"
            },
            {
              "internalType": "address",
              "name": "nftContract",
              "type": "address"
            },
            {
              "internalType": "contract IERC20",
              "name": "token",
              "type": "address"
            }
          ],
          "internalType": "struct nftMarketplace9.MarketItem",
          "name": "",
          "type": "tuple"
        }
      ],
      "stateMutability": "view",
      "type": "function"
    },
    {
      "inputs": [],
      "name": "fetchAllMarketItems",
      "outputs": [
        {
          "components": [
            {
              "internalType": "uint256",
              "name": "marketItemId",
              "type": "uint256"
            },
            {
              "internalType": "uint256",
              "name": "tokenId",
              "type": "uint256"
            },
            {
              "internalType": "uint256",
              "name": "amount",
              "type": "uint256"
            },
            {
              "internalType": "uint256",
              "name": "price",
              "type": "uint256"
            },
            {
              "internalType": "uint256",
              "name": "royalty",
              "type": "uint256"
            },
            {
              "internalType": "address payable",
              "name": "creator",
              "type": "address"
            },
            {
              "internalType": "address payable",
              "name": "seller",
              "type": "address"
            },
            {
              "internalType": "address payable",
              "name": "owner",
              "type": "address"
            },
            {
              "internalType": "address",
              "name": "nftContract",
              "type": "address"
            },
            {
              "internalType": "contract IERC20",
              "name": "token",
              "type": "address"
            }
          ],
          "internalType": "struct nftMarketplace9.MarketItem[]",
          "name": "",
          "type": "tuple[]"
        }
      ],
      "stateMutability": "view",
      "type": "function"
    },
    {
      "inputs": [],
      "name": "fetchMyNFTs",
      "outputs": [
        {
          "components": [
            {
              "internalType": "uint256",
              "name": "marketItemId",
              "type": "uint256"
            },
            {
              "internalType": "uint256",
              "name": "tokenId",
              "type": "uint256"
            },
            {
              "internalType": "uint256",
              "name": "amount",
              "type": "uint256"
            },
            {
              "internalType": "uint256",
              "name": "price",
              "type": "uint256"
            },
            {
              "internalType": "uint256",
              "name": "royalty",
              "type": "uint256"
            },
            {
              "internalType": "address payable",
              "name": "creator",
              "type": "address"
            },
            {
              "internalType": "address payable",
              "name": "seller",
              "type": "address"
            },
            {
              "internalType": "address payable",
              "name": "owner",
              "type": "address"
            },
            {
              "internalType": "address",
              "name": "nftContract",
              "type": "address"
            },
            {
              "internalType": "contract IERC20",
              "name": "token",
              "type": "address"
            }
          ],
          "internalType": "struct nftMarketplace9.MarketItem[]",
          "name": "",
          "type": "tuple[]"
        }
      ],
      "stateMutability": "view",
      "type": "function"
    },
    {
      "inputs": [],
      "name": "fetchItemsCreated",
      "outputs": [
        {
          "components": [
            {
              "internalType": "uint256",
              "name": "marketItemId",
              "type": "uint256"
            },
            {
              "internalType": "uint256",
              "name": "tokenId",
              "type": "uint256"
            },
            {
              "internalType": "uint256",
              "name": "amount",
              "type": "uint256"
            },
            {
              "internalType": "uint256",
              "name": "price",
              "type": "uint256"
            },
            {
              "internalType": "uint256",
              "name": "royalty",
              "type": "uint256"
            },
            {
              "internalType": "address payable",
              "name": "creator",
              "type": "address"
            },
            {
              "internalType": "address payable",
              "name": "seller",
              "type": "address"
            },
            {
              "internalType": "address payable",
              "name": "owner",
              "type": "address"
            },
            {
              "internalType": "address",
              "name": "nftContract",
              "type": "address"
            },
            {
              "internalType": "contract IERC20",
              "name": "token",
              "type": "address"
            }
          ],
          "internalType": "struct nftMarketplace9.MarketItem[]",
          "name": "",
          "type": "tuple[]"
        }
      ],
      "stateMutability": "view",
      "type": "function"
    }
  ],
  "bytecode": "0x608060405234801561001057600080fd5b50600160008190555033600360006101000a81548173ffffffffffffffffffffffffffffffffffffffff021916908373ffffffffffffffffffffffffffffffffffffffff1602179055506002600581905550615e5280620000726000396000f3fe6080604052600436106101815760003560e01c8063bd7bea3b116100d1578063e2f273bd1161008a578063f5687b7511610064578063f5687b75146104f2578063f851a4401461050e578063fedd23c914610539578063fff25ffe1461056257610181565b8063e2f273bd14610461578063f064c32e1461048a578063f23a6e61146104b557610181565b8063bd7bea3b1461039d578063cb8dee10146103c6578063d9821083146103e2578063d9dd33d2146103fe578063dfb6452b1461041a578063e2b081741461044557610181565b80635c44b9921161013e5780638d659f11116101185780638d659f11146102e25780639fc963d1146102fe578063a4e1161914610344578063bc197c811461036057610181565b80635c44b9921461027f5780636317f9151461029b578063694e91b8146102b757610181565b806301ffc9a71461018657806305b451e6146101c35780631d472984146101df578063202e3740146101fb5780632a45b25014610226578063386be42c14610263575b600080fd5b34801561019257600080fd5b506101ad60048036038101906101a89190614dc9565b61057e565b6040516101ba91906154fa565b60405180910390f35b6101dd60048036038101906101d89190614bee565b6105f8565b005b6101f960048036038101906101f49190614bee565b6108ae565b005b34801561020757600080fd5b50610210610b94565b60405161021d91906154d8565b60405180910390f35b34801561023257600080fd5b5061024d60048036038101906102489190614ecc565b610fd4565b60405161025a9190615670565b60405180910390f35b61027d60048036038101906102789190614e55565b6111e2565b005b61029960048036038101906102949190614c3d565b611419565b005b6102b560048036038101906102b09190614bee565b6116a3565b005b3480156102c357600080fd5b506102cc61192a565b6040516102d9919061568c565b60405180910390f35b6102fc60048036038101906102f79190614b8b565b611930565b005b34801561030a57600080fd5b5061032560048036038101906103209190614ecc565b611ba3565b60405161033b9a999897969594939291906156a7565b60405180910390f35b61035e60048036038101906103599190614b00565b611c97565b005b34801561036c57600080fd5b50610387600480360381019061038291906149b2565b611f7a565b6040516103949190615515565b60405180910390f35b3480156103a957600080fd5b506103c460048036038101906103bf9190614df2565b611f8f565b005b6103e060048036038101906103db9190614d17565b6121c3565b005b6103fc60048036038101906103f79190614c3d565b61257d565b005b61041860048036038101906104139190614f44565b612836565b005b34801561042657600080fd5b5061042f612b03565b60405161043c91906154d8565b60405180910390f35b61045f600480360381019061045a9190614b3c565b612f81565b005b34801561046d57600080fd5b5061048860048036038101906104839190614989565b6131f1565b005b34801561049657600080fd5b5061049f6132c5565b6040516104ac91906154d8565b60405180910390f35b3480156104c157600080fd5b506104dc60048036038101906104d79190614a71565b61389b565b6040516104e99190615515565b60405180910390f35b61050c60048036038101906105079190614ca0565b6138b0565b005b34801561051a57600080fd5b50610523613c68565b60405161053091906153dc565b60405180910390f35b34801561054557600080fd5b50610560600480360381019061055b9190614ecc565b613c8e565b005b61057c60048036038101906105779190614ef5565b613d28565b005b60007f4e2312e0000000000000000000000000000000000000000000000000000000007bffffffffffffffffffffffffffffffffffffffffffffffffffffffff1916827bffffffffffffffffffffffffffffffffffffffffffffffffffffffff191614806105f157506105f082613ff2565b5b9050919050565b6002600054141561063e576040517f08c379a000000000000000000000000000000000000000000000000000000000815260040161063590615610565b60405180910390fd5b60026000819055506006600083815260200190815260200160002060060160009054906101000a900473ffffffffffffffffffffffffffffffffffffffff1673ffffffffffffffffffffffffffffffffffffffff163373ffffffffffffffffffffffffffffffffffffffff16146106b457600080fd5b6006600083815260200190815260200160002060070160009054906101000a900473ffffffffffffffffffffffffffffffffffffffff1673ffffffffffffffffffffffffffffffffffffffff163373ffffffffffffffffffffffffffffffffffffffff161461072257600080fd5b60008111610765576040517f08c379a000000000000000000000000000000000000000000000000000000000815260040161075c906155b0565b60405180910390fd5b8060066000848152602001908152602001600020600301819055506000600660008481526020019081526020016000206001015490506000600460008673ffffffffffffffffffffffffffffffffffffffff1673ffffffffffffffffffffffffffffffffffffffff168152602001908152602001600020600083815260200190815260200160002060006101000a81548160ff0219169083151502179055508373ffffffffffffffffffffffffffffffffffffffff166323b872dd3330846040518463ffffffff1660e01b815260040161084193929190615420565b600060405180830381600087803b15801561085b57600080fd5b505af115801561086f573d6000803e3d6000fd5b50505050827f035875e77974ebd026dc933493d995de7caf0d3cbdbf9a8ee2e2e5229395d9ed60405160405180910390a2506001600081905550505050565b600260005414156108f4576040517f08c379a00000000000000000000000000000000000000000000000000000000081526004016108eb90615610565b60405180910390fd5b60026000819055506006600083815260200190815260200160002060060160009054906101000a900473ffffffffffffffffffffffffffffffffffffffff1673ffffffffffffffffffffffffffffffffffffffff163373ffffffffffffffffffffffffffffffffffffffff16146109a0576040517f08c379a000000000000000000000000000000000000000000000000000000000815260040161099790615550565b60405180910390fd5b600073ffffffffffffffffffffffffffffffffffffffff166006600084815260200190815260200160002060070160009054906101000a900473ffffffffffffffffffffffffffffffffffffffff1673ffffffffffffffffffffffffffffffffffffffff1614610a0f57600080fd5b336006600084815260200190815260200160002060070160006101000a81548173ffffffffffffffffffffffffffffffffffffffff021916908373ffffffffffffffffffffffffffffffffffffffff1602179055506000600660008481526020019081526020016000206001015490506001600460008673ffffffffffffffffffffffffffffffffffffffff1673ffffffffffffffffffffffffffffffffffffffff168152602001908152602001600020600083815260200190815260200160002060006101000a81548160ff0219169083151502179055508373ffffffffffffffffffffffffffffffffffffffff1663f242432a303384866040518563ffffffff1660e01b8152600401610b279493929190615457565b600060405180830381600087803b158015610b4157600080fd5b505af1158015610b55573d6000803e3d6000fd5b50505050827f035875e77974ebd026dc933493d995de7caf0d3cbdbf9a8ee2e2e5229395d9ed60405160405180910390a2506001600081905550505050565b60606000610ba2600161405c565b905060008060005b83811015610c4b573373ffffffffffffffffffffffffffffffffffffffff1660066000600184610bda9190615820565b815260200190815260200160002060070160009054906101000a900473ffffffffffffffffffffffffffffffffffffffff1673ffffffffffffffffffffffffffffffffffffffff161415610c3857600183610c359190615820565b92505b8080610c4390615a67565b915050610baa565b5060008267ffffffffffffffff811115610c8e577f4e487b7100000000000000000000000000000000000000000000000000000000600052604160045260246000fd5b604051908082528060200260200182016040528015610cc757816020015b610cb4614761565b815260200190600190039081610cac5790505b50905060005b84811015610fc9573373ffffffffffffffffffffffffffffffffffffffff1660066000600184610cfd9190615820565b815260200190815260200160002060070160009054906101000a900473ffffffffffffffffffffffffffffffffffffffff1673ffffffffffffffffffffffffffffffffffffffff161415610fb6576000600182610d5a9190615820565b90506000600660008381526020019081526020016000209050806040518061014001604052908160008201548152602001600182015481526020016002820154815260200160038201548152602001600482015481526020016005820160009054906101000a900473ffffffffffffffffffffffffffffffffffffffff1673ffffffffffffffffffffffffffffffffffffffff1673ffffffffffffffffffffffffffffffffffffffff1681526020016006820160009054906101000a900473ffffffffffffffffffffffffffffffffffffffff1673ffffffffffffffffffffffffffffffffffffffff1673ffffffffffffffffffffffffffffffffffffffff1681526020016007820160009054906101000a900473ffffffffffffffffffffffffffffffffffffffff1673ffffffffffffffffffffffffffffffffffffffff1673ffffffffffffffffffffffffffffffffffffffff1681526020016008820160009054906101000a900473ffffffffffffffffffffffffffffffffffffffff1673ffffffffffffffffffffffffffffffffffffffff1673ffffffffffffffffffffffffffffffffffffffff1681526020016009820160009054906101000a900473ffffffffffffffffffffffffffffffffffffffff1673ffffffffffffffffffffffffffffffffffffffff1673ffffffffffffffffffffffffffffffffffffffff1681525050848681518110610f99577f4e487b7100000000000000000000000000000000000000000000000000000000600052603260045260246000fd5b6020026020010181905250600185610fb19190615820565b945050505b8080610fc190615a67565b915050610ccd565b508094505050505090565b610fdc614761565b600660008381526020019081526020016000206040518061014001604052908160008201548152602001600182015481526020016002820154815260200160038201548152602001600482015481526020016005820160009054906101000a900473ffffffffffffffffffffffffffffffffffffffff1673ffffffffffffffffffffffffffffffffffffffff1673ffffffffffffffffffffffffffffffffffffffff1681526020016006820160009054906101000a900473ffffffffffffffffffffffffffffffffffffffff1673ffffffffffffffffffffffffffffffffffffffff1673ffffffffffffffffffffffffffffffffffffffff1681526020016007820160009054906101000a900473ffffffffffffffffffffffffffffffffffffffff1673ffffffffffffffffffffffffffffffffffffffff1673ffffffffffffffffffffffffffffffffffffffff1681526020016008820160009054906101000a900473ffffffffffffffffffffffffffffffffffffffff1673ffffffffffffffffffffffffffffffffffffffff1673ffffffffffffffffffffffffffffffffffffffff1681526020016009820160009054906101000a900473ffffffffffffffffffffffffffffffffffffffff1673ffffffffffffffffffffffffffffffffffffffff1673ffffffffffffffffffffffffffffffffffffffff16815250509050919050565b60026000541415611228576040517f08c379a000000000000000000000000000000000000000000000000000000000815260040161121f90615610565b60405180910390fd5b60026000819055506006600083815260200190815260200160002060050160009054906101000a900473ffffffffffffffffffffffffffffffffffffffff1673ffffffffffffffffffffffffffffffffffffffff163373ffffffffffffffffffffffffffffffffffffffff1614156112d5576040517f08c379a00000000000000000000000000000000000000000000000000000000081526004016112cc90615650565b60405180910390fd5b6006600083815260200190815260200160002060030154841461132d576040517f08c379a000000000000000000000000000000000000000000000000000000000815260040161132490615570565b60405180910390fd5b600073ffffffffffffffffffffffffffffffffffffffff168573ffffffffffffffffffffffffffffffffffffffff16141561136757600080fd5b6113733386868561406a565b6000600660008481526020019081526020016000206001015490508373ffffffffffffffffffffffffffffffffffffffff1663f242432a303384866040518563ffffffff1660e01b81526004016113cd9493929190615457565b600060405180830381600087803b1580156113e757600080fd5b505af11580156113fb573d6000803e3d6000fd5b5050505061140960026143c3565b5060016000819055505050505050565b6002600054141561145f576040517f08c379a000000000000000000000000000000000000000000000000000000000815260040161145690615610565b60405180910390fd5b60026000819055506006600084815260200190815260200160002060070160009054906101000a900473ffffffffffffffffffffffffffffffffffffffff1673ffffffffffffffffffffffffffffffffffffffff163373ffffffffffffffffffffffffffffffffffffffff161461150b576040517f08c379a0000000000000000000000000000000000000000000000000000000008152600401611502906155f0565b60405180910390fd5b80600660008581526020019081526020016000206003018190555060006006600085815260200190815260200160002060010154905060006006600086815260200190815260200160002060070160006101000a81548173ffffffffffffffffffffffffffffffffffffffff021916908373ffffffffffffffffffffffffffffffffffffffff1602179055508473ffffffffffffffffffffffffffffffffffffffff1663f242432a333084876040518563ffffffff1660e01b81526004016115d69493929190615457565b600060405180830381600087803b1580156115f057600080fd5b505af1158015611604573d6000803e3d6000fd5b5050505061161260026143d9565b336006600086815260200190815260200160002060060160006101000a81548173ffffffffffffffffffffffffffffffffffffffff021916908373ffffffffffffffffffffffffffffffffffffffff160217905550837f035875e77974ebd026dc933493d995de7caf0d3cbdbf9a8ee2e2e5229395d9ed60405160405180910390a250600160008190555050505050565b600260005414156116e9576040517f08c379a00000000000000000000000000000000000000000000000000000000081526004016116e090615610565b60405180910390fd5b60026000819055506006600083815260200190815260200160002060070160009054906101000a900473ffffffffffffffffffffffffffffffffffffffff1673ffffffffffffffffffffffffffffffffffffffff163373ffffffffffffffffffffffffffffffffffffffff1614611795576040517f08c379a000000000000000000000000000000000000000000000000000000000815260040161178c906155f0565b60405180910390fd5b80600660008481526020019081526020016000206003018190555060006006600084815260200190815260200160002060010154905060006006600085815260200190815260200160002060070160006101000a81548173ffffffffffffffffffffffffffffffffffffffff021916908373ffffffffffffffffffffffffffffffffffffffff1602179055508373ffffffffffffffffffffffffffffffffffffffff166323b872dd3330846040518463ffffffff1660e01b815260040161185e93929190615420565b600060405180830381600087803b15801561187857600080fd5b505af115801561188c573d6000803e3d6000fd5b5050505061189a60026143d9565b336006600085815260200190815260200160002060060160006101000a81548173ffffffffffffffffffffffffffffffffffffffff021916908373ffffffffffffffffffffffffffffffffffffffff160217905550827f035875e77974ebd026dc933493d995de7caf0d3cbdbf9a8ee2e2e5229395d9ed60405160405180910390a2506001600081905550505050565b60055481565b60026000541415611976576040517f08c379a000000000000000000000000000000000000000000000000000000000815260040161196d90615610565b60405180910390fd5b60026000819055506006600084815260200190815260200160002060070160009054906101000a900473ffffffffffffffffffffffffffffffffffffffff1673ffffffffffffffffffffffffffffffffffffffff163373ffffffffffffffffffffffffffffffffffffffff1614611a22576040517f08c379a0000000000000000000000000000000000000000000000000000000008152600401611a19906155f0565b60405180910390fd5b60006006600085815260200190815260200160002060010154905060006006600086815260200190815260200160002060070160009054906101000a900473ffffffffffffffffffffffffffffffffffffffff1690508573ffffffffffffffffffffffffffffffffffffffff1663f242432a828685876040518563ffffffff1660e01b8152600401611ab79493929190615457565b600060405180830381600087803b158015611ad157600080fd5b505af1158015611ae5573d6000803e3d6000fd5b50505050806006600087815260200190815260200160002060060160006101000a81548173ffffffffffffffffffffffffffffffffffffffff021916908373ffffffffffffffffffffffffffffffffffffffff160217905550836006600087815260200190815260200160002060070160006101000a81548173ffffffffffffffffffffffffffffffffffffffff021916908373ffffffffffffffffffffffffffffffffffffffff1602179055505050600160008190555050505050565b60066020528060005260406000206000915090508060000154908060010154908060020154908060030154908060040154908060050160009054906101000a900473ffffffffffffffffffffffffffffffffffffffff16908060060160009054906101000a900473ffffffffffffffffffffffffffffffffffffffff16908060070160009054906101000a900473ffffffffffffffffffffffffffffffffffffffff16908060080160009054906101000a900473ffffffffffffffffffffffffffffffffffffffff16908060090160009054906101000a900473ffffffffffffffffffffffffffffffffffffffff1690508a565b60026000541415611cdd576040517f08c379a0000000000000000000000000000000000000000000000000000000008152600401611cd490615610565b60405180910390fd5b60026000819055506006600082815260200190815260200160002060060160009054906101000a900473ffffffffffffffffffffffffffffffffffffffff1673ffffffffffffffffffffffffffffffffffffffff163373ffffffffffffffffffffffffffffffffffffffff1614611d89576040517f08c379a0000000000000000000000000000000000000000000000000000000008152600401611d8090615550565b60405180910390fd5b600073ffffffffffffffffffffffffffffffffffffffff166006600083815260200190815260200160002060070160009054906101000a900473ffffffffffffffffffffffffffffffffffffffff1673ffffffffffffffffffffffffffffffffffffffff1614611df857600080fd5b336006600083815260200190815260200160002060070160006101000a81548173ffffffffffffffffffffffffffffffffffffffff021916908373ffffffffffffffffffffffffffffffffffffffff1602179055506000600660008381526020019081526020016000206001015490506001600460008573ffffffffffffffffffffffffffffffffffffffff1673ffffffffffffffffffffffffffffffffffffffff168152602001908152602001600020600083815260200190815260200160002060006101000a81548160ff0219169083151502179055508273ffffffffffffffffffffffffffffffffffffffff166323b872dd3033846040518463ffffffff1660e01b8152600401611f0e93929190615420565b600060405180830381600087803b158015611f2857600080fd5b505af1158015611f3c573d6000803e3d6000fd5b50505050817f035875e77974ebd026dc933493d995de7caf0d3cbdbf9a8ee2e2e5229395d9ed60405160405180910390a25060016000819055505050565b600063bc197c8160e01b905095945050505050565b60026000541415611fd5576040517f08c379a0000000000000000000000000000000000000000000000000000000008152600401611fcc90615610565b60405180910390fd5b60026000819055506006600082815260200190815260200160002060050160009054906101000a900473ffffffffffffffffffffffffffffffffffffffff1673ffffffffffffffffffffffffffffffffffffffff163373ffffffffffffffffffffffffffffffffffffffff161415612082576040517f08c379a000000000000000000000000000000000000000000000000000000000815260040161207990615650565b60405180910390fd5b600660008281526020019081526020016000206003015483146120da576040517f08c379a00000000000000000000000000000000000000000000000000000000081526004016120d190615570565b60405180910390fd5b600073ffffffffffffffffffffffffffffffffffffffff168473ffffffffffffffffffffffffffffffffffffffff16141561211457600080fd5b6121203385858461406a565b6000600660008381526020019081526020016000206001015490508273ffffffffffffffffffffffffffffffffffffffff166323b872dd3033846040518463ffffffff1660e01b815260040161217893929190615420565b600060405180830381600087803b15801561219257600080fd5b505af11580156121a6573d6000803e3d6000fd5b505050506121b460026143c3565b50600160008190555050505050565b60026000541415612209576040517f08c379a000000000000000000000000000000000000000000000000000000000815260040161220090615610565b60405180910390fd5b600260008190555060008311612254576040517f08c379a000000000000000000000000000000000000000000000000000000000815260040161224b906155b0565b60405180910390fd5b61225e60016143c3565b600061226a600161405c565b90506040518061014001604052808281526020018781526020018681526020018581526020018481526020013373ffffffffffffffffffffffffffffffffffffffff1681526020013373ffffffffffffffffffffffffffffffffffffffff168152602001600073ffffffffffffffffffffffffffffffffffffffff1681526020018873ffffffffffffffffffffffffffffffffffffffff1681526020018373ffffffffffffffffffffffffffffffffffffffff1681525060066000838152602001908152602001600020600082015181600001556020820151816001015560408201518160020155606082015181600301556080820151816004015560a08201518160050160006101000a81548173ffffffffffffffffffffffffffffffffffffffff021916908373ffffffffffffffffffffffffffffffffffffffff16021790555060c08201518160060160006101000a81548173ffffffffffffffffffffffffffffffffffffffff021916908373ffffffffffffffffffffffffffffffffffffffff16021790555060e08201518160070160006101000a81548173ffffffffffffffffffffffffffffffffffffffff021916908373ffffffffffffffffffffffffffffffffffffffff1602179055506101008201518160080160006101000a81548173ffffffffffffffffffffffffffffffffffffffff021916908373ffffffffffffffffffffffffffffffffffffffff1602179055506101208201518160090160006101000a81548173ffffffffffffffffffffffffffffffffffffffff021916908373ffffffffffffffffffffffffffffffffffffffff1602179055509050508673ffffffffffffffffffffffffffffffffffffffff1663f242432a333089896040518563ffffffff1660e01b815260040161250d9493929190615457565b600060405180830381600087803b15801561252757600080fd5b505af115801561253b573d6000803e3d6000fd5b50505050807f035875e77974ebd026dc933493d995de7caf0d3cbdbf9a8ee2e2e5229395d9ed60405160405180910390a2506001600081905550505050505050565b600260005414156125c3576040517f08c379a00000000000000000000000000000000000000000000000000000000081526004016125ba90615610565b60405180910390fd5b60026000819055506006600084815260200190815260200160002060060160009054906101000a900473ffffffffffffffffffffffffffffffffffffffff1673ffffffffffffffffffffffffffffffffffffffff163373ffffffffffffffffffffffffffffffffffffffff161461263957600080fd5b6006600084815260200190815260200160002060070160009054906101000a900473ffffffffffffffffffffffffffffffffffffffff1673ffffffffffffffffffffffffffffffffffffffff163373ffffffffffffffffffffffffffffffffffffffff16146126a757600080fd5b600082116126ea576040517f08c379a00000000000000000000000000000000000000000000000000000000081526004016126e1906155b0565b60405180910390fd5b6000600660008581526020019081526020016000206001015490506000600460008773ffffffffffffffffffffffffffffffffffffffff1673ffffffffffffffffffffffffffffffffffffffff168152602001908152602001600020600083815260200190815260200160002060006101000a81548160ff0219169083151502179055508260066000868152602001908152602001600020600301819055508473ffffffffffffffffffffffffffffffffffffffff1663f242432a333084866040518563ffffffff1660e01b81526004016127c89493929190615457565b600060405180830381600087803b1580156127e257600080fd5b505af11580156127f6573d6000803e3d6000fd5b50505050837f035875e77974ebd026dc933493d995de7caf0d3cbdbf9a8ee2e2e5229395d9ed60405160405180910390a250600160008190555050505050565b6002600054141561287c576040517f08c379a000000000000000000000000000000000000000000000000000000000815260040161287390615610565b60405180910390fd5b60026000819055506006600083815260200190815260200160002060050160009054906101000a900473ffffffffffffffffffffffffffffffffffffffff1673ffffffffffffffffffffffffffffffffffffffff163373ffffffffffffffffffffffffffffffffffffffff161415612929576040517f08c379a000000000000000000000000000000000000000000000000000000000815260040161292090615650565b60405180910390fd5b6006600083815260200190815260200160002060060160009054906101000a900473ffffffffffffffffffffffffffffffffffffffff1673ffffffffffffffffffffffffffffffffffffffff163373ffffffffffffffffffffffffffffffffffffffff1614156129ce576040517f08c379a00000000000000000000000000000000000000000000000000000000081526004016129c590615630565b60405180910390fd5b60066000838152602001908152602001600020600301548414612a26576040517f08c379a0000000000000000000000000000000000000000000000000000000008152600401612a1d90615570565b60405180910390fd5b612a31338584614435565b6000600660008481526020019081526020016000206001015490508373ffffffffffffffffffffffffffffffffffffffff1663f242432a303384866040518563ffffffff1660e01b8152600401612a8b9493929190615457565b600060405180830381600087803b158015612aa557600080fd5b505af1158015612ab9573d6000803e3d6000fd5b50505050612ac760026143c3565b827f035875e77974ebd026dc933493d995de7caf0d3cbdbf9a8ee2e2e5229395d9ed60405160405180910390a250600160008190555050505050565b60606000612b11600161405c565b90506000612b1f600261405c565b82612b2a9190615901565b90506000808267ffffffffffffffff811115612b6f577f4e487b7100000000000000000000000000000000000000000000000000000000600052604160045260246000fd5b604051908082528060200260200182016040528015612ba857816020015b612b95614761565b815260200190600190039081612b8d5790505b50905060005b84811015612f7657600073ffffffffffffffffffffffffffffffffffffffff1660066000600184612bdf9190615820565b815260200190815260200160002060070160009054906101000a900473ffffffffffffffffffffffffffffffffffffffff1673ffffffffffffffffffffffffffffffffffffffff16148015612cf357506004600060066000600185612c449190615820565b815260200190815260200160002060080160009054906101000a900473ffffffffffffffffffffffffffffffffffffffff1673ffffffffffffffffffffffffffffffffffffffff1673ffffffffffffffffffffffffffffffffffffffff168152602001908152602001600020600060066000600185612cc39190615820565b815260200190815260200160002060010154815260200190815260200160002060009054906101000a900460ff16155b15612f63576000600182612d079190615820565b90506000600660008381526020019081526020016000209050806040518061014001604052908160008201548152602001600182015481526020016002820154815260200160038201548152602001600482015481526020016005820160009054906101000a900473ffffffffffffffffffffffffffffffffffffffff1673ffffffffffffffffffffffffffffffffffffffff1673ffffffffffffffffffffffffffffffffffffffff1681526020016006820160009054906101000a900473ffffffffffffffffffffffffffffffffffffffff1673ffffffffffffffffffffffffffffffffffffffff1673ffffffffffffffffffffffffffffffffffffffff1681526020016007820160009054906101000a900473ffffffffffffffffffffffffffffffffffffffff1673ffffffffffffffffffffffffffffffffffffffff1673ffffffffffffffffffffffffffffffffffffffff1681526020016008820160009054906101000a900473ffffffffffffffffffffffffffffffffffffffff1673ffffffffffffffffffffffffffffffffffffffff1673ffffffffffffffffffffffffffffffffffffffff1681526020016009820160009054906101000a900473ffffffffffffffffffffffffffffffffffffffff1673ffffffffffffffffffffffffffffffffffffffff1673ffffffffffffffffffffffffffffffffffffffff1681525050848681518110612f46577f4e487b7100000000000000000000000000000000000000000000000000000000600052603260045260246000fd5b6020026020010181905250600185612f5e9190615820565b945050505b8080612f6e90615a67565b915050612bae565b508094505050505090565b60026000541415612fc7576040517f08c379a0000000000000000000000000000000000000000000000000000000008152600401612fbe90615610565b60405180910390fd5b60026000819055506006600083815260200190815260200160002060070160009054906101000a900473ffffffffffffffffffffffffffffffffffffffff1673ffffffffffffffffffffffffffffffffffffffff163373ffffffffffffffffffffffffffffffffffffffff1614613073576040517f08c379a000000000000000000000000000000000000000000000000000000000815260040161306a906155f0565b60405180910390fd5b60006006600084815260200190815260200160002060010154905060006006600085815260200190815260200160002060070160009054906101000a900473ffffffffffffffffffffffffffffffffffffffff1690508473ffffffffffffffffffffffffffffffffffffffff166323b872dd8285856040518463ffffffff1660e01b815260040161310693929190615420565b600060405180830381600087803b15801561312057600080fd5b505af1158015613134573d6000803e3d6000fd5b50505050806006600086815260200190815260200160002060060160006101000a81548173ffffffffffffffffffffffffffffffffffffffff021916908373ffffffffffffffffffffffffffffffffffffffff160217905550826006600086815260200190815260200160002060070160006101000a81548173ffffffffffffffffffffffffffffffffffffffff021916908373ffffffffffffffffffffffffffffffffffffffff16021790555050506001600081905550505050565b600360009054906101000a900473ffffffffffffffffffffffffffffffffffffffff1673ffffffffffffffffffffffffffffffffffffffff163373ffffffffffffffffffffffffffffffffffffffff1614613281576040517f08c379a000000000000000000000000000000000000000000000000000000000815260040161327890615590565b60405180910390fd5b80600360006101000a81548173ffffffffffffffffffffffffffffffffffffffff021916908373ffffffffffffffffffffffffffffffffffffffff16021790555050565b606060006132d3600161405c565b905060008060005b83811015613447573373ffffffffffffffffffffffffffffffffffffffff166006600060018461330b9190615820565b815260200190815260200160002060060160009054906101000a900473ffffffffffffffffffffffffffffffffffffffff1673ffffffffffffffffffffffffffffffffffffffff1614801561341f575060046000600660006001856133709190615820565b815260200190815260200160002060080160009054906101000a900473ffffffffffffffffffffffffffffffffffffffff1673ffffffffffffffffffffffffffffffffffffffff1673ffffffffffffffffffffffffffffffffffffffff1681526020019081526020016000206000600660006001856133ef9190615820565b815260200190815260200160002060010154815260200190815260200160002060009054906101000a900460ff16155b15613434576001836134319190615820565b92505b808061343f90615a67565b9150506132db565b5060008267ffffffffffffffff81111561348a577f4e487b7100000000000000000000000000000000000000000000000000000000600052604160045260246000fd5b6040519080825280602002602001820160405280156134c357816020015b6134b0614761565b8152602001906001900390816134a85790505b50905060005b84811015613890573373ffffffffffffffffffffffffffffffffffffffff16600660006001846134f99190615820565b815260200190815260200160002060060160009054906101000a900473ffffffffffffffffffffffffffffffffffffffff1673ffffffffffffffffffffffffffffffffffffffff1614801561360d5750600460006006600060018561355e9190615820565b815260200190815260200160002060080160009054906101000a900473ffffffffffffffffffffffffffffffffffffffff1673ffffffffffffffffffffffffffffffffffffffff1673ffffffffffffffffffffffffffffffffffffffff1681526020019081526020016000206000600660006001856135dd9190615820565b815260200190815260200160002060010154815260200190815260200160002060009054906101000a900460ff16155b1561387d5760006001826136219190615820565b90506000600660008381526020019081526020016000209050806040518061014001604052908160008201548152602001600182015481526020016002820154815260200160038201548152602001600482015481526020016005820160009054906101000a900473ffffffffffffffffffffffffffffffffffffffff1673ffffffffffffffffffffffffffffffffffffffff1673ffffffffffffffffffffffffffffffffffffffff1681526020016006820160009054906101000a900473ffffffffffffffffffffffffffffffffffffffff1673ffffffffffffffffffffffffffffffffffffffff1673ffffffffffffffffffffffffffffffffffffffff1681526020016007820160009054906101000a900473ffffffffffffffffffffffffffffffffffffffff1673ffffffffffffffffffffffffffffffffffffffff1673ffffffffffffffffffffffffffffffffffffffff1681526020016008820160009054906101000a900473ffffffffffffffffffffffffffffffffffffffff1673ffffffffffffffffffffffffffffffffffffffff1673ffffffffffffffffffffffffffffffffffffffff1681526020016009820160009054906101000a900473ffffffffffffffffffffffffffffffffffffffff1673ffffffffffffffffffffffffffffffffffffffff1673ffffffffffffffffffffffffffffffffffffffff1681525050848681518110613860577f4e487b7100000000000000000000000000000000000000000000000000000000600052603260045260246000fd5b60200260200101819052506001856138789190615820565b945050505b808061388890615a67565b9150506134c9565b508094505050505090565b600063f23a6e6160e01b905095945050505050565b600260005414156138f6576040517f08c379a00000000000000000000000000000000000000000000000000000000081526004016138ed90615610565b60405180910390fd5b600260008190555060008311613941576040517f08c379a0000000000000000000000000000000000000000000000000000000008152600401613938906155b0565b60405180910390fd5b61394b60016143c3565b6000613957600161405c565b9050604051806101400160405280828152602001868152602001600181526020018581526020018481526020013373ffffffffffffffffffffffffffffffffffffffff1681526020013373ffffffffffffffffffffffffffffffffffffffff168152602001600073ffffffffffffffffffffffffffffffffffffffff1681526020018773ffffffffffffffffffffffffffffffffffffffff1681526020018373ffffffffffffffffffffffffffffffffffffffff1681525060066000838152602001908152602001600020600082015181600001556020820151816001015560408201518160020155606082015181600301556080820151816004015560a08201518160050160006101000a81548173ffffffffffffffffffffffffffffffffffffffff021916908373ffffffffffffffffffffffffffffffffffffffff16021790555060c08201518160060160006101000a81548173ffffffffffffffffffffffffffffffffffffffff021916908373ffffffffffffffffffffffffffffffffffffffff16021790555060e08201518160070160006101000a81548173ffffffffffffffffffffffffffffffffffffffff021916908373ffffffffffffffffffffffffffffffffffffffff1602179055506101008201518160080160006101000a81548173ffffffffffffffffffffffffffffffffffffffff021916908373ffffffffffffffffffffffffffffffffffffffff1602179055506101208201518160090160006101000a81548173ffffffffffffffffffffffffffffffffffffffff021916908373ffffffffffffffffffffffffffffffffffffffff1602179055509050508573ffffffffffffffffffffffffffffffffffffffff166323b872dd3330886040518463ffffffff1660e01b8152600401613bf993929190615420565b600060405180830381600087803b158015613c1357600080fd5b505af1158015613c27573d6000803e3d6000fd5b50505050807f035875e77974ebd026dc933493d995de7caf0d3cbdbf9a8ee2e2e5229395d9ed60405160405180910390a25060016000819055505050505050565b600360009054906101000a900473ffffffffffffffffffffffffffffffffffffffff1681565b600360009054906101000a900473ffffffffffffffffffffffffffffffffffffffff1673ffffffffffffffffffffffffffffffffffffffff163373ffffffffffffffffffffffffffffffffffffffff1614613d1e576040517f08c379a0000000000000000000000000000000000000000000000000000000008152600401613d1590615590565b60405180910390fd5b8060058190555050565b60026000541415613d6e576040517f08c379a0000000000000000000000000000000000000000000000000000000008152600401613d6590615610565b60405180910390fd5b60026000819055506006600082815260200190815260200160002060050160009054906101000a900473ffffffffffffffffffffffffffffffffffffffff1673ffffffffffffffffffffffffffffffffffffffff163373ffffffffffffffffffffffffffffffffffffffff161415613e1b576040517f08c379a0000000000000000000000000000000000000000000000000000000008152600401613e1290615650565b60405180910390fd5b6006600082815260200190815260200160002060060160009054906101000a900473ffffffffffffffffffffffffffffffffffffffff1673ffffffffffffffffffffffffffffffffffffffff163373ffffffffffffffffffffffffffffffffffffffff161415613ec0576040517f08c379a0000000000000000000000000000000000000000000000000000000008152600401613eb790615630565b60405180910390fd5b60066000828152602001908152602001600020600301548314613f18576040517f08c379a0000000000000000000000000000000000000000000000000000000008152600401613f0f90615570565b60405180910390fd5b613f23338483614435565b6000600660008381526020019081526020016000206001015490508273ffffffffffffffffffffffffffffffffffffffff166323b872dd3033846040518463ffffffff1660e01b8152600401613f7b93929190615420565b600060405180830381600087803b158015613f9557600080fd5b505af1158015613fa9573d6000803e3d6000fd5b50505050613fb760026143c3565b817f035875e77974ebd026dc933493d995de7caf0d3cbdbf9a8ee2e2e5229395d9ed60405160405180910390a2506001600081905550505050565b60007f01ffc9a7000000000000000000000000000000000000000000000000000000007bffffffffffffffffffffffffffffffffffffffffffffffffffffffff1916827bffffffffffffffffffffffffffffffffffffffffffffffffffffffff1916149050919050565b600081600001549050919050565b8273ffffffffffffffffffffffffffffffffffffffff166006600083815260200190815260200160002060090160009054906101000a900473ffffffffffffffffffffffffffffffffffffffff1673ffffffffffffffffffffffffffffffffffffffff161461410e576040517f08c379a0000000000000000000000000000000000000000000000000000000008152600401614105906155d0565b60405180910390fd5b60008290508373ffffffffffffffffffffffffffffffffffffffff166323b872dd8630846040518463ffffffff1660e01b815260040161415093929190615420565b602060405180830381600087803b15801561416a57600080fd5b505af115801561417e573d6000803e3d6000fd5b505050506040513d601f19601f820116820180604052508101906141a29190614da0565b50846006600084815260200190815260200160002060070160006101000a81548173ffffffffffffffffffffffffffffffffffffffff021916908373ffffffffffffffffffffffffffffffffffffffff160217905550600060648260055461420a91906158a7565b6142149190615876565b90508473ffffffffffffffffffffffffffffffffffffffff1663a9059cbb600360009054906101000a900473ffffffffffffffffffffffffffffffffffffffff16836040518363ffffffff1660e01b81526004016142739291906153f7565b602060405180830381600087803b15801561428d57600080fd5b505af11580156142a1573d6000803e3d6000fd5b505050506040513d601f19601f820116820180604052508101906142c59190614da0565b5060006006600085815260200190815260200160002060060160009054906101000a900473ffffffffffffffffffffffffffffffffffffffff169050600060648460055460646143159190615901565b61431f91906158a7565b6143299190615876565b90508673ffffffffffffffffffffffffffffffffffffffff1663a9059cbb83836040518363ffffffff1660e01b81526004016143669291906154af565b602060405180830381600087803b15801561438057600080fd5b505af1158015614394573d6000803e3d6000fd5b505050506040513d601f19601f820116820180604052508101906143b89190614da0565b505050505050505050565b6001816000016000828254019250508190555050565b60008160000154905060008111614425576040517f08c379a000000000000000000000000000000000000000000000000000000000815260040161441c90615530565b60405180910390fd5b6001810382600001819055505050565b60006006600083815260200190815260200160002060090160009054906101000a900473ffffffffffffffffffffffffffffffffffffffff1690508073ffffffffffffffffffffffffffffffffffffffff166323b872dd8530866040518463ffffffff1660e01b81526004016144ad93929190615420565b602060405180830381600087803b1580156144c757600080fd5b505af11580156144db573d6000803e3d6000fd5b505050506040513d601f19601f820116820180604052508101906144ff9190614da0565b506000606484600660008681526020019081526020016000206004015461452691906158a7565b6145309190615876565b905060006006600085815260200190815260200160002060050160009054906101000a900473ffffffffffffffffffffffffffffffffffffffff1690508273ffffffffffffffffffffffffffffffffffffffff1663a9059cbb82846040518363ffffffff1660e01b81526004016145a89291906154af565b602060405180830381600087803b1580156145c257600080fd5b505af11580156145d6573d6000803e3d6000fd5b505050506040513d601f19601f820116820180604052508101906145fa9190614da0565b506000606486600660008881526020019081526020016000206004015460646146239190615901565b61462d91906158a7565b6146379190615876565b905060006006600087815260200190815260200160002060060160009054906101000a900473ffffffffffffffffffffffffffffffffffffffff1690508473ffffffffffffffffffffffffffffffffffffffff1663a9059cbb82846040518363ffffffff1660e01b81526004016146af9291906154af565b602060405180830381600087803b1580156146c957600080fd5b505af11580156146dd573d6000803e3d6000fd5b505050506040513d601f19601f820116820180604052508101906147019190614da0565b50876006600088815260200190815260200160002060070160006101000a81548173ffffffffffffffffffffffffffffffffffffffff021916908373ffffffffffffffffffffffffffffffffffffffff1602179055505050505050505050565b6040518061014001604052806000815260200160008152602001600081526020016000815260200160008152602001600073ffffffffffffffffffffffffffffffffffffffff168152602001600073ffffffffffffffffffffffffffffffffffffffff168152602001600073ffffffffffffffffffffffffffffffffffffffff168152602001600073ffffffffffffffffffffffffffffffffffffffff168152602001600073ffffffffffffffffffffffffffffffffffffffff1681525090565b600061483561483084615768565b615743565b9050808382526020820190508285602086028201111561485457600080fd5b60005b85811015614884578161486a8882614974565b845260208401935060208301925050600181019050614857565b5050509392505050565b60006148a161489c84615794565b615743565b9050828152602081018484840111156148b957600080fd5b6148c4848285615a27565b509392505050565b6000813590506148db81615da9565b92915050565b600082601f8301126148f257600080fd5b8135614902848260208601614822565b91505092915050565b60008151905061491a81615dc0565b92915050565b60008135905061492f81615dd7565b92915050565b600082601f83011261494657600080fd5b813561495684826020860161488e565b91505092915050565b60008135905061496e81615dee565b92915050565b60008135905061498381615e05565b92915050565b60006020828403121561499b57600080fd5b60006149a9848285016148cc565b91505092915050565b600080600080600060a086880312156149ca57600080fd5b60006149d8888289016148cc565b95505060206149e9888289016148cc565b945050604086013567ffffffffffffffff811115614a0657600080fd5b614a12888289016148e1565b935050606086013567ffffffffffffffff811115614a2f57600080fd5b614a3b888289016148e1565b925050608086013567ffffffffffffffff811115614a5857600080fd5b614a6488828901614935565b9150509295509295909350565b600080600080600060a08688031215614a8957600080fd5b6000614a97888289016148cc565b9550506020614aa8888289016148cc565b9450506040614ab988828901614974565b9350506060614aca88828901614974565b925050608086013567ffffffffffffffff811115614ae757600080fd5b614af388828901614935565b9150509295509295909350565b60008060408385031215614b1357600080fd5b6000614b21858286016148cc565b9250506020614b3285828601614974565b9150509250929050565b600080600060608486031215614b5157600080fd5b6000614b5f868287016148cc565b9350506020614b7086828701614974565b9250506040614b81868287016148cc565b9150509250925092565b60008060008060808587031215614ba157600080fd5b6000614baf878288016148cc565b9450506020614bc087828801614974565b9350506040614bd1878288016148cc565b9250506060614be287828801614974565b91505092959194509250565b600080600060608486031215614c0357600080fd5b6000614c11868287016148cc565b9350506020614c2286828701614974565b9250506040614c3386828701614974565b9150509250925092565b60008060008060808587031215614c5357600080fd5b6000614c61878288016148cc565b9450506020614c7287828801614974565b9350506040614c8387828801614974565b9250506060614c9487828801614974565b91505092959194509250565b600080600080600060a08688031215614cb857600080fd5b6000614cc6888289016148cc565b9550506020614cd788828901614974565b9450506040614ce888828901614974565b9350506060614cf988828901614974565b9250506080614d0a8882890161495f565b9150509295509295909350565b60008060008060008060c08789031215614d3057600080fd5b6000614d3e89828a016148cc565b9650506020614d4f89828a01614974565b9550506040614d6089828a01614974565b9450506060614d7189828a01614974565b9350506080614d8289828a01614974565b92505060a0614d9389828a0161495f565b9150509295509295509295565b600060208284031215614db257600080fd5b6000614dc08482850161490b565b91505092915050565b600060208284031215614ddb57600080fd5b6000614de984828501614920565b91505092915050565b60008060008060808587031215614e0857600080fd5b6000614e168782880161495f565b9450506020614e2787828801614974565b9350506040614e38878288016148cc565b9250506060614e4987828801614974565b91505092959194509250565b600080600080600060a08688031215614e6d57600080fd5b6000614e7b8882890161495f565b9550506020614e8c88828901614974565b9450506040614e9d888289016148cc565b9350506060614eae88828901614974565b9250506080614ebf88828901614974565b9150509295509295909350565b600060208284031215614ede57600080fd5b6000614eec84828501614974565b91505092915050565b600080600060608486031215614f0a57600080fd5b6000614f1886828701614974565b9350506020614f29868287016148cc565b9250506040614f3a86828701614974565b9150509250925092565b60008060008060808587031215614f5a57600080fd5b6000614f6887828801614974565b9450506020614f79878288016148cc565b9350506040614f8a87828801614974565b9250506060614f9b87828801614974565b91505092959194509250565b6000614fb38383615226565b6101408301905092915050565b614fc9816159cd565b82525050565b614fd881615947565b82525050565b614fe781615947565b82525050565b614ff681615935565b82525050565b61500581615935565b82525050565b6000615016826157d5565b61502081856157ed565b935061502b836157c5565b8060005b8381101561505c5781516150438882614fa7565b975061504e836157e0565b92505060018101905061502f565b5085935050505092915050565b61507281615959565b82525050565b61508181615965565b82525050565b615090816159df565b82525050565b61509f816159df565b82525050565b60006150b2601b8361580f565b91506150bd82615b4e565b602082019050919050565b60006150d560328361580f565b91506150e082615b77565b604082019050919050565b60006150f860248361580f565b915061510382615bc6565b604082019050919050565b600061511b601a8361580f565b915061512682615c15565b602082019050919050565b600061513e60288361580f565b915061514982615c3e565b604082019050919050565b60006151616000836157fe565b915061516c82615c8d565b600082019050919050565b600061518460148361580f565b915061518f82615c90565b602082019050919050565b60006151a7601f8361580f565b91506151b282615cb9565b602082019050919050565b60006151ca601f8361580f565b91506151d582615ce2565b602082019050919050565b60006151ed60218361580f565b91506151f882615d0b565b604082019050919050565b600061521060238361580f565b915061521b82615d5a565b604082019050919050565b6101408201600082015161523d60008501826153be565b50602082015161525060208501826153be565b50604082015161526360408501826153be565b50606082015161527660608501826153be565b50608082015161528960808501826153be565b5060a082015161529c60a0850182614fcf565b5060c08201516152af60c0850182614fcf565b5060e08201516152c260e0850182614fcf565b506101008201516152d7610100850182614fed565b506101208201516152ec610120850182615087565b50505050565b6101408201600082015161530960008501826153be565b50602082015161531c60208501826153be565b50604082015161532f60408501826153be565b50606082015161534260608501826153be565b50608082015161535560808501826153be565b5060a082015161536860a0850182614fcf565b5060c082015161537b60c0850182614fcf565b5060e082015161538e60e0850182614fcf565b506101008201516153a3610100850182614fed565b506101208201516153b8610120850182615087565b50505050565b6153c7816159c3565b82525050565b6153d6816159c3565b82525050565b60006020820190506153f16000830184614fde565b92915050565b600060408201905061540c6000830185614fc0565b61541960208301846153cd565b9392505050565b60006060820190506154356000830186614ffc565b6154426020830185614ffc565b61544f60408301846153cd565b949350505050565b600060a08201905061546c6000830187614ffc565b6154796020830186614ffc565b61548660408301856153cd565b61549360608301846153cd565b81810360808301526154a481615154565b905095945050505050565b60006040820190506154c46000830185614ffc565b6154d160208301846153cd565b9392505050565b600060208201905081810360008301526154f2818461500b565b905092915050565b600060208201905061550f6000830184615069565b92915050565b600060208201905061552a6000830184615078565b92915050565b60006020820190508181036000830152615549816150a5565b9050919050565b60006020820190508181036000830152615569816150c8565b9050919050565b60006020820190508181036000830152615589816150eb565b9050919050565b600060208201905081810360008301526155a98161510e565b9050919050565b600060208201905081810360008301526155c981615131565b9050919050565b600060208201905081810360008301526155e981615177565b9050919050565b600060208201905081810360008301526156098161519a565b9050919050565b60006020820190508181036000830152615629816151bd565b9050919050565b60006020820190508181036000830152615649816151e0565b9050919050565b6000602082019050818103600083015261566981615203565b9050919050565b60006101408201905061568660008301846152f2565b92915050565b60006020820190506156a160008301846153cd565b92915050565b6000610140820190506156bd600083018d6153cd565b6156ca602083018c6153cd565b6156d7604083018b6153cd565b6156e4606083018a6153cd565b6156f160808301896153cd565b6156fe60a0830188614fde565b61570b60c0830187614fde565b61571860e0830186614fde565b615726610100830185614ffc565b615734610120830184615096565b9b9a5050505050505050505050565b600061574d61575e565b90506157598282615a36565b919050565b6000604051905090565b600067ffffffffffffffff82111561578357615782615b0e565b5b602082029050602081019050919050565b600067ffffffffffffffff8211156157af576157ae615b0e565b5b6157b882615b3d565b9050602081019050919050565b6000819050602082019050919050565b600081519050919050565b6000602082019050919050565b600082825260208201905092915050565b600082825260208201905092915050565b600082825260208201905092915050565b600061582b826159c3565b9150615836836159c3565b9250827fffffffffffffffffffffffffffffffffffffffffffffffffffffffffffffffff0382111561586b5761586a615ab0565b5b828201905092915050565b6000615881826159c3565b915061588c836159c3565b92508261589c5761589b615adf565b5b828204905092915050565b60006158b2826159c3565b91506158bd836159c3565b9250817fffffffffffffffffffffffffffffffffffffffffffffffffffffffffffffffff04831182151516156158f6576158f5615ab0565b5b828202905092915050565b600061590c826159c3565b9150615917836159c3565b92508282101561592a57615929615ab0565b5b828203905092915050565b6000615940826159a3565b9050919050565b6000615952826159a3565b9050919050565b60008115159050919050565b60007fffffffff0000000000000000000000000000000000000000000000000000000082169050919050565b600061599c82615935565b9050919050565b600073ffffffffffffffffffffffffffffffffffffffff82169050919050565b6000819050919050565b60006159d882615a03565b9050919050565b60006159ea826159f1565b9050919050565b60006159fc826159a3565b9050919050565b6000615a0e82615a15565b9050919050565b6000615a20826159a3565b9050919050565b82818337600083830152505050565b615a3f82615b3d565b810181811067ffffffffffffffff82111715615a5e57615a5d615b0e565b5b80604052505050565b6000615a72826159c3565b91507fffffffffffffffffffffffffffffffffffffffffffffffffffffffffffffffff821415615aa557615aa4615ab0565b5b600182019050919050565b7f4e487b7100000000000000000000000000000000000000000000000000000000600052601160045260246000fd5b7f4e487b7100000000000000000000000000000000000000000000000000000000600052601260045260246000fd5b7f4e487b7100000000000000000000000000000000000000000000000000000000600052604160045260246000fd5b6000601f19601f8301169050919050565b7f436f756e7465723a2064656372656d656e74206f766572666c6f770000000000600082015250565b7f4f6e6c7920612073656c6c657220697320616c6c6f77656420746f2072656d6f60008201527f766520746865206d61726b6574206974656d0000000000000000000000000000602082015250565b7f4d757374207375626d69742061736b696e6720707269636520746f207075726360008201527f6861736500000000000000000000000000000000000000000000000000000000602082015250565b7f4f6e6c792061646d696e2063616e206163636573732074686973000000000000600082015250565b7f4c697374696e67207072696365206d757374206265206772656174657220746860008201527f616e207a65726f2e000000000000000000000000000000000000000000000000602082015250565b50565b7f546f6b656e73206d7573742062652073616d6521000000000000000000000000600082015250565b7f4f6e6c79206f776e65722063616e207472616e7366657220746865204e465400600082015250565b7f5265656e7472616e637947756172643a207265656e7472616e742063616c6c00600082015250565b7f53656c6c65722063616e2774206275792066726f6d206d61726b6574706c616360008201527f6500000000000000000000000000000000000000000000000000000000000000602082015250565b7f43726561746f72732063616e2774206275792066726f6d206d61726b6574706c60008201527f6163650000000000000000000000000000000000000000000000000000000000602082015250565b615db281615935565b8114615dbd57600080fd5b50565b615dc981615959565b8114615dd457600080fd5b50565b615de081615965565b8114615deb57600080fd5b50565b615df781615991565b8114615e0257600080fd5b50565b615e0e816159c3565b8114615e1957600080fd5b5056fea26469706673582212200fee5f8a5efa193752b1973ad2314e6623a02524c012baa054899c68838492b364736f6c63430008040033",
  "immutableReferences": {},
  "source": "//SPDX-License-Identifier: MIT OR Apache-2.0\npragma solidity ^0.8.0;\n\nimport \"@openzeppelin/contracts/utils/Counters.sol\";\n// import \"@openzeppelin/contracts/token/ERC721/extensions/ERC721URIStorage.sol\";\nimport \"@openzeppelin/contracts/token/ERC1155/ERC1155.sol\";\nimport \"@openzeppelin/contracts/token/ERC721/ERC721.sol\";\n// import \"@openzeppelin/contracts/token/ERC1155/IERC1155Receiver.sol\";\nimport \"@openzeppelin/contracts/token/ERC1155/utils/ERC1155Holder.sol\";\nimport \"@openzeppelin/contracts/security/ReentrancyGuard.sol\";\nimport \"@openzeppelin/contracts/token/ERC20/utils/SafeERC20.sol\";\n\ncontract nftMarketplace9 is ReentrancyGuard, ERC1155Holder {\n    using Counters for Counters.Counter;\n    Counters.Counter private _itemIds;\n    Counters.Counter private _itemsSold;\n\n    address payable public admin;\n    // address[] public creators;\n    // mapping(address => bool) public isCreator;\n    mapping(address => mapping(uint256 => bool)) removed;\n    uint256 public platformCommission;\n\n    constructor() {\n        admin = payable(msg.sender);\n        platformCommission = 2;\n    }\n\n    // [ MODIFIERS ]\n\n    modifier onlyAdmin() {\n        require(msg.sender == admin, \"Only admin can access this\");\n        _;\n    }\n\n    //This will hold data of each nft available on the marketplace.\n    struct MarketItem {\n        uint256 marketItemId;\n        uint256 tokenId;\n        uint256 amount;\n        uint256 price;\n        uint256 royalty;\n        address payable creator;\n        address payable seller;\n        address payable owner;\n        address nftContract;\n        IERC20 token;\n    }\n\n    //a mapping to point to our structure marketItem. It will take marketItemId as an input.\n    // mapping(uint256 => MarketItem) private allMarketItems;\n    mapping(uint256 => MarketItem) public allMarketItems;\n\n    // event MarketItemCreated(\n    //     uint256 indexed marketItemId,\n    //     address indexed nftContract,\n    //     uint256 indexed tokenId,\n    //     address creator,\n    //     uint256 royalty,\n    //     uint256 price,\n    //     uint256 amount\n    // );\n\n    event MarketItemId(\n        // address indexed nftContract,\n        uint256 indexed marketItemId\n    );\n\n    // event RemoveMarketItem(\n    //     uint256 indexed marketItemId\n    //     // address indexed nftContract,\n    //     // uint256 indexed tokenId\n    // );\n\n    // event UpdateMarketItem(\n    //     uint256 indexed marketItemId\n    //     // address indexed nftContract,\n    //     // uint256 indexed tokenId\n    // );\n\n    // event SecondarySale(\n    //     address indexed nftContract\n    //     // uint256 indexed marketItemId,\n    //     // uint256 price\n    // );\n\n    // event SecondaryBuy(\n    //     // address indexed nftContract,\n    //     uint256 indexed marketItemId\n    // );\n\n    // [ ADMIN FUNCTIONS ]\n\n    // Fallback: reverts if Ether is sent to this smart contract by mistake\n    // fallback() external {\n    //     revert();\n    // }\n\n    function updatePlatformCommision(uint256 _platformCommission)\n        public\n        onlyAdmin\n    {\n        platformCommission = _platformCommission;\n    }\n\n    function updateAdmin(address _admin) public onlyAdmin {\n        admin = payable(_admin);\n    }\n\n    // [ TRADE FUNCTIONS ]\n    //For listing an item on the marketplace.\n    //onlyCreator\n    // //ERC 721\n    // function createMarketItem721(\n    //     address _nftContract,\n    //     uint256 _tokenId,\n    //     uint256 _price,\n    //     uint256 _royalty\n    // ) public payable nonReentrant {\n    //     require(_price > 0, \"Listing price must be greater than zero.\");\n    //     // require(\n    //     //     _price > platformCommission,\n    //     //     \"Minimum platform commission is not met.\"\n    //     // );\n\n    //     _itemIds.increment(); //incrementing our counter.\n    //     uint256 marketItemId = _itemIds.current(); //storing current value of counter in a new local variable.\n\n    //     //Initializing the structure MarketItem, and saving it in allMarketItems mapping with our local variable passed as an argument.\n    //     allMarketItems[marketItemId] = MarketItem(\n    //         marketItemId,\n    //         _tokenId,\n    //         1,\n    //         _price,\n    //         _royalty,\n    //         payable(msg.sender), //Only creator will be able to create items to sell.\n    //         payable(msg.sender), //Marketplace is the seller when market item is first created.\n    //         payable(address(0)), //setting the owner's address to zero, as it still need to be sold on marketplace.\n    //         _nftContract,\n    //         IERC20(address(0))\n    //     );\n\n    //     IERC721(_nftContract).transferFrom(msg.sender, address(this), _tokenId); //Transfering NFT from creator to marketplace.\n\n    //     emit MarketItemCreated(\n    //         marketItemId,\n    //         _nftContract,\n    //         _tokenId,\n    //         msg.sender,\n    //         _royalty,\n    //         _price\n    //     );\n    // }\n\n    // //ERC 1155\n    // function createMarketItem1155(\n    //     address _nftContract,\n    //     uint256 _tokenId,\n    //     uint256 _amount,\n    //     uint256 _price,\n    //     uint256 _royalty\n    // ) public payable nonReentrant {\n    //     require(_price > 0, \"Listing price must be greater than zero.\");\n    //     // require(\n    //     //     _price > platformCommission,\n    //     //     \"Minimum platform commission is not met.\"\n    //     // );\n\n    //     _itemIds.increment(); //incrementing our counter.\n    //     uint256 marketItemId = _itemIds.current(); //storing current value of counter in a new local variable.\n\n    //     //Initializing the structure MarketItem, and saving it in allMarketItems mapping with our local variable passed as an argument.\n    //     allMarketItems[marketItemId] = MarketItem(\n    //         marketItemId,\n    //         _tokenId,\n    //         _amount,\n    //         _price,\n    //         _royalty,\n    //         payable(msg.sender), //Only creator will be able to create items to sell.\n    //         payable(msg.sender), //Marketplace is the seller when market item is first created.\n    //         payable(address(0)), //setting the owner's address to zero, as it still need to be sold on marketplace.\n    //         _nftContract,\n    //         IERC20(address(0))\n    //     );\n\n    //     IERC1155(_nftContract).safeTransferFrom(\n    //         msg.sender,\n    //         address(this),\n    //         _tokenId,\n    //         _amount,\n    //         \"\"\n    //     ); //Transfering NFT from creator to marketplace.\n\n    //     emit MarketItemCreated(\n    //         marketItemId,\n    //         _nftContract,\n    //         _tokenId,\n    //         msg.sender,\n    //         _royalty,\n    //         _price\n    //     );\n    // }\n\n    //ERC721\n    function createMarketItem721WETH(\n        address _nftContract,\n        uint256 _tokenId,\n        uint256 _price,\n        uint256 _royalty,\n        IERC20 token\n    ) public payable nonReentrant {\n        require(_price > 0, \"Listing price must be greater than zero.\");\n        // require(\n        //     _price > platformCommission,\n        //     \"Minimum platform commission is not met.\"\n        // );\n\n        _itemIds.increment(); //incrementing our counter.\n        uint256 marketItemId = _itemIds.current(); //storing current value of counter in a new local variable.\n\n        //Initializing the structure MarketItem, and saving it in allMarketItems mapping with our local variable passed as an argument.\n        allMarketItems[marketItemId] = MarketItem(\n            marketItemId,\n            _tokenId,\n            1,\n            _price,\n            _royalty,\n            payable(msg.sender), //Only creator will be able to create items to sell.\n            payable(msg.sender), //Marketplace is the seller when market item is first created.\n            payable(address(0)), //setting the owner's address to zero, as it still need to be sold on marketplace.\n            _nftContract,\n            token\n        );\n\n        IERC721(_nftContract).transferFrom(msg.sender, address(this), _tokenId); //Transfering NFT from creator to marketplace.\n\n        // emit MarketItemCreated(\n        //     marketItemId,\n        //     _nftContract,\n        //     _tokenId,\n        //     msg.sender,\n        //     _royalty,\n        //     _price,\n        //     1\n        // );\n        emit MarketItemId(marketItemId);\n    }\n\n    //ERC1155\n    function createMarketItem1155WETH(\n        address _nftContract,\n        uint256 _tokenId,\n        uint256 _amount,\n        uint256 _price,\n        uint256 _royalty,\n        IERC20 token\n    ) public payable nonReentrant {\n        require(_price > 0, \"Listing price must be greater than zero.\");\n        // require(\n        //     _price > platformCommission,\n        //     \"Minimum platform commission is not met.\"\n        // );\n\n        _itemIds.increment(); //incrementing our counter.\n        uint256 marketItemId = _itemIds.current(); //storing current value of counter in a new local variable.\n\n        //Initializing the structure MarketItem, and saving it in allMarketItems mapping with our local variable passed as an argument.\n        allMarketItems[marketItemId] = MarketItem(\n            marketItemId,\n            _tokenId,\n            _amount,\n            _price,\n            _royalty,\n            payable(msg.sender), //Only creator will be able to create items to sell.\n            payable(msg.sender), //Marketplace is the seller when market item is first created.\n            payable(address(0)), //setting the owner's address to zero, as it still need to be sold on marketplace.\n            _nftContract,\n            token\n        );\n\n        IERC1155(_nftContract).safeTransferFrom(\n            msg.sender,\n            address(this),\n            _tokenId,\n            _amount,\n            \"\"\n        ); //Transfering NFT from creator to marketplace.\n\n        // emit MarketItemCreated(\n        //     marketItemId,\n        //     _nftContract,\n        //     _tokenId,\n        //     msg.sender,\n        //     _royalty,\n        //     _price,\n        //     _amount\n        // );\n        emit MarketItemId(marketItemId);\n    }\n\n    //For sellers, To remove created NFT market item. Only sellers can call this function.\n    //ERC 721\n    function removeMarketItem721WETH(\n        address _nftContract,\n        uint256 _marketItemId\n    ) public payable nonReentrant {\n        // require(\n        //     msg.sender == allMarketItems[_marketItemId].creator,\n        //     \"A Creator is not allowed to remove the market item\"\n        // );\n        require(\n            msg.sender == allMarketItems[_marketItemId].seller,\n            \"Only a seller is allowed to remove the market item\"\n        );\n        require(allMarketItems[_marketItemId].owner == address(0));\n\n        allMarketItems[_marketItemId].owner = payable(msg.sender);\n        // allMarketItems[_marketItemId].price = 0;\n\n        uint256 tokenId = allMarketItems[_marketItemId].tokenId;\n        removed[_nftContract][tokenId] = true;\n\n        IERC721(_nftContract).transferFrom(address(this), msg.sender, tokenId); //sending the NFT back to the seller.\n        // delete allMarketItems[_marketItemId];\n        emit MarketItemId(_marketItemId);\n    }\n\n    //ERC 11155\n    function removeMarketItem1155WETH(\n        address _nftContract,\n        uint256 _marketItemId,\n        uint256 _amount\n    ) public payable nonReentrant {\n        // require(\n        //     msg.sender == allMarketItems[_marketItemId].creator,\n        //     \"A Creator is not allowed to remove the market item\"\n        // );\n        require(\n            msg.sender == allMarketItems[_marketItemId].seller,\n            \"Only a seller is allowed to remove the market item\"\n        );\n        require(allMarketItems[_marketItemId].owner == address(0));\n\n        allMarketItems[_marketItemId].owner = payable(msg.sender);\n        // allMarketItems[_marketItemId].price = 0;\n\n        uint256 tokenId = allMarketItems[_marketItemId].tokenId;\n        removed[_nftContract][tokenId] = true;\n        // uint256 amount = allMarketItems[_marketItemId].amount;\n\n        IERC1155(_nftContract).safeTransferFrom(\n            address(this),\n            msg.sender,\n            tokenId,\n            _amount,\n            \"\"\n        ); //sending the NFT back to the seller.\n        // delete allMarketItems[_marketItemId];\n        emit MarketItemId(_marketItemId);\n    }\n\n    //For sellers, To update price and resell created NFT market item. Only sellers can call this function.\n    //ERC 721\n    function updateMarketItem721WETH(\n        address _nftContract,\n        uint256 _marketItemId,\n        uint256 _price\n    ) public payable nonReentrant {\n        require(msg.sender == allMarketItems[_marketItemId].seller);\n        require(msg.sender == allMarketItems[_marketItemId].owner);\n        require(_price > 0, \"Listing price must be greater than zero.\");\n        // require(\n        //     _price > platformCommission,\n        //     \"Minimum platform commission is not met.\"\n        // );\n\n        // _itemIds.increment(); //incrementing our counter.\n        // uint256 marketItemId = _itemIds.current(); //storing current value of counter in a new local variable.\n\n        // allMarketItems[_marketItemId].seller = payable(msg.sender);\n        allMarketItems[_marketItemId].price = _price;\n\n        uint256 tokenId = allMarketItems[_marketItemId].tokenId;\n        removed[_nftContract][tokenId] = false;\n\n        IERC721(_nftContract).transferFrom(msg.sender, address(this), tokenId); //Transfering NFT from creator to marketplace.\n\n        // emit MarketItemCreated(\n        //     marketItemId,\n        //     _nftContract,\n        //     tokenId,\n        //     msg.sender,\n        //     _royalty,\n        //     _price\n        // );\n        emit MarketItemId(_marketItemId);\n    }\n\n    //ERC1155\n    function updateMarketItem1155WETH(\n        address _nftContract,\n        uint256 _marketItemId,\n        uint256 _price,\n        uint256 _amount\n    ) public payable nonReentrant {\n        require(msg.sender == allMarketItems[_marketItemId].seller);\n        require(msg.sender == allMarketItems[_marketItemId].owner);\n        require(_price > 0, \"Listing price must be greater than zero.\");\n        // require(\n        //     _price > platformCommission,\n        //     \"Minimum platform commission is not met.\"\n        // );\n\n        // _itemIds.increment(); //incrementing our counter.\n        // uint256 marketItemId = _itemIds.current(); //storing current value of counter in a new local variable.\n        uint256 tokenId = allMarketItems[_marketItemId].tokenId;\n        removed[_nftContract][tokenId] = false;\n        // uint256 amount = allMarketItems[_marketItemId].amount;\n\n        // allMarketItems[_marketItemId].seller = payable(msg.sender);\n        allMarketItems[_marketItemId].price = _price;\n\n        IERC1155(_nftContract).safeTransferFrom(\n            msg.sender,\n            address(this),\n            tokenId,\n            _amount,\n            \"\"\n        ); //Transfering NFT from creator to marketplace.\n\n        // emit MarketItemCreated(\n        //     marketItemId,\n        //     _nftContract,\n        //     _tokenId,\n        //     msg.sender,\n        //     _royalty,\n        //     _price\n        // );\n        emit MarketItemId(_marketItemId);\n    }\n\n    // function transferBuy(\n    //     address _recipient,\n    //     uint256 _amount,\n    //     uint256 _marketItemId\n    // ) public payable {\n    //     uint256 sellingPrice = _amount;\n\n    //     allMarketItems[_marketItemId].owner = payable(_recipient); //Updating the ownership in local mapping to buyer who is msg.sender in this function.\n\n    //     uint256 commission = (platformCommission * sellingPrice) / 100;\n\n    //     payable(admin).transfer(commission); //Transfering the listing fee to the admin of the marketplace.\n    //     uint256 sellerShare = ((100 - platformCommission) * sellingPrice) / 100;\n    //     allMarketItems[_marketItemId].seller.transfer(sellerShare); //transferring the sale amount to the seller after deducting platform commission.\n    // }\n\n    //For buyers, To perform primary buying of the created NFT market item. Only first buyer can call this.\n    // //ERC 721\n    // function buyMarketItem721(address _nftContract, uint256 _marketItemId)\n    //     public\n    //     payable\n    //     nonReentrant\n    // {\n    //     require(\n    //         msg.sender != allMarketItems[_marketItemId].creator,\n    //         \"Creators can't buy from marketplace\"\n    //     );\n    //     require(\n    //         msg.value == allMarketItems[_marketItemId].price,\n    //         \"Must submit asking price to purchase\"\n    //     );\n\n    //     transferBuy(msg.sender, msg.value, _marketItemId);\n\n    //     uint256 tokenId = allMarketItems[_marketItemId].tokenId;\n    //     IERC721(_nftContract).transferFrom(address(this), msg.sender, tokenId); //sending the NFT to buyer.\n    //     _itemsSold.increment();\n    // }\n\n    // //ERC 1155\n    // function buyMarketItem1155(\n    //     address _nftContract,\n    //     uint256 _marketItemId,\n    //     uint256 amount\n    // ) public payable nonReentrant {\n    //     require(\n    //         msg.sender != allMarketItems[_marketItemId].creator,\n    //         \"Creators can't buy from marketplace\"\n    //     );\n    //     require(\n    //         msg.value == allMarketItems[_marketItemId].price,\n    //         \"Must submit asking price to purchase\"\n    //     );\n\n    //     transferBuy(msg.sender, msg.value, _marketItemId);\n\n    //     uint256 tokenId = allMarketItems[_marketItemId].tokenId;\n    //     // uint256 amount = allMarketItems[_marketItemId].amount;\n\n    //     IERC1155(_nftContract).safeTransferFrom(\n    //         address(this),\n    //         msg.sender,\n    //         tokenId,\n    //         amount,\n    //         \"\"\n    //     ); //sending the NFT to buyer.\n    //     // IERC1155(_nftContract).transferFrom(address(this), msg.sender, tokenId); //sending the NFT to buyer.\n\n    //     _itemsSold.increment();\n    // }\n\n    function _transferBuyWETH(\n        address _recipient,\n        IERC20 _token,\n        uint256 _amount,\n        uint256 _marketItemId\n    ) internal {\n        require(\n            allMarketItems[_marketItemId].token == _token,\n            \"Tokens must be same!\"\n        );\n        uint256 sellingPrice = _amount;\n        _token.transferFrom(_recipient, address(this), sellingPrice);\n\n        allMarketItems[_marketItemId].owner = payable(_recipient); //Updating the ownership in local mapping to buyer who is msg.sender in this function.\n\n        uint256 commission = (platformCommission * sellingPrice) / 100;\n        _token.transfer(admin, commission);\n\n        address seller = allMarketItems[_marketItemId].seller;\n        uint256 sellerShare = ((100 - platformCommission) * sellingPrice) / 100;\n        _token.transfer(seller, sellerShare);\n\n        // allMarketItems[_marketItemId].seller.transfer(sellerShare);\n    }\n\n    //ERC721\n    function buyMarketItem721WETH(\n        IERC20 _token,\n        uint256 _amount,\n        address _nftContract,\n        uint256 _marketItemId\n    ) public nonReentrant {\n        require(\n            msg.sender != allMarketItems[_marketItemId].creator,\n            \"Creators can't buy from marketplace\"\n        );\n        require(\n            _amount == allMarketItems[_marketItemId].price,\n            \"Must submit asking price to purchase\"\n        );\n        require(_token != IERC20(address(0)));\n\n        _transferBuyWETH(msg.sender, _token, _amount, _marketItemId);\n\n        uint256 tokenId = allMarketItems[_marketItemId].tokenId;\n        IERC721(_nftContract).transferFrom(address(this), msg.sender, tokenId); //sending the NFT to buyer.\n        _itemsSold.increment();\n    }\n\n    //ERC1155\n    function buyMarketItem1155WETH(\n        IERC20 _token,\n        uint256 _amount,\n        address _nftContract,\n        uint256 _marketItemId,\n        uint256 amount\n    ) public payable nonReentrant {\n        require(\n            msg.sender != allMarketItems[_marketItemId].creator,\n            \"Creators can't buy from marketplace\"\n        );\n        require(\n            _amount == allMarketItems[_marketItemId].price,\n            \"Must submit asking price to purchase\"\n        );\n        require(_token != IERC20(address(0)));\n\n        _transferBuyWETH(msg.sender, _token, _amount, _marketItemId);\n\n        uint256 tokenId = allMarketItems[_marketItemId].tokenId;\n        // uint256 amount = allMarketItems[_marketItemId].amount;\n\n        IERC1155(_nftContract).safeTransferFrom(\n            address(this),\n            msg.sender,\n            tokenId,\n            amount,\n            \"\"\n        ); //sending the NFT to buyer.\n        // IERC1155(_nftContract).transferFrom(address(this), msg.sender, tokenId); //sending the NFT to buyer.\n\n        _itemsSold.increment();\n    }\n\n    //To transfer their NFTs without charging royalty, creators and users will call this.\n    //ERC 721\n    function transfer721(\n        address _nftContract,\n        uint256 _marketItemId,\n        address _to\n    ) public payable nonReentrant {\n        require(\n            msg.sender == allMarketItems[_marketItemId].owner,\n            \"Only owner can transfer the NFT\"\n        );\n\n        uint256 tokenId = allMarketItems[_marketItemId].tokenId;\n        address _from = allMarketItems[_marketItemId].owner;\n\n        IERC721(_nftContract).transferFrom(_from, _to, tokenId); //Transfering the NFT.\n\n        allMarketItems[_marketItemId].seller = payable(_from); //setting previous owner as the seller.\n        allMarketItems[_marketItemId].owner = payable(_to); //updating the ownership of NFT to the new owner.\n    }\n\n    //ERC 1155\n    function transfer1155(\n        address _nftContract,\n        uint256 _marketItemId,\n        address _to,\n        uint256 _amount\n    ) public payable nonReentrant {\n        require(\n            msg.sender == allMarketItems[_marketItemId].owner,\n            \"Only owner can transfer the NFT\"\n        );\n\n        uint256 tokenId = allMarketItems[_marketItemId].tokenId;\n        address _from = allMarketItems[_marketItemId].owner;\n        // uint256 amount = allMarketItems[_marketItemId].amount;\n\n        // IERC1155(_nftContract).transferFrom(_from, _to, tokenId); //Transfering the NFT.\n        IERC1155(_nftContract).safeTransferFrom(\n            _from,\n            _to,\n            tokenId,\n            _amount,\n            \"\"\n        ); //Transfering the NFT.\n\n        allMarketItems[_marketItemId].seller = payable(_from); //setting previous owner as the seller.\n        allMarketItems[_marketItemId].owner = payable(_to); //updating the ownership of NFT to the new owner.\n    }\n\n    //To perform secondary sale of the NFT, first we'll transfer to marketplace and set the current owner as a seller.\n    //ERC 721\n    function secondary721saleWETH(\n        address _nftContract,\n        uint256 _marketItemId,\n        uint256 _price\n    ) public payable nonReentrant {\n        require(\n            msg.sender == allMarketItems[_marketItemId].owner,\n            \"Only owner can transfer the NFT\"\n        );\n\n        allMarketItems[_marketItemId].price = _price; //setting new price.\n        uint256 tokenId = allMarketItems[_marketItemId].tokenId;\n\n        //set owner to address 0 (for fetchMarketItem)\n        allMarketItems[_marketItemId].owner = payable(address(0));\n\n        IERC721(_nftContract).transferFrom(msg.sender, address(this), tokenId); //Transfering NFT from creator to marketplace.\n        // allMarketItems[_marketItemId].seller = allMarketItems[_marketItemId]\n        //     .owner; //setting previous owner as the seller.\n\n        _itemsSold.decrement();\n\n        allMarketItems[_marketItemId].seller = payable(msg.sender);\n\n        emit MarketItemId(_marketItemId);\n    }\n\n    //ERC 1155\n    function secondary1155saleWETH(\n        address _nftContract,\n        uint256 _marketItemId,\n        uint256 _amount,\n        uint256 _price\n    ) public payable nonReentrant {\n        require(\n            msg.sender == allMarketItems[_marketItemId].owner,\n            \"Only owner can transfer the NFT\"\n        );\n\n        allMarketItems[_marketItemId].price = _price; //setting new price.\n        uint256 tokenId = allMarketItems[_marketItemId].tokenId;\n        // uint256 amount = allMarketItems[_marketItemId].amount;\n\n        //set owner to address 0 (for fetchMarketItem)\n        allMarketItems[_marketItemId].owner = payable(address(0));\n\n        // IERC1155(_nftContract).transferFrom(msg.sender, address(this), tokenId); //Transfering NFT from creator to marketplace.\n        IERC1155(_nftContract).safeTransferFrom(\n            msg.sender,\n            address(this),\n            tokenId,\n            _amount,\n            \"\"\n        ); //Transfering NFT from creator to marketplace.\n        // allMarketItems[_marketItemId].seller = allMarketItems[_marketItemId]\n        //     .owner; //setting previous owner as the seller.\n\n        _itemsSold.decrement();\n\n        allMarketItems[_marketItemId].seller = payable(msg.sender);\n\n        emit MarketItemId(_marketItemId);\n    }\n\n    function _transferSecondaryBuyWETH(\n        address _recipient,\n        uint256 _amount,\n        uint256 _marketItemId\n    ) internal {\n        IERC20 token = allMarketItems[_marketItemId].token;\n        token.transferFrom(_recipient, address(this), _amount);\n\n        uint256 royalty = (allMarketItems[_marketItemId].royalty * _amount) /\n            100;\n        // allMarketItems[_marketItemId].creator.transfer(royalty); //Sending royalty to the creator.\n        address creator = allMarketItems[_marketItemId].creator; //Sending royalty to the creator.\n        token.transfer(creator, royalty);\n\n        uint256 transferAfterRoyalty = ((100 -\n            allMarketItems[_marketItemId].royalty) * _amount) / 100;\n        // allMarketItems[_marketItemId].seller.transfer(transferAfterRoyalty); //Sending royalty to the creator.\n        address seller = allMarketItems[_marketItemId].seller; //Sending royalty to the creator.\n        token.transfer(seller, transferAfterRoyalty);\n\n        // address _to = msg.sender;\n\n        allMarketItems[_marketItemId].owner = payable(_recipient); //updating the ownership of NFT to the new owner.\n    }\n\n    //To perform secondary buying of the NFT from marketplace we'll charge royalty.\n    //ERC 721\n    function secondary721buyWETH(\n        uint256 _amount,\n        address _nftContract,\n        uint256 _marketItemId\n    ) public payable nonReentrant {\n        require(\n            msg.sender != allMarketItems[_marketItemId].creator,\n            \"Creators can't buy from marketplace\"\n        );\n        require(\n            msg.sender != allMarketItems[_marketItemId].seller,\n            \"Seller can't buy from marketplace\"\n        );\n        require(\n            _amount == allMarketItems[_marketItemId].price,\n            \"Must submit asking price to purchase\"\n        );\n        _transferSecondaryBuyWETH(msg.sender, _amount, _marketItemId);\n\n        // address _to = msg.sender;\n\n        uint256 tokenId = allMarketItems[_marketItemId].tokenId;\n        IERC721(_nftContract).transferFrom(address(this), msg.sender, tokenId); //Transfering NFT from marketplace to new buyer.\n\n        _itemsSold.increment();\n\n        emit MarketItemId(_marketItemId);\n    }\n\n    //ERC 1155\n    function secondary1155buyWETH(\n        uint256 amount,\n        address _nftContract,\n        uint256 _marketItemId,\n        uint256 _amount\n    ) public payable nonReentrant {\n        require(\n            msg.sender != allMarketItems[_marketItemId].creator,\n            \"Creators can't buy from marketplace\"\n        );\n        require(\n            msg.sender != allMarketItems[_marketItemId].seller,\n            \"Seller can't buy from marketplace\"\n        );\n        require(\n            amount == allMarketItems[_marketItemId].price,\n            \"Must submit asking price to purchase\"\n        );\n        _transferSecondaryBuyWETH(msg.sender, amount, _marketItemId);\n\n        // address _to = msg.sender;\n\n        uint256 tokenId = allMarketItems[_marketItemId].tokenId;\n        // uint256 amount = allMarketItems[_marketItemId].amount;\n\n        // IERC1155(_nftContract).transferFrom(address(this), msg.sender, tokenId); //Transfering NFT from marketplace to new buyer.\n\n        IERC1155(_nftContract).safeTransferFrom(\n            address(this),\n            msg.sender,\n            tokenId,\n            _amount,\n            \"\"\n        );\n\n        _itemsSold.increment();\n\n        emit MarketItemId(_marketItemId);\n    }\n\n    // [ FETCH DATA FUNCTIONS ]\n\n    //To get a specific marketItem from marketplace, this function returns a structure 'marketItem' on _marketItemId input.\n    function fetchMarketItem(uint256 marketItemId)\n        public\n        view\n        returns (MarketItem memory)\n    {\n        return allMarketItems[marketItemId];\n    }\n\n    // To get all of the items currently for sale.\n    function fetchAllMarketItems() public view returns (MarketItem[] memory) {\n        uint256 totalItemCount = _itemIds.current(); //Total number of items created so far.\n        uint256 unsoldItemCount = totalItemCount - _itemsSold.current(); //Total - sold.\n        uint256 currentIndex = 0; // for looping over total number of items in order to get the current index in order to populate an array.\n\n        MarketItem[] memory items = new MarketItem[](unsoldItemCount); //creating a variable called 'items' of type MarketItem. It will hold a dynamic array, at each index of which will be a 'marketItem'. And we'll be setting 'items' to a new array with the length of the unsold items length. So we know that we want to only return the items that are unsold.\n\n        for (uint256 i = 0; i < totalItemCount; i++) {\n            //looping over the entire total items\n            if (\n                allMarketItems[i + 1].owner == address(0) &&\n                !removed[allMarketItems[i + 1].nftContract][\n                    allMarketItems[i + 1].tokenId\n                ]\n            ) //checking to see if the address is an empty address.\n            {\n                //If address is an empty address, that means this item is yet to be sold, and we want to return it. If it is not an empty address, we don't want to return it.\n\n                //uint currentID =allMarketItems[i+1].itemId;\n\n                uint256 currentId = i + 1; //We're using this variable as we can't pass i+1 in allMarketItems mapping, as we can't increment an address type with 1 which is of type uint. If the address is an empty address, we created an item called currentID and we set that to the value of this allMarketItems mapping. The index is starting at zero but our counter started at one so we're  going to say index plus one.\n\n                MarketItem storage currentItem = allMarketItems[currentId]; //Now we create an another variable called 'currentItem' ,and then we set it to the value returned by the mapping 'allMarketItems' at the index 'currentId'. The value returned by 'allMarketItems' is of type 'MarketItem', which is a struct, so we  have to use 'storage' keyword.\n\n                items[currentIndex] = currentItem;\n                currentIndex += 1; //increment the value of our 'currentIndex' by one because we started it at zero and now we're going to be adding a new item on the next loop so we want to increment 'currentIndex'.\n            }\n        }\n        return items; //this will return the market items that have not yet been sold.\n    }\n\n    function fetchMyNFTs() public view returns (MarketItem[] memory) {\n        uint256 totalItemCount = _itemIds.current();\n        uint256 itemCount = 0;\n        uint256 currentIndex = 0;\n\n        for (uint256 i = 0; i < totalItemCount; i++) {\n            if (allMarketItems[i + 1].owner == msg.sender) {\n                //checking to see if the address of owner is same as caller of this function.\n                itemCount += 1;\n            }\n        }\n\n        MarketItem[] memory myItems = new MarketItem[](itemCount);\n        for (uint256 i = 0; i < totalItemCount; i++) {\n            if (allMarketItems[i + 1].owner == msg.sender) {\n                uint256 currentId = i + 1;\n                MarketItem storage currentItem = allMarketItems[currentId];\n                myItems[currentIndex] = currentItem;\n                currentIndex += 1;\n            }\n        }\n\n        return myItems;\n    }\n\n    /* Returns only items a user has created */\n    function fetchItemsCreated() public view returns (MarketItem[] memory) {\n        uint256 totalItemCount = _itemIds.current();\n        uint256 itemCount = 0;\n        uint256 currentIndex = 0;\n\n        for (uint256 i = 0; i < totalItemCount; i++) {\n            if (\n                allMarketItems[i + 1].seller == msg.sender &&\n                !removed[allMarketItems[i + 1].nftContract][\n                    allMarketItems[i + 1].tokenId\n                ]\n            ) {\n                itemCount += 1;\n            }\n        }\n\n        MarketItem[] memory items = new MarketItem[](itemCount);\n        for (uint256 i = 0; i < totalItemCount; i++) {\n            if (\n                allMarketItems[i + 1].seller == msg.sender &&\n                !removed[allMarketItems[i + 1].nftContract][\n                    allMarketItems[i + 1].tokenId\n                ]\n            ) {\n                uint256 currentId = i + 1;\n                MarketItem storage currentItem = allMarketItems[currentId];\n                items[currentIndex] = currentItem;\n                currentIndex += 1;\n            }\n        }\n        return items;\n    }\n}\n",
  "sourcePath": "D:/Desktop/immense/crypto/defi application/test (NFT marketplace)/NFTmarketplace(final)/src/contracts/nftMarketplace9.sol",
  "compiler": {
    "name": "solc",
    "version": "0.8.4+commit.c7e474f2.Emscripten.clang"
  },
  "schemaVersion": "3.2.3",
  "updatedAt": "2022-03-03T14:25:16.546Z",
  "devdoc": {
    "kind": "dev",
    "methods": {
      "supportsInterface(bytes4)": {
        "details": "See {IERC165-supportsInterface}."
      }
    },
    "version": 1
  },
  "userdoc": {
    "kind": "user",
    "methods": {},
    "version": 1
  }
}